:100000000C942F010C9457010C9457010C94570138
:100010000C9457010C9457010C9457010C94570100
:100020000C9457010C9457010C9457010C94C10483
:100030000C9457010C9457010C9457010C945701E0
:100040000C9470040C9457010C947C030C9456038C
:100050000C9457010C9457010C9457010C945701C0
:100060000C9457010C94570150415F484947480090
:100070004C415F4D45440050415F4C4F570050414B
:100080005F4D494E0031362062697473003820623A
:100090006974730044697361626C6564006E5246F2
:1000A00032344C30312B006E524632344C303100F9
:1000B0003235304B42505300324D42505300314D97
:1000C0004250530000000000250028002B000000D3
:1000D0000008000201000003040700000000000007
:1000E000000000000000240027002A000001020395
:1000F00004051112131415160A0B0C0D0E0F535490
:10010000415455530909203D20307825303278205C
:1001100052585F44523D25782054585F44533D2542
:1001200078204D41585F52543D25782052585F50F9
:100130005F4E4F3D25782054585F46554C4C3D2529
:10014000780D0A00504120506F77657209203D20DC
:1001500025530D0A007E007700700068004352436B
:10016000204C656E67746809203D2025530D0A00F8
:1001700094008D0085004D6F64656C0909203D2059
:1001800025530D0A00A7009D00446174612052614F
:10019000746509203D2025530D0A00BE00B800B04B
:1001A0000044594E50442F46454154555245004352
:1001B0004F4E4649470052465F53455455500052F2
:1001C000465F434800454E5F525841444452004503
:1001D0004E5F41410052585F50575F50302D3600FE
:1001E00054585F414444520052585F414444525F66
:1001F00050322D350052585F414444525F50302DEB
:1002000031000D0A00253032780020307800255367
:10021000092563203D000D0A002030782530327812
:10022000002553092563203D00000000002300261F
:10023000002900040404040404040402020202026B
:10024000020303030303030102040810204080019A
:10025000020408102001020408102000FC0B1124E5
:100260001FBECFEFD8E0DEBFCDBF11E0A0E0B1E010
:10027000EEE0F5E202C005900D92AE38B107D9F775
:1002800022E0AEE8B1E001C01D92AA37B207E1F763
:1002900011E0CFE2D1E004C02197FE010E947A1262
:1002A000CE32D107C9F70E94EE080C9485120C9447
:1002B0000000CF92DF92EF92FF920F931F93CF93A4
:1002C000DF936C017A018B01C0E0D0E0CE15DF0531
:1002D00089F0D8016D918D01D601ED91FC910190CD
:1002E000F081E02DC6010995892B11F47E0102C031
:1002F0002196ECCFC701DF91CF911F910F91FF9015
:10030000EF90DF90CF900895089580E090E00895F9
:10031000FC01538D448D252F30E0842F90E0821B0B
:10032000930B541710F0CF96089501970895FC0190
:10033000918D828D981761F0828DDF01A80FB11D1C
:100340005D968C91928D9F5F9F73928F90E0089540
:100350008FEF9FEF0895FC01918D828D981731F0FA
:10036000828DE80FF11D858D90E008958FEF9FEF4E
:100370000895FC01918D228D892F90E0805C9F4F24
:10038000821B91098F739927089581EB91E00E9458
:10039000B90121E0892B09F420E0822F0895FC01A6
:1003A000848DDF01A80FB11DA35ABF4F2C91848DFE
:1003B00090E001968F739927848FA689B7892C9333
:1003C000A089B1898C9180648C93938D848D9813CE
:1003D00006C00288F389E02D80818F7D8083089597
:1003E000EF92FF920F931F93CF93DF93EC0181E085
:1003F000888F9B8D8C8D981305C0E889F989808141
:1004000085FD24C0F62E0B8D10E00F5F1F4F0F737C
:100410001127E02E8C8DE8120CC00FB607FCFACF26
:10042000E889F989808185FFF5CFCE010E94CF014F
:10043000F1CF8B8DFE01E80FF11DE35AFF4FF082E3
:100440000B8FEA89FB898081806207C0EE89FF8972
:100450006083E889F98980818064808381E090E00D
:10046000DF91CF911F910F91FF90EF900895CF935F
:10047000DF93EC01888D8823C9F0EA89FB898081AC
:1004800085FD05C0A889B9898C9186FD0FC00FB67E
:1004900007FCF5CF808185FFF2CFA889B9898C91BF
:1004A00085FFEDCFCE010E94CF01E7CFDF91CF9145
:1004B000089580E090E0892B29F00E94C501811108
:1004C0000C94000008953FB7F89480918F019091AB
:1004D0009001A0919101B091920126B5A89B05C011
:1004E0002F3F19F00196A11DB11D3FBFBA2FA92FB3
:1004F000982F8827820F911DA11DB11DBC01CD0130
:1005000042E0660F771F881F991F4A95D1F708951B
:10051000CF93C82F682F81EB91E00E94F0018C2FC0
:10052000CC0F990BCF9108950E948012CF92DF9249
:10053000EF92FF92CF9387E591E00E9433051092EE
:1005400015010E9455058823A1F1809164028B302A
:1005500041F178F18551823060F560915E0270E082
:1005600080E090E00E944A1120E030E040E853E44F
:100570000E94D8116B017C0180915F02682F70E0AE
:1005800080E090E00E944C119B01AC01C701B601D4
:100590000E94DE102DEC3CEC4CEC5DE30E94D81187
:1005A0000CC060915E0270E080E090E00E944A1111
:1005B00004C060E070E080EC9FE7609316017093E8
:1005C000170180931801909319019B01AC010E94BF
:1005D0004512882339F081E0809315018AE691E085
:1005E0000E94330510922A010E9455058823D1F1FB
:1005F000809164028B3029F0A8F18551823048F057
:1006000031C06091600270E080E090E00E944A1189
:100610002DC0C09160026C2F6F7770E080E090E099
:100620000E944C1120E030E040E853E40E94D811D1
:100630006B017C0180916102682F70E080E090E0A6
:100640000E944C119B01AC01C701B6010E94DE1053
:100650002DEC3CEC4CEC5DE30E94D811C7FF06C0CA
:10066000905804C060E070E080EC9FE760932B013D
:1006700070932C0180932D0190932E019B01AC016E
:100680000E944512882361F081E080932A018AE666
:1006900091E0CF91FF90EF90DF90CF900C943305D5
:1006A000CF91FF90EF90DF90CF9008951F920F921F
:1006B0000FB60F9211242F933F934F935F936F9335
:1006C0007F938F939F93AF93BF93EF93FF9381EBB0
:1006D00091E00E94CF01FF91EF91BF91AF919F9167
:1006E0008F917F916F915F914F913F912F910F90DB
:1006F0000FBE0F901F9018951F920F920FB60F927A
:1007000011242F938F939F93EF93FF93E091C10157
:10071000F091C2018081E091C701F091C80182FD92
:1007200012C090818091CA018F5F8F732091CB019D
:10073000821751F0E091CA01F0E0EF54FE4F958F1F
:100740008093CA0101C08081FF91EF919F918F91A9
:100750002F910F900FBE0F901F90189590E0FC0105
:10076000E253FF4F3491FC01E95BFD4F2491FC0102
:10077000ED5CFD4FE491EE2309F43BC0332339F1E6
:10078000333091F038F43130A9F0323001F584B5CE
:100790008F7D12C0373091F03830A1F03430B9F489
:1007A000809180008F7D03C0809180008F7780933F
:1007B00080000DC084B58F7784BD09C08091B000E2
:1007C0008F7703C08091B0008F7D8093B000F0E000
:1007D000EE0FFF1FEC53FF4FA591B4918FB7F89424
:1007E000EC91611103C020952E2301C02E2B2C9378
:1007F0008FBF0895CF93DF9390E0FC01E95BFD4F3D
:100800002491FC01ED5CFD4F8491882361F190E01F
:10081000880F991FFC01EE51FF4FC591D491FC0147
:10082000EC53FF4FA591B491611109C09FB7F894A3
:100830008881209582238883EC912E230BC062301F
:1008400061F49FB7F8943881822F80958323888341
:10085000EC912E2B2C939FBF06C08FB7F894E881A4
:100860002E2B28838FBFDF91CF9108958F929F9277
:10087000AF92BF92CF92DF92EF92FF926B017C0119
:100880000E9463024B015C01C114D104E104F10434
:10089000F1F00E946302DC01CB0188199909AA09D1
:1008A000BB09883E9340A105B10570F321E0C21A4F
:1008B000D108E108F10888EE880E83E0981EA11C9B
:1008C000B11CC114D104E104F10419F7DDCFFF908C
:1008D000EF90DF90CF90BF90AF909F908F90089552
:1008E0001F920F920FB60F9211242F933F938F9365
:1008F0009F93AF93BF938091AD019091AE01A09172
:10090000AF01B091B00130918E0123E0230F2D375C
:1009100020F40196A11DB11D05C026E8230F029603
:10092000A11DB11D20938E018093AD019093AE0166
:10093000A093AF01B093B00180918F01909190018D
:10094000A0919101B09192010196A11DB11D8093DA
:100950008F0190939001A0939101B0939201BF9168
:10096000AF919F918F913F912F910F900FBE0F905C
:100970001F9018958EBD00000DB407FEFDCF8EB5FB
:1009800008951F920F920FB60F9211242F933F9349
:100990004F935F936F937F938F939F93AF93BF9387
:1009A000EF93FF930E949602FF91EF91BF91AF9159
:1009B0009F918F917F916F915F914F913F912F9177
:1009C0000F900FBE0F901F9018958F929F92AF922D
:1009D000BF92CF92DF92EF92FF92CF93DF93A091DD
:1009E0006502882311F03A2F01C030E08091660241
:1009F00090E0880F991F875D9D4FC0906B02D0904B
:100A00006C02E0906D02F0906E0240E050E0BA019E
:100A1000FC01C591D49128812A2323130FC04A01D8
:100A20005B012FEF821A920AA20AB20A4C155D05E9
:100A30006E057F0538F4B501A401EACF342F252FC8
:100A4000CB0104C030E020E080E090E0632F722F03
:100A5000DF91CF91FF90EF90DF90CF90BF90AF905C
:100A60009F908F900895CF93DF93009779F0FC01CA
:100A700001900020E9F73197AF01481B590BBC01E9
:100A800081EB91E00E945901EC0102C0C0E0D0E08E
:100A900042E050E06AE871E081EB91E00E94590188
:100AA0008C0F9D1FDF91CF910895CF92DF92EF922F
:100AB000FF920F931F93CF93DF93CDB7DEB7C05450
:100AC000D1400FB6F894DEBF0FBECDBF2FB7F8945C
:100AD0008091AD019091AE01A091AF01B091B001B4
:100AE0002FBF409167025091680260916902709136
:100AF0006A028C019D01041B150B260B370BB901F3
:100B0000A801403D57406105710518F480916F02BE
:100B1000BCC08093670290936802A0936902B0936F
:100B20006A021092620210926102109260021092A8
:100B30005F0210925E0261E0809163020E94AE0348
:100B40006AEF70E080E090E00E94360461E08091FE
:100B500063020E94FA0360E0809163020E94AE0388
:100B600064E170E080E090E00E943604F89461E077
:100B7000809163020E94AE038BE990E00197F1F748
:100B800062E0809163020E94FA0383E290E00197A1
:100B9000F1F780E00E94E504672B682B692B21F4B4
:100BA00010926F0278943EC081E00E94E504672BAA
:100BB000682B692BA9F38E010F5F1F4F6E012FEB7E
:100BC000C21A2EEFD20A780180E00E94E504F701F4
:100BD000608371838283938381E00E94E504F7013F
:100BE0006483758386839783F8E0EF0EF11CEC1421
:100BF000FD0451F7789420E030E0F8014081518104
:100C000062817381C480D580E680F78041155105EB
:100C10006105710529F0C114D104E104F10421F446
:100C200010926F0280E031C0F90183E0F595E795FD
:100C30008A95E1F7E25AFD4F8081880F4C155D05DA
:100C40006E057F0508F4816080832F5F3F4F085F4A
:100C50001F4F2832310589F62091620230E0409121
:100C60005E0280915F0290E0840F911D40916002CE
:100C7000840F911D40916102840F911D99272817BF
:100C8000390771F681E080936F02C05CDE4F0FB6CA
:100C9000F894DEBF0FBECDBFDF91CF911F910F91B2
:100CA000FF90EF90DF90CF9008959CB59F7D9CBD05
:100CB0009CB5937F9CBD9CB59C7F9CBD9DB59E7F44
:100CC0009DBD682F80914F020C94AE03EF92FF926E
:100CD0000F931F93CF93DF9300D0CDB7DEB7082FCC
:100CE000162F80E090E049837A830E945506802F7A
:100CF0008F710E94BA04082FE12E7A81F72E498164
:100D0000140F1E1539F08FEF0E94BA04F70181937A
:100D10007F01F7CF81E090E00E945506802F0F9071
:100D20000F90DF91CF911F910F91FF90EF90089559
:100D3000CF93C82F80E090E00E9455068C2F8F71D2
:100D40000E94BA048FEF0E94BA04C82F81E090E09D
:100D50000E9455068C2FCF910895FF920F931F93F9
:100D6000CF93DF93182F092FC62FD42F0E945E0C2C
:100D7000089710F080E001C089E01F928F930F93D5
:100D80001F9381E292E09F938F930E94B20CDC0F3D
:100D90000F900F900F900F900F900F9009E112E0BD
:100DA000CD1791F0FF24F394FC0E8C2F0E9498062F
:100DB0001F928F931F930F930E94B20C0F900F906E
:100DC0000F900F90CF2DECCF86E192E09F938F9301
:100DD0000E94B20C0F900F90DF91CF911F910F9155
:100DE000FF9008957F928F929F92AF92BF92CF9281
:100DF000DF92EF92FF920F931F93CF93DF9300D078
:100E000000D01F92CDB7DEB7F82EE92E162F042F93
:100E10000E945E0C089710F080E001C089E01F92EC
:100E20008F93EF92FF928EE092E09F938F930E94B8
:100E3000B20C010F0F900F900F900F900F900F902A
:100E4000CE0101966C018AE0A82E82E0B82E95E0D2
:100E5000892E92E0992E101721F177247394710E48
:100E600045E0B601812F0E946606BF92AF920E94B4
:100E7000B20CFE0136967F010F900F90EC14FD042A
:100E800071F0F70182917F011F928F939F928F9251
:100E90000E94B20C0F900F900F900F90EFCF172D74
:100EA000DACF82E092E09F938F930E94B20C0F9072
:100EB0000F900F900F900F900F900F90DF91CF91A8
:100EC0001F910F91FF90EF90DF90CF90BF90AF9068
:100ED0009F908F907F900895CF9380E090E00E9444
:100EE000550681EE0E94BA04C82F81E090E00E946E
:100EF00055068C2FCF910895CF9380E090E00E940B
:100F0000550682EE0E94BA04C82F81E090E00E944C
:100F100055068C2FCF910895EF92FF920F931F9358
:100F2000CF93DF9300D0CDB7DEB7082F162F80E028
:100F300090E049837A830E945506802F8F718062EA
:100F40000E94BA04082FE12E7A81F72E4981140FEE
:100F50001E1531F0F70181917F010E94BA04F8CF8C
:100F600081E090E00E945506802F0F900F90DF9156
:100F7000CF911F910F91FF90EF9008951F93CF9302
:100F8000DF931F92CDB7DEB7182F80E090E0698322
:100F90000E945506812F8F7180620E94BA04182F1B
:100FA0006981862F0E94BA0481E090E00E94550674
:100FB000812F0F90DF91CF911F91089580E00E94C3
:100FC0009806682F636080E00E94BE0760E787E0B4
:100FD0000E94BE072091560230915702409158025C
:100FE0005091590260915A0270915B0280915C02AB
:100FF00090915D02A0E00E946E1231F045E066E53E
:1010000072E08AE00E948C070E947C070E946C07B5
:1010100061E080914E020E94AE0383E092E001976E
:10102000F1F7089586E00E949806682F666086E0D2
:101030000C94BE070F931F93CF938C0186E00E9400
:10104000980610925002C82FC77D0230110511F486
:10105000C06207C00130110521F481E08093500285
:10106000C8606C2F86E00E94BE0786E00E9498064A
:101070008C1721F01092500280E001C081E0CF91E6
:101080001F910F910895CF92DF92EF92FF920F93ED
:101090001F93CF93DF931F92CDB7DEB76C0180E033
:1010A0000E9498068C7F682F626080E00E94BE07D5
:1010B000E3E5F2E03197F1F710915202012F16317A
:1010C00008F005E180915402811102C0101B01C09B
:1010D00010E080E090E00E94550680EA0E94BA0489
:1010E0007601015030F0F70181917F010E94BA042E
:1010F000F8CF112329F080E00E94BA041150F9CFF3
:1011000081E090E00E94550661E080914E020E94CD
:10111000AE0387E390E00197F1F760E080914E0223
:101120000E94AE038FB7F894C090AD01D090AE018D
:10113000E090AF01F090B0018FBF41E0BE016F5F62
:101140007F4F88E00E9466068073A1F42FB7F89461
:101150008091AD019091AE01A091AF01B091B0012D
:101160002FBF8C199D09AE09BF09843F9140A1058D
:10117000B10518F360E787E00E94BE07182F86FBD1
:10118000882780F980935302882389F080E090E0DB
:101190000E94550680E60E94BA048FEF0E94BA04AE
:1011A000082F81E090E00E9455060093550280E0F0
:1011B0000E949806682F6D7F80E00E94BE070E9403
:1011C0006C0715FB882780F90F90DF91CF911F9155
:1011D0000F91FF90EF90DF90CF900895CF93DF9322
:1011E000CDB7DEB760970FB6F894DEBF0FBECDBFA8
:1011F000789484B5826084BD84B5816084BD85B5F2
:10120000826085BD85B5816085BD80916E008160FD
:1012100080936E00109281008091810082608093A3
:1012200081008091810081608093810080918000A5
:101230008160809380008091B10084608093B100D0
:101240008091B00081608093B00080917A008460CA
:1012500080937A0080917A00826080937A008091F6
:101260007A00816080937A0080917A008068809310
:101270007A001092C100E091C101F091C20182E0B8
:101280008083E091BD01F091BE011082E091BF0129
:10129000F091C0018FEC80831092C901E091C501EB
:1012A000F091C60186E08083E091C301F091C40112
:1012B000808180618083E091C301F091C4018081CD
:1012C00088608083E091C301F091C40180818068CF
:1012D0008083E091C301F091C40180818F7D808380
:1012E00060E070E088E892E00E94670C1092800055
:1012F00010928100809181008860809381008091AC
:10130000810085608093810088E09DE3909389004F
:10131000809388001092850010928400B19A809189
:101320006F00826080936F0061E080914E020E94A6
:10133000FA0361E080914F020E94FA031FB7F8940C
:1013400080919301811127C0EDE3F2E08491E1E502
:10135000F2E09491E82FF0E0EE0FFF1FEE51FF4F07
:10136000A591B491EC91E92321F461E08AE00E9417
:10137000AE0361E08AE00E94FA038CB580618CBD07
:101380008CB580648CBD61E08DE00E94FA0361E061
:101390008BE00E94FA03809193018F5F8093930109
:1013A0001FBF60E080914E020E94AE0381E090E09A
:1013B0000E94550665E070E080E090E00E943604EF
:1013C0006FE484E00E94BE070E94120882E090E071
:1013D0000E941A08882319F081E08093510280E06E
:1013E00090E00E941A0880E00E949806682F6C60C6
:1013F00080E00E94BE0760E08CE10E94BE0760E7CB
:1014000087E00E94BE076CE485E00E94BE070E9450
:101410007C070E946C0760E081E00E94BE078DE1BE
:101420000E949806682F64608DE10E94BE078DE1DE
:101430000E949806811116C080E090E00E94550637
:1014400080E50E94BA0483E70E94BA0481E090E03C
:101450000E9455068DE10E949806682F64608DE118
:101460000E94BE078CE10E949806682F6F638CE192
:101470000E94BE0781E0809354026FEF84E00E94D7
:10148000BE0782E090E00E941A086CE485E00E94AA
:10149000BE070E94120882EE898780EF8A878B87B9
:1014A0008C878D871E861F86188A45E0BE01675F80
:1014B0007F4F8AE00E948C0745E0BE01675F7F4F47
:1014C00080E10E948C0760915202613208F060E274
:1014D00081E10E94BE0781EE898380EF8A838B833E
:1014E0008C838D831E821F821886E9EFF0E0849141
:1014F00045E0BE016F5F7F4F0E948C07E3EFF0E095
:101500008491609152020E94BE0782E00E94980678
:10151000EDEEF0E0E49161E070E001C0660FEA9565
:10152000EAF7682B82E00E94BE070E94DE0780E097
:1015300090E00E9455068FEF0E94BA04182F81E0B8
:1015400090E00E945506812F90E0212F21701F927C
:101550002F9395958795877099279F938F9314FB69
:10156000882780F91F928F9315FB882780F91F9297
:101570008F9316FB882780F91F928F931F921F93DA
:101580008EEF90E09F938F930E94B20C42E06AE04E
:1015900085EF91E00E94F20644E06CE088EE91E075
:1015A0000E94AD0641E060E180EE91E00E94F2060B
:1015B00046E061E185ED91E00E94AD0641E061E029
:1015C0008FEC91E00E94AD0641E062E085EC91E095
:1015D0000E94AD0641E065E08FEB91E00E94AD0610
:1015E00041E066E086EB91E00E94AD0641E060E0FC
:1015F0008FEA91E00E94AD0642E06CE181EA91E061
:101600000E94AD0686E00E94980688720FB6F89494
:10161000DEBF0FBECDBF803241F021E090E08830C8
:1016200009F020E0E22FF92F02C0E2E0F0E0EE0F37
:10163000FF1FE556FE4F859194919F938F9389E804
:1016400091E09F938F930E94B20CE0915102F0E0E1
:10165000EE0FFF1FEB57FE4F859194919F938F9351
:1016600086E791E09F938F930E94B20C80E00E94E6
:1016700098060FB6F894DEBF0FBECDBF83FF05C03E
:1016800082FD06C0E1E0F0E005C0E0E0F0E002C06D
:10169000E2E0F0E0EE0FFF1FE059FE4F85919491DC
:1016A0009F938F938DE591E09F938F930E94B20C4F
:1016B00086E00E94980686700F900F900F900F9012
:1016C000863051F0843059F021E090E0823009F00A
:1016D00020E0E22FF92F05C0E3E0F0E002C0E2E0F5
:1016E000F0E0EE0FFF1FEB5AFE4F859194919F9310
:1016F0008F9384E491E09F938F930E94B20C62E0F9
:10170000809163020E94FA0380E398EFAFEFBFEF8E
:101710008093670290936802A0936902B0936A0273
:101720000F900F900F900F900E94960280E090E033
:101730000E9455068FEF0E94BA04182F81E090E0B6
:101740000E94550616FF55C060E487E00E94BE0760
:1017500015FF04C060E287E00E94BE0710915202AC
:10176000012F1A3108F009E180915402811102C061
:10177000101B01C010E080E090E00E94550681E659
:101780000E94BA0484E9E82E81E0F82E015038F076
:101790008FEF0E94BA04F70181937F01F7CF1123E5
:1017A00029F08FEF0E94BA041150F9CF81E090E048
:1017B0000E94550687E10E949806182F11708091AB
:1017C0009501813099F49091970180919601813033
:1017D00069F4913029F0923039F48AE291E002C044
:1017E00085E191E00E9443080E94DE07112309F47D
:1017F000B5CF0E94590298CFE1EBF1E0138212823B
:1018000088EE93E0A0E0B0E084839583A683B7835D
:1018100089E491E09183808385EC90E095878487CB
:1018200084EC90E09787868780EC90E0918B808BAA
:1018300081EC90E0938B828B82EC90E0958B848B93
:1018400086EC90E0978B868B118E128E138E148E01
:10185000AEE5B2E082E015968C93159786E1169678
:101860008C931697E9E4F2E0E4911796EC931797BE
:10187000E5E3F2E0E4911896EC93189740E85EE314
:1018800060E070E01D964D935D936D937C9350974F
:10189000EEE4F2E089E080838AE0818381E0828364
:1018A000138280E284831582168210861186128646
:1018B000138614861586168617860895FC010590F2
:1018C0000020E9F7809590958E0F9F1F08950F9344
:1018D0001F93CF93DF93009731F46115710519F4CD
:1018E00080E090E03AC08B01EC016EE070E081E0B6
:1018F00090E00E94AA0EFC01892B91F380E883837B
:101900000115110571F01387028781E883838091A7
:10191000700290917102892B21F4F0937102E0938F
:1019200070022097C9F0D187C0878381826083834A
:101930008091720290917302892B71F4F09373027B
:10194000E09372028091740290917502892B21F4C8
:10195000F0937502E0937402CF01DF91CF911F9154
:101960000F910895A0E0B0E0E8EBFCE00C94B41017
:10197000AE01495F5F4FDA016D917D91AD0100E7E6
:1019800012E0F80182819381DC0113962C91139768
:10199000286013962C930E94D80CD8011296ED91D2
:1019A000FC9113972381277F2383E4E00C94D010CC
:1019B000ACE0B0E0EEEDFCE00C94A6107C016B0115
:1019C0008A01FC0117821682838181FFBDC1CE018D
:1019D00001964C01F7019381F60193FD859193FFE8
:1019E00081916F01882309F4ABC1853239F493FDED
:1019F000859193FF81916F01853229F4B70190E0C1
:101A00000E941010E7CF512C312C20E02032A0F49E
:101A10008B3269F030F4803259F0833269F42061FE
:101A20002CC08D3239F0803339F4216026C0226019
:101A3000246023C0286021C027FD27C030ED380F67
:101A40003A3078F426FF06C0FAE05F9E300D11248C
:101A5000532E13C08AE0389E300D1124332E20629D
:101A60000CC08E3221F426FD6BC1206406C08C367A
:101A700011F4206802C0883641F4F60193FD859187
:101A800093FF81916F018111C1CF982F9F7D955454
:101A9000933028F40C5F1F4FFFE3F9830DC08336AA
:101AA00031F0833771F0833509F05BC022C0F80153
:101AB000808189830E5F1F4F44244394512C54012D
:101AC00015C03801F2E06F0E711CF801A080B180E2
:101AD00026FF03C0652D70E002C06FEF7FEFC501E8
:101AE0002C870E9405102C0183012C852F77222E34
:101AF00017C03801F2E06F0E711CF801A080B180B0
:101B000026FF03C0652D70E002C06FEF7FEFC501B7
:101B10002C870E94F30F2C012C852068222E830134
:101B200023FC1BC0832D90E048165906B0F4B70182
:101B300080E290E00E9410103A94F4CFF50127FC67
:101B4000859127FE81915F01B70190E00E941010FE
:101B500031103A94F1E04F1A51084114510471F7D1
:101B6000E5C0843611F0893639F5F80127FF07C042
:101B700060817181828193810C5F1F4F08C06081F9
:101B80007181072E000C880B990B0E5F1F4F2F766B
:101B9000722E97FF09C090958095709561957F4F43
:101BA0008F4F9F4F2068722E2AE030E0A4010E94E0
:101BB0004810A82EA81844C0853729F42F7EB22ECD
:101BC0002AE030E025C0F22FF97FBF2E8F36C1F01A
:101BD00018F4883579F0B4C0803719F0883721F0CF
:101BE000AFC02F2F2061B22EB4FE0DC08B2D8460AC
:101BF000B82E09C024FF0AC09F2F9660B92E06C0D8
:101C000028E030E005C020E130E002C020E132E011
:101C1000F801B7FE07C060817181828193810C5FFA
:101C20001F4F06C06081718180E090E00E5F1F4F02
:101C3000A4010E944810A82EA818FB2DFF777F2E24
:101C400076FE0BC0372D3E7FA51450F474FE0AC0FB
:101C500072FC08C0372D3E7E05C0BA2C372D03C05C
:101C6000BA2C01C0B52C34FF0DC0FE01EA0DF11DE8
:101C70008081803311F4397E09C032FF06C0B394ED
:101C8000B39404C0832F867809F0B39433FD13C056
:101C900030FF06C05A2CB31418F4530C5B18B32C45
:101CA000B31468F4B70180E290E03C870E94101002
:101CB000B3943C85F5CFB31410F43B1801C0312C1C
:101CC00034FF12C0B70180E390E03C870E941010FF
:101CD0003C8532FF17C031FD03C088E790E002C0A9
:101CE00088E590E0B7010CC0832F867859F031FF6A
:101CF00002C08BE201C080E237FD8DE2B70190E0C7
:101D00000E941010A51438F4B70180E390E00E94FF
:101D100010105A94F7CFAA94F401EA0DF11D8081B6
:101D2000B70190E00E941010A110F5CF332009F404
:101D300051CEB70180E290E00E9410103A94F6CFA5
:101D4000F7018681978102C08FEF9FEF2C96E2E129
:101D50000C94C2100F931F93CF93DF93869F800143
:101D6000879F100D969F100D1124C8010E94C60E6A
:101D7000EC01009729F0A80160E070E00E94FE0FDE
:101D8000CE01DF91CF911F910F910895CF93DF93F3
:101D90008230910510F482E090E0E0917802F091B9
:101DA000790220E030E0C0E0D0E0309711F14081CE
:101DB000518148175907C0F04817590761F48281CB
:101DC0009381209719F09B838A832BC0909379028B
:101DD0008093780226C02115310519F04217530768
:101DE00018F49A01BE01DF01EF010280F381E02DBA
:101DF000DCCF2115310509F1281B390B24303105C1
:101E000090F412968D919C9113976115710521F0B4
:101E1000FB019383828304C09093790280937802BC
:101E2000FD01329644C0FD01E20FF31F81939193AF
:101E3000225031092D933C933AC020917602309183
:101E40007702232B41F420914101309142013093DC
:101E500077022093760220913F01309140012115B5
:101E6000310541F42DB73EB74091430150914401F3
:101E7000241B350BE0917602F0917702E217F3070D
:101E8000A0F42E1B3F0B2817390778F0AC014E5FEA
:101E90005F4F2417350748F04E0F5F1F50937702AE
:101EA000409376028193919302C0E0E0F0E0CF018D
:101EB000DF91CF9108950F931F93CF93DF930097F6
:101EC00009F48CC0FC0132971382128200917802CF
:101ED000109179020115110581F420813181820F61
:101EE000931F20917602309177022817390779F5F0
:101EF000F0937702E093760271C0D80140E050E0A1
:101F0000AE17BF0750F412962D913C911397AD0177
:101F10002115310509F1D901F3CF9D01DA01338390
:101F2000228360817181860F971F8217930769F45E
:101F3000EC0128813981260F371F2E5F3F4F3183F7
:101F400020838A819B8193838283452B29F4F0939C
:101F50007902E093780242C01396FC93EE931297B5
:101F6000ED01499159919E01240F351FE217F307A6
:101F700071F480819181840F951F029611969C9334
:101F80008E938281938113969C938E931297E0E0B7
:101F9000F0E0D80112968D919C911397009719F05B
:101FA000F8018C01F6CF8D919C9198012E5F3F4FE7
:101FB000820F931F209176023091770228173907FC
:101FC00069F4309729F4109279021092780202C0D5
:101FD000138212821093770200937602DF91CF91E1
:101FE0001F910F910895FC01059061507040011000
:101FF000D8F7809590958E0F9F1F0895DC0101C042
:102000006D9341505040E0F70895FC0161507040DD
:1020100001900110D8F7809590958E0F9F1F08951D
:102020000F931F93CF93DF93FB01238121FD03C007
:102030008FEF9FEF28C022FF16C046815781248171
:1020400035814217530744F4A081B1819D012F5F70
:102050003F4F318320838C93268137812F5F3F4F01
:102060003783268310C0EB01092F182F0084F185D8
:10207000E02D0995892BE1F68E819F8101969F8342
:102080008E83812F902FDF91CF911F910F91089513
:10209000FA01AA27283051F1203181F1E8946F9399
:1020A0006E7F6E5F7F4F8F4F9F4FAF4FB1E03ED03F
:1020B000B4E03CD0670F781F891F9A1FA11D680FDD
:1020C000791F8A1F911DA11D6A0F711D811D911D10
:1020D000A11D20D009F468943F912AE0269F112485
:1020E0003019305D3193DEF6CF010895462F4770E9
:1020F000405D4193B3E00FD0C9F7F6CF462F4F7044
:10210000405D4A3318F0495D31FD4052419302D0A1
:10211000A9F7EACFB4E0A695979587957795679547
:10212000BA95C9F700976105710508959B01AC0147
:102130000A2E06945795479537952795BA95C9F76E
:10214000620F731F841F951FA01D08952F923F9249
:102150004F925F926F927F928F929F92AF92BF92B7
:10216000CF92DF92EF92FF920F931F93CF93DF9363
:10217000CDB7DEB7CA1BDB0B0FB6F894DEBF0FBEC0
:10218000CDBF09942A88398848885F846E847D840D
:102190008C849B84AA84B984C884DF80EE80FD800F
:1021A0000C811B81AA81B981CE0FD11D0FB6F89485
:1021B000DEBF0FBECDBFED0108955058BB27AA2743
:1021C0000E94F5100C949E110E94901138F00E940C
:1021D000971120F039F49F3F19F426F40C948D11D7
:1021E0000EF4E095E7FB0C948711E92F0E94AF11E4
:1021F00058F3BA17620773078407950720F079F43C
:10220000A6F50C94D1110EF4E0950B2EBA2FA02D4B
:102210000B01B90190010C01CA01A0011124FF2793
:10222000591B99F0593F50F4503E68F11A16F0408E
:10223000A22F232F342F4427585FF3CF469537958D
:102240002795A795F0405395C9F77EF41F16BA0B52
:10225000620B730B840BBAF09150A1F0FF0FBB1F00
:10226000661F771F881FC2F70EC0BA0F621F731F49
:10227000841F48F4879577956795B795F7959E3FA6
:1022800008F0B0CF9395880F08F09927EE0F979537
:1022900087950895E89409C097FB3EF49095809542
:1022A000709561957F4F8F4F9F4F9923A9F0F92F1C
:1022B00096E9BB279395F695879577956795B7959A
:1022C000F111F8CFFAF4BB0F11F460FF1BC06F5F80
:1022D0007F4F8F4F9F4F16C0882311F096E911C092
:1022E000772321F09EE8872F762F05C0662371F0B3
:1022F00096E8862F70E060E02AF09A95660F771FC7
:10230000881FDAF7880F9695879597F9089597F9BA
:102310009F6780E870E060E008959FEF80EC08958B
:1023200000240A94161617061806090608950024B4
:102330000A9412161306140605060895092E03942E
:10234000000C11F4882352F0BB0F40F4BF2B11F4A2
:1023500060FF04C06F5F7F4F8F4F9F4F089557FD01
:102360009058440F551F59F05F3F71F04795880F03
:1023700097FB991F61F09F3F79F08795089512169A
:1023800013061406551FF2CF4695F1DF08C0161646
:1023900017061806991FF1CF8695710561050894F7
:1023A0000895E894BB2766277727CB0197F908950E
:1023B0000E94EB110C949E110E94901138F00E9423
:1023C000971120F0952311F00C9487110C948D1126
:1023D00011240C94D2110E94AF1170F3959FC1F398
:1023E000950F50E0551F629FF001729FBB27F00DC3
:1023F000B11D639FAA27F00DB11DAA1F649F662718
:10240000B00DA11D661F829F2227B00DA11D621F66
:10241000739FB00DA11D621F839FA00D611D221F20
:10242000749F3327A00D611D231F849F600D211D04
:10243000822F762F6A2F11249F5750409AF0F1F087
:1024400088234AF0EE0FFF1FBB1F661F771F881FF0
:1024500091505040A9F79E3F510580F00C94871190
:102460000C94D2115F3FE4F3983ED4F386957795B0
:102470006795B795F795E7959F5FC1F7FE2B880F96
:10248000911D9695879597F908950E944A12880B99
:10249000990B0895990F0008550FAA0BE0E8FEEF7D
:1024A00016161706E807F907C0F012161306E40718
:1024B000F50798F0621B730B840B950B39F40A2611
:1024C00061F0232B242B252B21F408950A2609F4EF
:1024D000A140A6958FEF811D811D08950024A7FDC1
:1024E00000942A17300540055005600570058005E9
:1024F00090050895EE0FFF1F0590F491E02D0994CB
:0E25000081E090E0F8940C948512F894FFCFDF
:10250E00020000803F53656E736F72204448543250
:10251E003200000000000000000068756D696469FB
:10252E00747900000000000000000000000000743C
:10253E00656D706572617475726500000000000053
:10254E00007A02800000000000F001590188013776
:10255E0002B9019701AB01676F6F646279652066FE
:10256E00726F6D2074696D6572004661696C656489
:10257E0020746F20726561642066726F6D2044480E
:0E258E00542073656E736F7221000D0A0000F9
:00000001FF
