:100000000C942F010C9457010C9457010C94570138
:100010000C9457010C9457010C9457010C94570100
:100020000C9457010C9457010C9457010C945701F0
:100030000C9457010C9457010C9457010C945701E0
:100040000C94B0030C9457010C94BC020C949602CF
:100050000C9457010C9457010C9457010C945701C0
:100060000C9457010C94570150415F484947480090
:100070004C415F4D45440050415F4C4F570050414B
:100080005F4D494E0031362062697473003820623A
:100090006974730044697361626C6564006E5246F2
:1000A00032344C30312B006E524632344C303100F9
:1000B0003235304B42505300324D42505300314D97
:1000C0004250530000000000250028002B000000D3
:1000D0000008000201000003040700000000000007
:1000E000000000000000240027002A000001020395
:1000F00004051112131415160A0B0C0D0E0F535490
:10010000415455530909203D20307825303278205C
:1001100052585F44523D25782054585F44533D2542
:1001200078204D41585F52543D25782052585F50F9
:100130005F4E4F3D25782054585F46554C4C3D2529
:10014000780D0A00504120506F77657209203D20DC
:1001500025530D0A007E007700700068004352436B
:10016000204C656E67746809203D2025530D0A00F8
:1001700094008D0085004D6F64656C0909203D2059
:1001800025530D0A00A7009D00446174612052614F
:10019000746509203D2025530D0A00BE00B800B04B
:1001A0000044594E50442F46454154555245004352
:1001B0004F4E4649470052465F53455455500052F2
:1001C000465F434800454E5F525841444452004503
:1001D0004E5F41410052585F50575F50302D3600FE
:1001E00054585F414444520052585F414444525F66
:1001F00050322D350052585F414444525F50302DEB
:1002000031000D0A00253032780020307800255367
:10021000092563203D000D0A002030782530327812
:10022000002553092563203D00000000002300261F
:10023000002900040404040404040402020202026B
:10024000020303030303030102040810204080019A
:10025000020408102001020408102000510E11248D
:100260001FBECFEFD8E0DEBFCDBF11E0A0E0B1E010
:10027000E4E2FBE202C005900D92A038B107D9F785
:1002800022E0A0E8B1E001C01D92AC36B207E1F770
:1002900011E0CFE2D1E004C02197FE010E94851554
:1002A000CE32D107C9F70E948C0A0C9490150C9499
:1002B0000000CF92DF92EF92FF920F931F93CF93A4
:1002C000DF936C017A018B01C0E0D0E0CE15DF0531
:1002D00089F0D8016D918D01D601ED91FC910190CD
:1002E000F081E02DC6010995892B11F47E0102C031
:1002F0002196ECCFC701DF91CF911F910F91FF9015
:10030000EF90DF90CF900895089580E090E00895F9
:10031000FC01538D448D252F30E0842F90E0821B0B
:10032000930B541710F0CF96089501970895FC0190
:10033000918D828D981761F0828DDF01A80FB11D1C
:100340005D968C91928D9F5F9F73928F90E0089540
:100350008FEF9FEF0895FC01918D828D981731F0FA
:10036000828DE80FF11D858D90E008958FEF9FEF4E
:100370000895FC01918D228D892F90E0805C9F4F24
:10038000821B91098F739927089583EA91E00E9457
:10039000B90121E0892B09F420E0822F0895FC01A6
:1003A000848DDF01A80FB11DA35ABF4F2C91848DFE
:1003B00090E001968F739927848FA689B7892C9333
:1003C000A089B1898C9180648C93938D848D9813CE
:1003D00006C00288F389E02D80818F7D8083089597
:1003E000EF92FF920F931F93CF93DF93EC0181E085
:1003F000888F9B8D8C8D981305C0E889F989808141
:1004000085FD24C0F62E0B8D10E00F5F1F4F0F737C
:100410001127E02E8C8DE8120CC00FB607FCFACF26
:10042000E889F989808185FFF5CFCE010E94CF014F
:10043000F1CF8B8DFE01E80FF11DE35AFF4FF082E3
:100440000B8FEA89FB898081806207C0EE89FF8972
:100450006083E889F98980818064808381E090E00D
:10046000DF91CF911F910F91FF90EF900895CF935F
:10047000DF93EC01888D8823C9F0EA89FB898081AC
:1004800085FD05C0A889B9898C9186FD0FC00FB67E
:1004900007FCF5CF808185FFF2CFA889B9898C91BF
:1004A00085FFEDCFCE010E94CF01E7CFDF91CF9145
:1004B000089580E090E0892B29F00E94C501811108
:1004C0000C94000008953FB7F894809181019091B9
:1004D0008201A0918301B091840126B5A89B05C03B
:1004E0002F3F19F00196A11DB11D3FBFBA2FA92FB3
:1004F000982F8827820F911DA11DB11DBC01CD0130
:1005000042E0660F771F881F991F4A95D1F708951B
:10051000CF93C82F682F83EA91E00E94F0018C2FBF
:10052000CC0F990BCF9108950E948B151F920F92BB
:100530000FB60F9211242F933F934F935F936F93B6
:100540007F938F939F93AF93BF93EF93FF9383EA30
:1005500091E00E94CF01FF91EF91BF91AF919F91E8
:100560008F917F916F915F914F913F912F910F905C
:100570000FBE0F901F9018951F920F920FB60F92FB
:1005800011242F938F939F93EF93FF93E091B301E7
:10059000F091B4018081E091B901F091BA0182FD3E
:1005A00012C090818091BC018F5F8F732091BD013B
:1005B000821751F0E091BC01F0E0ED55FE4F958FB0
:1005C0008093BC0101C08081FF91EF919F918F9139
:1005D0002F910F900FBE0F901F90189590E0FC0187
:1005E000E253FF4F3491FC01E95BFD4F2491FC0184
:1005F000ED5CFD4FE491EE2309F43BC0332339F168
:10060000333091F038F43130A9F0323001F584B54F
:100610008F7D12C0373091F03830A1F03430B9F40A
:10062000809180008F7D03C0809180008F778093C0
:1006300080000DC084B58F7784BD09C08091B00063
:100640008F7703C08091B0008F7D8093B000F0E081
:10065000EE0FFF1FEC53FF4FA591B4918FB7F894A5
:10066000EC91611103C020952E2301C02E2B2C93F9
:100670008FBF0895CF93DF9390E0FC01E95BFD4FBE
:100680002491FC01ED5CFD4F8491882361F190E0A1
:10069000880F991FFC01EE51FF4FC591D491FC01C9
:1006A000EC53FF4FA591B491611109C09FB7F89425
:1006B0008881209582238883EC912E230BC06230A1
:1006C00061F49FB7F8943881822F809583238883C3
:1006D000EC912E2B2C939FBF06C08FB7F894E88126
:1006E0002E2B28838FBFDF91CF9108958F929F92F9
:1006F000AF92BF92CF92DF92EF92FF926B017C019B
:100700000E9463024B015C01C114D104E104F104B5
:10071000F1F00E946302DC01CB0188199909AA0952
:10072000BB09883E9340A105B10570F321E0C21AD0
:10073000D108E108F10888EE880E83E0981EA11C1C
:10074000B11CC114D104E104F10419F7DDCFFF900D
:10075000EF90DF90CF90BF90AF909F908F900895D3
:100760001F920F920FB60F9211242F933F938F93E6
:100770009F93AF93BF9380919F019091A001A0910F
:10078000A101B091A2013091800123E0230F2D3708
:1007900020F40196A11DB11D05C026E8230F029685
:1007A000A11DB11D2093800180939F019093A00112
:1007B000A093A101B093A201809181019091820147
:1007C000A0918301B09184010196A11DB11D809378
:1007D000810190938201A0938301B0938401BF9122
:1007E000AF919F918F913F912F910F900FBE0F90DE
:1007F0001F9018958EBD00000DB407FEFDCF8EB57D
:1008000008958F929F92AF92BF92CF92DF92EF9214
:10081000FF92CF93DF93A0915702882311F03A2FD4
:1008200001C030E08091580290E0880F991F875DE9
:100830009D4FC0905D02D0905E02E0905F02F0900C
:10084000600240E050E0BA01FC01C591D4912881DA
:100850002A2323130FC04A015B012FEF821A920A49
:10086000A20AB20A4C155D056E057F0538F4B50184
:10087000A401EACF342F252FCB0104C030E020E0C3
:1008800080E090E0632F722FDF91CF91FF90EF9087
:10089000DF90CF90BF90AF909F908F90089500977A
:1008A00069F0FC0101900020E9F73197AF01481B86
:1008B000590BBC0183EA91E00C94590180E090E06F
:1008C00008958F929F92AF92BF920F931F93CF93F1
:1008D000DF93CDB7DEB7A1970FB6F894DEBF0FBE9A
:1008E000CDBF19A2423008F44AE08E010F5D1F4FC0
:1008F000842E912CA12CB12CA50194010E94571596
:10090000E62FB901CA0101501109EA3014F4E05D83
:1009100001C0E95CD801EC93232B242B252B61F734
:10092000C8010E944F04A1960FB6F894DEBF0FBE17
:10093000CDBFDF91CF911F910F91BF90AF909F904E
:100940008F9008958F929F92AF92BF92CF92DF9235
:10095000EF92FF92CF93DF936B017C019B01AC017F
:100960000E943D15882319F083E791E027C04601D6
:100970005701E894B7F82FEF3FEF4FE75FE7C50166
:10098000B4010E943D1581110DC02FEF3FEF4FE7DD
:100990005FE7C501B4010E949F1318161CF487E796
:1009A00091E00CC02FEF3FEF4FE75FE4C701B601C6
:1009B0000E948514181674F48BE791E0DF91CF91B3
:1009C000FF90EF90DF90CF90BF90AF909F908F906F
:1009D0000C944F042FEF3FEF4FE75FECC701B601D8
:1009E0000E949F1387FDE8CF20E030E0A901C701F6
:1009F000B6010E949F1387FF11C0E091A301F091FF
:100A0000A4010190F081E02D6DE283EA91E0099567
:100A1000EC01F7FAF094F7F8F09402C0C0E0D0E0EF
:100A20002AE037ED43EA5BE3C701B6010E943313C6
:100A30004B015C010E94A4136B017C010E94D31343
:100A40009B01AC01C501B4010E9432134B015C0152
:100A50004AE0C701B6010E946104C80FD91FE091A6
:100A6000A301F091A4010190F081E02D6EE283EAF0
:100A700091E00995C80FD91F20E030E040E251E431
:100A8000C501B4010E948A144B015C010E94A413A9
:100A90006B01E12CF12C4AE0C701B6010E94610410
:100AA000C80FD91FC701B6010E94D3139B01AC0127
:100AB000C501B4010E94321320E030E040E251E46D
:100AC0000E948A140E94A41380E090E04AE00E94F1
:100AD00061048C0F9D1FDF91CF91FF90EF90DF900D
:100AE000CF90BF90AF909F908F9008954F925F925C
:100AF0006F927F928F929F92AF92BF92CF92DF922E
:100B0000EF92FF920F93CF93DF93CDB7DEB7289785
:100B10000FB6F894DEBF0FBECDBF6B017C0149015B
:100B20005A0101110EC026E636E646EE5FE30E944A
:100B30008A1420E030E040E052E40E9433136B015D
:100B40007C0120E030E044E752E4C701B6010E9496
:100B500033132B013C0120E030E048E852E4C701A8
:100B6000B6010E9432132AE939E949E95FE30E949C
:100B70008A149B01AC01C301B2010E9433132B0103
:100B80003C0122E133E840EC5DE3C501B4010E9481
:100B90008A149B01AC01C301B2010E94331320E00F
:100BA00030E040E05FE30E948A142B013C0120E02A
:100BB00030E04EE952E40E94851418160CF075C11D
:100BC000A7019601C701B6010E948A142B013C01BE
:100BD000A5019401C501B4010E948A146D837E832E
:100BE0008F83988721E133E243E050E4C701B601E7
:100BF0000E948A1429E134E849E252E40E94321347
:100C000069837A838B839C8326E13BE442E251E44F
:100C1000C501B4010E948A149B01AC0169817A81EB
:100C20008B819C810E94331369837A838B839C839D
:100C300028E436E246E65EEBC701B6010E948A145C
:100C4000A50194010E948A149B01AC0169817A81FB
:100C50008B819C810E94331369837A838B839C836D
:100C600020EE3FE040EE5BEBC301B2010E948A142C
:100C70009B01AC0169817A818B819C810E94331335
:100C800069837A838B839C8328EF37E840E65DEBAA
:100C90006D817E818F8198850E948A149B01AC01B1
:100CA00069817A818B819C810E94331369837A8365
:100CB0008B839C832CEA3DE041EA5AE3C301B201F5
:100CC0000E948A14A50194010E948A149B01AC0120
:100CD00069817A818B819C810E94331369837A8335
:100CE0008B839C8328EC3FE84FE55AE3C701B601AC
:100CF0000E948A142D813E814F8158850E948A145A
:100D00009B01AC0169817A818B819C810E943313A4
:100D100069837A838B839C8321EF3BE845E056EB24
:100D2000C301B2010E948A142D813E814F815885F2
:100D30000E948A149B01AC0169817A818B819C811C
:100D40000E9433132B013C0120E030E040E551E4E8
:100D5000C501B4010E949F1387FF5CC020E030E012
:100D600040EA52E4C701B6010E94851487FD52C0D3
:100D700020E030E040EE52E4C701B6010E949F132C
:100D800018160CF4A6C0A501940160E070E080E59F
:100D900091E40E94321320E030E040E85EE30E94DC
:100DA0008A144B015C0120E030E04EEB52E4C701B5
:100DB000B6010E9432136B017C0120E030E0A901F2
:100DC0000E94851418164CF4A701960160E070E0AB
:100DD00088E891E40E94321308C020E030E048E83F
:100DE00051E4C701B6010E9433132EE33DEE40E704
:100DF0005DE30E948A140E94FD149B01AC01C501B1
:100E0000B4010E948A149B01AC01B201C3010E948B
:100E1000321349C020E030E04AEA52E4C501B4018F
:100E20000E94851418160CF040C020E030E040EA23
:100E300052E4C701B6010E94851487FD36C020E048
:100E400030E04EEA52E4C701B6010E949F13181623
:100E500064F120E030E04AEA52E4C501B4010E94A6
:100E600032132DEC3CEC4CEC5DE30E948A144B01F8
:100E70005C01A701960160E070E08EEA92E40E94B6
:100E800032132DEC3CEC4CE45EE30E948A149B018F
:100E9000AC01C501B4010E948A149B01AC01B201EE
:100EA000C3010E9433132B013C0101110FC020E04C
:100EB00030E040E052E4B201C3010E94321326E860
:100EC00038E34EE05FE30E948A140FC0B201C30111
:100ED0000CC020E030E04AEA52E4C501B4010E94AF
:100EE000851418160CF4ABCFE0CF6B017C01C70161
:100EF000B60128960FB6F894DEBF0FBECDBFDF91C6
:100F0000CF910F91FF90EF90DF90CF90BF90AF9077
:100F10009F908F907F906F905F904F900895CF92A9
:100F2000DF92EF92FF920F931F93CF93DF93CDB792
:100F3000DEB7C054D1400FB6F894DEBF0FBECDBFB0
:100F40002FB7F89480919F019091A001A091A101E9
:100F5000B091A2012FBF4091590250915A02609165
:100F60005B0270915C028C019D01041B150B260B2A
:100F7000370BB901A801403D57406105710518F4D0
:100F800080916102BCC08093590290935A02A09351
:100F90005B02B0935C0210925402109253021092C2
:100FA0005202109251021092500261E0809155025B
:100FB0000E94EE026AEF70E080E090E00E9476030B
:100FC00061E0809155020E943A0360E080915502F1
:100FD0000E94EE0264E170E080E090E00E947603FF
:100FE000F89461E0809155020E94EE028BE990E056
:100FF0000197F1F762E0809155020E943A0383E283
:1010000090E00197F1F780E00E940104672B682BC4
:10101000692B21F41092610278943EC081E00E9415
:101020000104672B682B692BA9F38E010F5F1F4FFB
:101030006E012FEBC21A2EEFD20A780180E00E94D7
:101040000104F701608371838283938381E00E94AE
:101050000104F7016483758386839783F8E0EF0EBC
:10106000F11CEC14FD0451F7789420E030E0F80115
:101070004081518162817381C480D580E680F78090
:10108000411551056105710529F0C114D104E10430
:10109000F10421F41092610280E031C0F90183E093
:1010A000F595E7958A95E1F7E05BFD4F8081880F24
:1010B0004C155D056E057F0508F4816080832F5F08
:1010C0003F4F085F1F4F2832310589F620915402A7
:1010D00030E0409150028091510290E0840F911DC8
:1010E00040915202840F911D40915302840F911D33
:1010F00099272817390771F681E080936102C05C57
:10110000DE4F0FB6F894DEBF0FBECDBFDF91CF919B
:101110001F910F91FF90EF90DF90CF900895CF92A5
:10112000DF92EF92FF92CF93DF93C82F0E948F0739
:10113000882309F448C0909156029B3031F008F49E
:1011400042C09551923048F03EC06091520270E02A
:1011500080E090E00E94D31327C0D09152026D2FFF
:101160006F7770E080E090E00E94D51320E030E0DF
:1011700040E853E40E948A146B017C0140915302C1
:10118000642F70E080E090E00E94D5139B01AC01D9
:10119000C701B6010E9433132DEC3CEC4CEC5DE32F
:1011A0000E948A14D7FD9058CC2389F026E636E6B3
:1011B00046EE5FE30E948A1420E030E040E052E413
:1011C0000E94331304C060E070E080EC9FE7DF9181
:1011D000CF91FF90EF90DF90CF9008959CB59F7DC9
:1011E0009CBD9CB5937F9CBD9CB59C7F9CBD9DB5D3
:1011F0009E7F9DBD682F809141020C94EE02CF939B
:10120000C82F80E090E00E94EE088C2F8F710E9422
:10121000FA038FEF0E94FA03C82F81E090E00E944A
:10122000EE088C2FCF9108951F93CF93DF931F92D9
:10123000CDB7DEB7182F80E090E069830E94EE08FA
:10124000812F8F7180620E94FA03182F6981862F87
:101250000E94FA0381E090E00E94EE08812F0F9037
:10126000DF91CF911F910895FF920F931F93CF931A
:10127000DF93182F092FC62FD42F0E94B30E089783
:1012800010F080E001C089E01F928F930F931F93AD
:1012900081E292E09F938F930E94070FDC0F0F90E3
:1012A0000F900F900F900F900F9009E112E0CD1763
:1012B00091F0FF24F394FC0E8C2F0E94FF081F92E4
:1012C0008F931F930F930E94070F0F900F900F9013
:1012D0000F90CF2DECCF86E192E09F938F930E94E9
:1012E000070F0F900F90DF91CF911F910F91FF90FB
:1012F00008956F927F928F929F92AF92BF92CF92FA
:10130000DF92EF92FF920F931F93CF93DF9300D062
:1013100000D01F92CDB7DEB7F82EE92E162F042F7E
:101320000E94B30E089710F080E001C089E01F9280
:101330008F93EF92FF928EE092E09F938F930E94A3
:10134000070F010F0F900F900F900F900F900F90BD
:10135000CE0101967C0185E0782E7E0C9AE0A92EC4
:1013600092E0B92E25E0822E22E0922E1017A9F1EC
:1013700066246394610E80E090E00E94EE08812F65
:101380008F710E94FA0367017C1439F08FEF0E947D
:10139000FA03F60181936F01F7CF81E090E00E949C
:1013A000EE08BF92AF920E94070FCE0106966C0125
:1013B0000F900F90CE14DF0471F0F60182916F014F
:1013C0001F928F939F928F920E94070F0F900F9002
:1013D0000F900F90EFCF162DC9CF82E092E09F9330
:1013E0008F930E94070F0F900F900F900F900F9008
:1013F0000F900F90DF91CF911F910F91FF90EF9081
:10140000DF90CF90BF90AF909F908F907F906F9024
:101410000895CF9380E090E00E94EE0881EE0E9454
:10142000FA03C82F81E090E00E94EE088C2FCF9144
:101430000895CF9380E090E00E94EE0882EE0E9433
:10144000FA03C82F81E090E00E94EE088C2FCF9124
:101450000895EF92FF920F931F93CF93DF9300D0E5
:10146000CDB7DEB7082F162F80E090E049837A834E
:101470000E94EE08802F8F7180620E94FA03082F6D
:10148000E12E7A81F72E4981140F1E1531F0F701F4
:1014900081917F010E94FA03F8CF81E090E00E94E1
:1014A000EE08802F0F900F90DF91CF911F910F9139
:1014B000FF90EF90089586E00E94FF08682F666015
:1014C00086E00C9414090F931F93CF938C0186E050
:1014D0000E94FF0810924202C82FC77D02301105FA
:1014E00011F4C06207C00130110521F481E080933E
:1014F0004202C8606C2F86E00E94140986E00E94B8
:10150000FF088C1721F01092420280E001C081E0B8
:10151000CF911F910F910895CF93DF93CDB7DEB791
:1015200068970FB6F894DEBF0FBECDBF789484B530
:10153000826084BD84B5816084BD85B5826085BDCF
:1015400085B5816085BD80916E00816080936E005D
:10155000109281008091810082608093810080914F
:101560008100816080938100809180008160809300
:1015700080008091B10084608093B1008091B000C0
:1015800081608093B00080917A00846080937A00BB
:1015900080917A00826080937A0080917A008160E5
:1015A00080937A0080917A00806880937A0010920C
:1015B000C100E091B301F091B40182E08083E09139
:1015C000AF01F091B0011082E091B101F091B20150
:1015D0008FEC80831092BB01E091B701F091B801CC
:1015E00086E08083E091B501F091B6018081806151
:1015F0008083E091B501F091B6018081886080839D
:10160000E091B501F091B601808180688083E0911E
:10161000B501F091B60180818F7D808360E070E03C
:1016200088E892E00E94BC0E61E0809140020E9436
:101630003A0361E0809141020E943A031FB7F89497
:1016400080918501811127C0EDE3F2E08491E1E50D
:10165000F2E09491E82FF0E0EE0FFF1FEE51FF4F04
:10166000A591B491EC91E92321F461E08AE00E9414
:10167000EE0261E08AE00E943A038CB580618CBD85
:101680008CB580648CBD61E08DE00E943A0361E01E
:101690008BE00E943A03809185018F5F80938501E2
:1016A0001FBF60E0809140020E94EE0281E090E066
:1016B0000E94EE0865E070E080E090E00E94760312
:1016C0006FE484E00E9414090E945B0A82E090E0CB
:1016D0000E94630A882319F081E08093430280E02E
:1016E00090E00E94630A80E00E94FF08682F6C600F
:1016F00080E00E94140960E08CE10E94140960E718
:1017000087E00E9414096CE485E00E9414090E949D
:10171000190A0E94090A60E081E00E9414098DE123
:101720000E94FF08682F64608DE10E9414098DE11A
:101730000E94FF08811116C080E090E00E94EE0830
:1017400080E50E94FA0383E70E94FA0381E090E0BB
:101750000E94EE088DE10E94FF08682F64608DE111
:101760000E9414098CE10E94FF08682F6F638CE1CE
:101770000E94140981E0809346026FEF84E00E948A
:10178000140982E090E00E94630A6CE485E00E9404
:1017900014090E945B0A82EE898780EF8A878B8713
:1017A0008C878D871E861F86188A45E0BE01675F7D
:1017B0007F4F8AE00E94290A45E0BE01675F7F4FA4
:1017C00080E10E94290A60914402613208F060E2DF
:1017D00081E10E94140981EE898380EF8A838B83E3
:1017E0008C838D831E821F821886E9EFF0E084913E
:1017F00045E0BE016F5F7F4F0E94290AE3EFF0E0F2
:101800008491609144020E94140982E00E94FF08C2
:10181000EDEEF0E0E49161E070E001C0660FEA9562
:10182000EAF7682B82E00E94140980E00E94FF081A
:10183000682F636080E00E94140960E787E00E94DF
:101840001409209148023091490240914A02509176
:101850004B0260914C0270914D0280914E0290912A
:101860004F02A0E00E94791531F045E068E472E093
:101870008AE00E94290A0E94190A0E94090A61E06E
:10188000809140020E94EE0283E092E00197F1F71E
:1018900080E090E00E94EE088FEF0E94FA03182F7C
:1018A00081E090E00E94EE08812F90E0212F2170CE
:1018B0001F922F9395958795877099279F938F9364
:1018C00014FB882780F91F928F9315FB882780F9D6
:1018D0001F928F9316FB882780F91F928F931F9278
:1018E0001F938EEF90E09F938F930E94070F42E02B
:1018F0006AE085EF91E00E94790944E06CE088EEAF
:1019000091E00E94340941E060E180EE91E00E94A4
:10191000790946E061E185ED91E00E94340941E0FA
:1019200061E08FEC91E00E94340941E062E085ECD7
:1019300091E00E94340941E065E08FEB91E00E9464
:10194000340941E066E086EB91E00E94340941E011
:1019500060E08FEA91E00E94340942E06CE181EAA4
:1019600091E00E94340986E00E94FF0888720FB659
:10197000F894DEBF0FBECDBF803241F021E090E091
:10198000883009F020E0E22FF92F02C0E2E0F0E019
:10199000EE0FFF1FE556FE4F859194919F938F9315
:1019A00089E891E09F938F930E94070FE091430293
:1019B000F0E0EE0FFF1FEB57FE4F859194919F9340
:1019C0008F9386E791E09F938F930E94070F80E0AB
:1019D0000E94FF080FB6F894DEBF0FBECDBF83FF95
:1019E00005C082FD06C0E1E0F0E005C0E0E0F0E007
:1019F00002C0E2E0F0E0EE0FFF1FE059FE4F8591DC
:101A000094919F938F938DE591E09F938F930E9484
:101A1000070F86E00E94FF0886700F900F900F90CE
:101A20000F90863051F0843059F021E090E0823000
:101A300009F020E0E22FF92F05C0E3E0F0E002C05A
:101A4000E2E0F0E0EE0FFF1FEB5AFE4F859194911C
:101A50009F938F9384E491E09F938F930E94070F4D
:101A600062E0809155020E943A0380E398EFAFEF65
:101A7000BFEF8093590290935A02A0935B02B093F8
:101A80005C020F900F900F900F9080E090E00E940A
:101A9000EE088FEF0E94FA03182F81E090E00E9479
:101AA000EE0816FD0BC060ED77E080E090E00E944C
:101AB00076030E948F0781113EC073C060E487E007
:101AC0000E94140915FF04C060E287E00E94140917
:101AD00080914402182F8A3108F019E19091460252
:101AE000911103C0F82EF11A01C0F12C80E090E0B2
:101AF0000E94EE0881E60E94FA0396E8C92E91E062
:101B0000D92E115038F08FEF0E94FA03F60181931D
:101B10006F01F7CFFF2029F08FEF0E94FA03FA94AC
:101B2000F9CF81E090E00E94EE0887E10E94FF0873
:101B300080FFCECFB8CF809156028B3041F188F133
:101B40008551823070F56091500270E080E090E045
:101B50000E94D31320E030E040E853E40E948A144E
:101B60006B017C0180915102682F70E080E090E071
:101B70000E94D5139B01AC01C701B6010E9433132B
:101B80002DEC3CEC4CEC5DE30E948A1407C06091A4
:101B9000500270E080E090E00E94D3136B017C0162
:101BA00006C0C12CD12C80ECE82E8FE7F82E80E007
:101BB0000E948F082B013C0181E00E948F084B019D
:101BC0005C01A7019601C701B6010E943D15811174
:101BD0005DC0A3019201C301B2010E943D158111B4
:101BE00055C0A5019401C501B4010E943D158111A4
:101BF0004DC001E0A7019601C501B4010E94760520
:101C0000698B7A8B8B8B9C8B00E0A7019601C301BB
:101C1000B2010E9476056D8B7E8B8F8B988F88E149
:101C200091E00E944F04C701B6010E94A20483E222
:101C300091E00E944F0487E291E00E944F04C301AB
:101C4000B2010E94A20485E391E00E944F04C50105
:101C5000B4010E94A2048AE391E00E944F048FE342
:101C600091E00E944F046D897E898F89988D0E9432
:101C7000A20485E391E00E944F0469897A898B89E7
:101C80009C890E94A2048CE491E002C083E591E06B
:101C90000E944F0480E591E00E944F040E94590287
:101CA000F4CEE3EAF1E01382128288EE93E0A0E042
:101CB000B0E084839583A683B7838AE091E0918323
:101CC000808385EC90E09587848784EC90E097870B
:101CD000868780EC90E0918B808B81EC90E0938BF9
:101CE000828B82EC90E0958B848B86EC90E0978BD6
:101CF000868B118E128E138E148EA0E5B2E083E0D7
:101D000015968C93159786E116968C931697EAE4B0
:101D1000F2E0E4911796EC931797E6E3F2E0E49192
:101D20001896EC93189740E85EE360E070E01D962B
:101D30004D935D936D937C935097E0E4F2E089E0DE
:101D400080838AE0818381E08283138280E28483BE
:101D500015821682108611861286138614861586C1
:101D6000168617860895FC0105900020E9F78095F6
:101D700090958E0F9F1F08950F931F93CF93DF931E
:101D8000009731F46115710519F480E090E03AC0D4
:101D90008B01EC016EE070E081E090E00E94FF10AA
:101DA000FC01892B91F380E883830115110571F003
:101DB0001387028781E88383809162029091630296
:101DC000892B21F4F0936302E09362022097C9F01B
:101DD000D187C087838182608383809164029091E0
:101DE0006502892B71F4F0936502E093640280919F
:101DF000660290916702892B21F4F0936702E093C9
:101E00006602CF01DF91CF911F910F910895A0E05D
:101E1000B0E0EDE0FFE00C940913AE01495F5F4FC5
:101E2000DA016D917D91AD0102E612E0F801828147
:101E30009381DC0113962C911397286013962C93B1
:101E40000E942D0FD8011296ED91FC9113972381DA
:101E5000277F2383E4E00C942513ACE0B0E0E3E3B8
:101E6000FFE00C94FB127C016B018A01FC011782DC
:101E70001682838181FFBDC1CE0101964C01F7011D
:101E80009381F60193FD859193FF81916F018823E2
:101E900009F4ABC1853239F493FD859193FF8191AB
:101EA0006F01853229F4B70190E00E946512E7CFF7
:101EB000512C312C20E02032A0F48B3269F030F428
:101EC000803259F0833269F420612CC08D3239F0B0
:101ED000803339F4216026C02260246023C028604A
:101EE00021C027FD27C030ED380F3A3078F426FFA7
:101EF00006C0FAE05F9E300D1124532E13C08AE015
:101F0000389E300D1124332E20620CC08E3221F405
:101F100026FD6BC1206406C08C3611F4206802C017
:101F2000883641F4F60193FD859193FF81916F010D
:101F30008111C1CF982F9F7D9554933028F40C5F69
:101F40001F4FFFE3F9830DC0833631F0833771F003
:101F5000833509F05BC022C0F801808189830E5F60
:101F60001F4F44244394512C540115C03801F2E012
:101F70006F0E711CF801A080B18026FF03C0652D93
:101F800070E002C06FEF7FEFC5012C870E945A12EC
:101F90002C0183012C852F77222E17C03801F2E007
:101FA0006F0E711CF801A080B18026FF03C0652D63
:101FB00070E002C06FEF7FEFC5012C870E944812CE
:101FC0002C012C852068222E830123FC1BC0832D2D
:101FD00090E048165906B0F4B70180E290E00E9404
:101FE00065123A94F4CFF50127FC859127FE819183
:101FF0005F01B70190E00E94651231103A94F1E060
:102000004F1A51084114510471F7E5C0843611F09C
:10201000893639F5F80127FF07C060817181828117
:1020200093810C5F1F4F08C060817181072E000CE7
:10203000880B990B0E5F1F4F2F76722E97FF09C0EA
:1020400090958095709561957F4F8F4F9F4F206839
:10205000722E2AE030E0A4010E949D12A82EA8183A
:1020600044C0853729F42F7EB22E2AE030E025C007
:10207000F22FF97FBF2E8F36C1F018F4883579F032
:10208000B4C0803719F0883721F0AFC02F2F2061FE
:10209000B22EB4FE0DC08B2D8460B82E09C024FF73
:1020A0000AC09F2F9660B92E06C028E030E005C018
:1020B00020E130E002C020E132E0F801B7FE07C0C5
:1020C00060817181828193810C5F1F4F06C06081A6
:1020D000718180E090E00E5F1F4FA4010E949D126D
:1020E000A82EA818FB2DFF777F2E76FE0BC0372D6C
:1020F0003E7FA51450F474FE0AC072FC08C0372D50
:102100003E7E05C0BA2C372D03C0BA2C01C0B52CB9
:1021100034FF0DC0FE01EA0DF11D8081803311F402
:10212000397E09C032FF06C0B394B39404C0832F34
:10213000867809F0B39433FD13C030FF06C05A2CE3
:10214000B31418F4530C5B18B32CB31468F4B70130
:1021500080E290E03C870E946512B3943C85F5CF05
:10216000B31410F43B1801C0312C34FF12C0B70176
:1021700080E390E03C870E9465123C8532FF17C0E7
:1021800031FD03C088E790E002C088E590E0B70128
:102190000CC0832F867859F031FF02C08BE201C05A
:1021A00080E237FD8DE2B70190E00E946512A51430
:1021B00038F4B70180E390E00E9465125A94F7CF9B
:1021C000AA94F401EA0DF11D8081B70190E00E940C
:1021D0006512A110F5CF332009F451CEB70180E28A
:1021E00090E00E9465123A94F6CFF70186819781BC
:1021F00002C08FEF9FEF2C96E2E10C9417130F9320
:102200001F93CF93DF93869F8001879F100D969F2A
:10221000100D1124C8010E941B11EC01009729F038
:10222000A80160E070E00E945312CE01DF91CF91CF
:102230001F910F910895CF93DF938230910510F491
:1022400082E090E0E0916A02F0916B0220E030E0E1
:10225000C0E0D0E0309711F1408151814817590713
:10226000C0F04817590761F482819381209719F0D3
:102270009B838A832BC090936B0280936A0226C053
:102280002115310519F04217530718F49A01BE01C0
:10229000DF01EF010280F381E02DDCCF2115310554
:1022A00009F1281B390B2430310590F412968D91D9
:1022B0009C9113976115710521F0FB019383828333
:1022C00004C090936B0280936A02FD01329644C071
:1022D000FD01E20FF31F81939193225031092D9359
:1022E0003C933AC02091680230916902232B41F45B
:1022F000209102013091030130936902209368021A
:1023000020910001309101012115310541F42DB7D3
:102310003EB74091040150910501241B350BE0911B
:102320006802F0916902E217F307A0F42E1B3F0B3D
:102330002817390778F0AC014E5F5F4F2417350737
:1023400048F04E0F5F1F50936902409368028193DB
:10235000919302C0E0E0F0E0CF01DF91CF910895CA
:102360000F931F93CF93DF93009709F48CC0FC0168
:1023700032971382128200916A0210916B0201154A
:10238000110581F420813181820F931F2091680211
:10239000309169022817390779F5F0936902E093C3
:1023A000680271C0D80140E050E0AE17BF0750F49A
:1023B00012962D913C911397AD012115310509F12C
:1023C000D901F3CF9D01DA013383228360817181CA
:1023D000860F971F8217930769F4EC0128813981D2
:1023E000260F371F2E5F3F4F318320838A819B81C9
:1023F00093838283452B29F4F0936B02E0936A0266
:1024000042C01396FC93EE931297ED0149915991B6
:102410009E01240F351FE217F30771F4808191812B
:10242000840F951F029611969C938E9382819381BF
:1024300013969C938E931297E0E0F0E0D8011296E9
:102440008D919C911397009719F0F8018C01F6CFAC
:102450008D919C9198012E5F3F4F820F931F209189
:102460006802309169022817390769F4309729F416
:1024700010926B0210926A0202C0138212821093B1
:10248000690200936802DF91CF911F910F91089527
:10249000FC010590615070400110D8F7809590952F
:1024A0008E0F9F1F0895DC0101C06D934150504075
:1024B000E0F70895FC016150704001900110D8F7D9
:1024C000809590958E0F9F1F08950F931F93CF9324
:1024D000DF93FB01238121FD03C08FEF9FEF28C015
:1024E00022FF16C046815781248135814217530748
:1024F00044F4A081B1819D012F5F3F4F3183208340
:102500008C93268137812F5F3F4F3783268310C0FE
:10251000EB01092F182F0084F185E02D0995892BF7
:10252000E1F68E819F8101969F838E83812F902F6C
:10253000DF91CF911F910F910895FA01AA272830BA
:1025400051F1203181F1E8946F936E7F6E5F7F4F80
:102550008F4F9F4FAF4FB1E03ED0B4E03CD0670FFC
:10256000781F891F9A1FA11D680F791F8A1F911D4F
:10257000A11D6A0F711D811D911DA11D20D009F49F
:1025800068943F912AE0269F11243019305D3193E1
:10259000DEF6CF010895462F4770405D4193B3E0CA
:1025A0000FD0C9F7F6CF462F4F70405D4A3318F071
:1025B000495D31FD4052419302D0A9F7EACFB4E022
:1025C000A6959795879577956795BA95C9F70097DA
:1025D0006105710508959B01AC010A2E069457957B
:1025E000479537952795BA95C9F7620F731F841FD2
:1025F000951FA01D08952F923F924F925F926F9268
:102600007F928F929F92AF92BF92CF92DF92EF9282
:10261000FF920F931F93CF93DF93CDB7DEB7CA1B03
:10262000DB0B0FB6F894DEBF0FBECDBF09942A882E
:10263000398848885F846E847D848C849B84AA84D6
:10264000B984C884DF80EE80FD800C811B81AA8163
:10265000B981CE0FD11D0FB6F894DEBF0FBECDBF2E
:10266000ED0108955058BB27AA270E944A130C94E5
:102670004B140E943D1438F00E94441420F039F4A9
:102680009F3F19F426F40C943A140EF4E095E7FBFE
:102690000C943414E92F0E945C1458F3BA176207A3
:1026A00073078407950720F079F4A6F50C947E143F
:1026B0000EF4E0950B2EBA2FA02D0B01B90190015D
:1026C0000C01CA01A0011124FF27591B99F0593FA1
:1026D00050F4503E68F11A16F040A22F232F342FE9
:1026E0004427585FF3CF469537952795A795F04037
:1026F0005395C9F77EF41F16BA0B620B730B840B4C
:10270000BAF09150A1F0FF0FBB1F661F771F881F03
:10271000C2F70EC0BA0F621F731F841F48F487955B
:1027200077956795B795F7959E3F08F0B0CF93954D
:10273000880F08F09927EE0F9795879508950E94C6
:10274000101408F481E008950E94641488F09F57E3
:1027500098F0B92F9927B751B0F0E1F0660F771FC5
:10276000881F991F1AF0BA95C9F714C0B13091F0BB
:102770000E947E14B1E008950C947E14672F782F88
:102780008827B85F39F0B93FCCF386957795679580
:10279000B395D9F73EF490958095709561957F4FEC
:1027A0008F4F9F4F0895E89409C097FB3EF4909592
:1027B0008095709561957F4F8F4F9F4F9923A9F01A
:1027C000F92F96E9BB279395F695879577956795A9
:1027D000B795F111F8CFFAF4BB0F11F460FF1BC0ED
:1027E0006F5F7F4F8F4F9F4F16C0882311F096E980
:1027F00011C0772321F09EE8872F762F05C066232E
:1028000071F096E8862F70E060E02AF09A95660FE6
:10281000771F881FDAF7880F9695879597F908959F
:10282000990F0008550FAA0BE0E8FEEF16161706E1
:10283000E807F907C0F012161306E407F50798F049
:10284000621B730B840B950B39F40A2661F0232B62
:10285000242B252B21F408950A2609F4A140A695DE
:102860008FEF811D811D089597F99F6780E870E0C3
:1028700060E008959FEF80EC089500240A941616F6
:10288000170618060906089500240A94121613065E
:10289000140605060895092E0394000C11F48823EC
:1028A00052F0BB0F40F4BF2B11F460FF04C06F5F08
:1028B0007F4F8F4F9F4F089557FD9058440F551FDE
:1028C00059F05F3F71F04795880F97FB991F61F0B2
:1028D0009F3F79F087950895121613061406551F29
:1028E000F2CF4695F1DF08C0161617061806991F95
:1028F000F1CF86957105610508940895E894BB278A
:1029000066277727CB0197F908950E94101408F4E1
:102910008FEF08950E949D140C944B140E943D1457
:1029200038F00E94441420F0952311F00C943414D4
:102930000C943A1411240C947F140E945C1470F3CC
:10294000959FC1F3950F50E0551F629FF001729F54
:10295000BB27F00DB11D639FAA27F00DB11DAA1F63
:10296000649F6627B00DA11D661F829F2227B00DB0
:10297000A11D621F739FB00DA11D621F839FA00D3B
:10298000611D221F749F3327A00D611D231F849F8B
:10299000600D211D822F762F6A2F11249F575040E2
:1029A0009AF0F1F088234AF0EE0FFF1FBB1F661F5D
:1029B000771F881F91505040A9F79E3F510580F026
:1029C0000C9434140C947F145F3FE4F3983ED4F3DA
:1029D000869577956795B795F795E7959F5FC1F7CA
:1029E000FE2B880F911D9695879597F9089519F4F8
:1029F00016F40C943A140C9442150E946414B8F323
:102A00009923C9F3B6F39F57550B87FF0E945015C2
:102A10000024A0E640EA900180585695979528F446
:102A2000805C660F771F881F20F02617370748073E
:102A300030F4621B730B840B202931294A2BA69595
:102A400017940794202531254A2758F7660F771FDA
:102A5000881F20F026173707480730F4620B730BE6
:102A6000840B200D311D411DA09581F7B901842FE4
:102A70009158880F9695879508950E941014880B99
:102A8000990B08959F3F31F0915020F487957795E9
:102A90006795B795880F911D9695879597F9089535
:102AA00091505040660F771F881FD2F70895A1E21A
:102AB0001A2EAA1BBB1BFD010DC0AA1FBB1FEE1FB8
:102AC000FF1FA217B307E407F50720F0A21BB30B03
:102AD000E40BF50B661F771F881F991F1A9469F77F
:102AE00060957095809590959B01AC01BD01CF01DB
:102AF00008950024A7FD00942A17300540055005CD
:102B000060057005800590050895EE0FFF1F059084
:102B1000F491E02D099481E090E0F8940C949015E4
:042B2000F894FFCF57
:102B240000006C02800000000000F00159018801DF
:102B34003702B9019701AB0148756D69646974790D
:102B44003A20002025090054656D70657261747522
:102B540072653A2000202A432000202A46090048B2
:102B640065617420696E6465783A2000202A460005
:102B74000D0A004661696C656420746F207265619A
:102B8400642066726F6D204448542073656E736FC1
:102B94007221006E616E00696E66006F76660000D9
:107800000C94343C0C94513C0C94513C0C94513CE1
:107810000C94513C0C94513C0C94513C0C94513CB4
:107820000C94513C0C94513C0C94513C0C94513CA4
:107830000C94513C0C94513C0C94513C0C94513C94
:107840000C94513C0C94513C0C94513C0C94513C84
:107850000C94513C0C94513C0C94513C0C94513C74
:107860000C94513C0C94513C11241FBECFEFD8E036
:10787000DEBFCDBF11E0A0E0B1E0ECE9FFE702C060
:1078800005900D92A230B107D9F712E0A2E0B1E065
:1078900001C01D92AD30B107E1F70E942D3D0C945F
:1078A000CC3F0C94003C982F959595959595959582
:1078B000905D8F708A307CF0282F295A8091C0000B
:1078C00085FFFCCF9093C6008091C00085FFFCCF60
:1078D0002093C6000895282F205DF0CF982F809127
:1078E000C00085FFFCCF9093C6000895EF92FF92F1
:1078F0000F931F93EE24FF2487018091C00087FD22
:1079000017C00894E11CF11C011D111D81E4E8164B
:1079100082E4F8068FE0080780E0180770F3E09132
:107920000401F091050109958091C00087FFE9CF1E
:107930008091C6001F910F91FF90EF9008950E94D3
:10794000763C982F8091C00085FFFCCF9093C600B5
:1079500091362CF490330CF09053892F089597555D
:10796000892F08951F930E949F3C182F0E949F3CCF
:107970001295107F810F1F9108951F93182F882350
:1079800021F00E94763C1150E1F71F9108951F935A
:10799000182F0E94763C803249F0809103018F5F5E
:1079A000809303018530C1F01F9108958091C0003C
:1079B00085FFFCCF84E18093C6008091C00085FFE5
:1079C000FCCF1093C6008091C00085FFFCCF80E102
:1079D0008093C6001F910895E0910401F091050184
:1079E00009951F9108950E94763C803241F0809164
:1079F00003018F5F80930301853081F008958091AA
:107A0000C00085FFFCCF84E18093C6008091C00058
:107A100085FFFCCF80E18093C6000895E0910401CA
:107A2000F09105010995089540E951E08823A1F0FE
:107A30002D9A28EE33E0FA013197F1F721503040CA
:107A4000D1F72D9828EE33E0FA013197F1F7215064
:107A50003040D1F7815061F708953F924F925F9285
:107A60006F927F928F929F92AF92BF92CF92DF924E
:107A7000EF92FF920F931F93CF93DF93000080E16B
:107A80008093C4001092C50088E18093C10086E015
:107A90008093C2005098589A259A81E00E94143D24
:107AA00024E1F22E9EE1E92E85E9D82E0FE0C02ECA
:107AB00010E1B12EAA24A394B1E49B2EA6E58A2E50
:107AC000F2E57F2EE0E26E2E79E4572E63E5462E36
:107AD00050E5352E0E94763C8033B1F18133B9F107
:107AE000803409F46FC0813409F476C0823409F41B
:107AF00085C0853409F488C0803531F1823521F1A3
:107B0000813511F1853509F485C0863509F48DC0BC
:107B1000843609F496C0843709F403C1853709F423
:107B200072C1863709F466C0809103018F5F80932C
:107B30000301853079F6E0910401F0910501099582
:107B40000E94763C803351F60E94F33CC3CF0E94E2
:107B5000763C803249F78091C00085FFFCCFF092DF
:107B6000C6008091C00085FFFCCF9092C600809136
:107B7000C00085FFFCCF8092C6008091C00085FFC9
:107B8000FCCF7092C6008091C00085FFFCCF609250
:107B9000C6008091C00085FFFCCF5092C600809146
:107BA000C00085FFFCCF4092C6008091C00085FFD9
:107BB000FCCF3092C6008091C00085FFFCCFB09210
:107BC000C60088CF0E94763C863808F4BDCF0E945C
:107BD000763C0E94F33C7ECF0E94763C803809F4CC
:107BE0009CC0813809F40BC1823809F43CC1883942
:107BF00009F48FC080E00E94C73C6CCF84E10E94F2
:107C0000BD3C0E94F33C66CF85E00E94BD3C0E94D3
:107C1000F33C60CF0E94763C809306010E94763C44
:107C2000809307010E94F33C55CF0E94763C80333D
:107C300009F41DC183E00E94BD3C80E00E94C73C66
:107C400049CF0E94763C809309020E94763C809343
:107C5000080280910C028E7F80930C020E94763C79
:107C6000853409F415C18091080290910902892B8D
:107C700089F000E010E00E94763CF801E85FFE4FDA
:107C800080830F5F1F4F80910802909109020817AF
:107C9000190788F30E94763C803209F045CF809125
:107CA0000C0280FF01C16091060170910701660F0F
:107CB000771F7093070160930601A0910802B091AD
:107CC00009021097C9F0E8E0F1E09B01AD014E0F09
:107CD0005F1FF999FECF32BD21BD819180BDFA9A17
:107CE000F99A2F5F3F4FE417F50799F76A0F7B1F4B
:107CF00070930701609306018091C00085FFFCCF5F
:107D0000F092C6008091C00085FFFCCFB092C60003
:107D1000E1CE83E00E94C73CDDCE82E00E94C73CFA
:107D2000D9CE0E94763C809309020E94763C8093D3
:107D300008028091060190910701880F991F909386
:107D40000701809306010E94763C853409F4A6C0A1
:107D500080910C028E7F80930C020E94763C8032D0
:107D600009F0B8CE8091C00085FFFCCFF092C6002C
:107D7000609108027091090261157105B9F140E046
:107D800050E080910C02A82FA170B82FB27011C0E2
:107D9000BB2309F45CC0E0910601F0910701319624
:107DA000F0930701E09306014F5F5F4F46175707B7
:107DB000E8F4AA2369F3F999FECF209106013091E6
:107DC000070132BD21BDF89A90B58091C00085FFB2
:107DD000FCCF9093C6002F5F3F4F30930701209355
:107DE00006014F5F5F4F4617570718F38091C00099
:107DF00085FDE5CE8091C00085FFF8CFE0CE81E023
:107E00000E94C73C67CE0E94763C803209F08CCE3F
:107E10008091C00085FFFCCFF092C6008091C00029
:107E200085FFFCCFE092C6008091C00085FFFCCFAB
:107E3000D092C6008091C00085FFFCCFC092C600E2
:107E40008091C00085FFFCCFB092C60043CEE09188
:107E50000601F091070194918091C00085FFFCCF4D
:107E60009093C6009CCF80E10E94C73C33CE0E9415
:107E7000763C0E94763C182F0E94763C112309F430
:107E800083C0113009F484C08FE00E94C73C22CE29
:107E900080910C02816080930C02E5CE80910C02EF
:107EA000816080930C0259CF809107018823880F4D
:107EB000880B8A2180930B02809106019091070123
:107EC000880F991F90930701809306018091080203
:107ED00080FF09C080910802909109020196909359
:107EE000090280930802F894F999FECF1127E091D6
:107EF0000601F0910701C8E0D1E08091080290915D
:107F00000902103091F40091570001700130D9F34B
:107F100003E000935700E89500915700017001308D
:107F2000D9F301E100935700E89509901990009169
:107F3000570001700130D9F301E000935700E89534
:107F40001395103498F011270091570001700130FB
:107F5000D9F305E000935700E895009157000170B0
:107F60000130D9F301E100935700E895329602976A
:107F700009F0C7CF103011F00296E5CF112480919F
:107F8000C00085FFB9CEBCCE8EE10E94C73CA2CD19
:0C7F900085E90E94C73C9ECDF894FFCF0D
:027F9C00800063
:040000030000780081
:00000001FF