:100000000C942A010C9452010C9452010C9452014C
:100010000C9452010C9452010C9452010C94520114
:100020000C9452010C9452010C9452010C94520104
:100030000C9452010C9452010C9452010C945201F4
:100040000C94F9040C9452010C94C7040C94A10470
:100050000C9452010C9452010C9452010C945201D4
:100060000C9452010C94520150415F48494748009A
:100070004C415F4D45440050415F4C4F570050414B
:100080005F4D494E0031362062697473003820623A
:100090006974730044697361626C6564006E5246F2
:1000A00032344C30312B006E524632344C303100F9
:1000B0003235304B42505300324D42505300314D97
:1000C0004250530000000008000201000003040732
:1000D00000000000000000000001020304051112EE
:1000E000131415160A0B0C0D0E0F5354415455538F
:1000F0000909203D203078253032782052585F445D
:10010000523D25782054585F44533D2578204D4179
:10011000585F52543D25782052585F505F4E4F3DF6
:1001200025782054585F46554C4C3D25780D0A00E3
:10013000504120506F77657209203D2025530D0AEC
:10014000007E00770070006800435243204C656ECB
:1001500067746809203D2025530D0A0094008D0026
:1001600085004D6F64656C0909203D2025530D0AFB
:1001700000A7009D004461746120526174650920EC
:100180003D2025530D0A00BE00B800B00044594E72
:1001900050442F4645415455524500434F4E464921
:1001A000470052465F53455455500052465F4348FE
:1001B00000454E5F52584144445200454E5F414114
:1001C0000052585F50575F50302D360054585F41F1
:1001D0004444520052585F414444525F50322D35DE
:1001E0000052585F414444525F50302D31000000AE
:1001F0000000250028002B0000000000240027003C
:100200002A00040404040404040402020202020298
:1002100003030303030301020408102040800102CA
:10022000040810200102040810200D0A00253032B5
:100230007800203078002553092563203D000D0A01
:100240000020307825303278002553092563203D81
:100250000000430511241FBECFEFD8E0DEBFCDBFA5
:1002600011E0A0E0B1E0E4EAFAE102C005900D92ED
:10027000AC31B107D9F721E0ACE1B1E001C01D928A
:10028000AD3DB207E1F711E0CAE2D1E004C0219729
:10029000FE010E94450DC932D107C9F70E948505AC
:1002A0000C94500D0C94000090E0FC01EA5EFD4FB0
:1002B0002491FC01EE5FFD4F8491882399F090E03A
:1002C000880F991FFC01E850FE4FA591B491FC01E5
:1002D000E251FE4F859194918FB7F894EC91E22B07
:1002E000EC938FBF0895CF92DF92EF92FF920F931E
:1002F0001F93CF93DF936C017A018B01C0E0D0E0B4
:10030000CE15DF0589F0D8016D918D01D601ED91F3
:10031000FC910190F081E02DC6010995892B11F423
:100320007E0102C02196ECCFC701DF91CF911F91D2
:100330000F91FF90EF90DF90CF900895089580E0A7
:1003400090E00895FC01538D448D252F30E0842FDB
:1003500090E0821B930B541710F0CF9608950197ED
:100360000895FC01918D828D981761F0828DDF01D7
:10037000A80FB11D5D968C91928D9F5F9F73928F98
:1003800090E008958FEF9FEF0895FC01918D828D8D
:10039000981731F0828DE80FF11D858D90E008955A
:1003A0008FEF9FEF0895FC01918D228D892F90E0B2
:1003B000805C9F4F821B91098F739927089586E275
:1003C00091E00E94D30121E0892B09F420E0822FE3
:1003D0000895FC01848DDF01A80FB11DA35ABF4F02
:1003E0002C91848D90E001968F739927848FA68934
:1003F000B7892C93A089B1898C9180648C93938D5B
:10040000848D981306C00288F389E02D80818F7D4A
:1004100080830895EF92FF920F931F93CF93DF9302
:10042000EC0181E0888F9B8D8C8D981305C0E88945
:10043000F989808185FD24C0F62E0B8D10E00F5FB9
:100440001F4F0F731127E02E8C8DE8120CC00FB6D2
:1004500007FCFACFE889F989808185FFF5CFCE01C5
:100460000E94E901F1CF8B8DFE01E80FF11DE35AE7
:10047000FF4FF0820B8FEA89FB898081806207C081
:10048000EE89FF896083E889F989808180648083AF
:1004900081E090E0DF91CF911F910F91FF90EF905D
:1004A0000895CF93DF93EC01888D8823C9F0EA8902
:1004B000FB89808185FD05C0A889B9898C9186FD5D
:1004C0000FC00FB607FCF5CF808185FFF2CFA8895A
:1004D000B9898C9185FFEDCFCE010E94E901E7CF6C
:1004E000DF91CF91089580E090E0892B29F00E9460
:1004F000DF0181110C940000089590E0FC01EC53A1
:10050000FF4F3491FC01EA5EFD4F2491FC01EE5F48
:10051000FD4FE491EE2309F43BC0332339F133302E
:1005200091F038F43130A9F0323001F584B58F7D87
:1005300012C0373091F03830A1F03430B9F48091E6
:1005400080008F7D03C0809180008F778093800032
:100550000DC084B58F7784BD09C08091B0008F77BE
:1005600003C08091B0008F7D8093B000F0E0EE0F6B
:10057000FF1FE251FE4FA591B4918FB7F894EC9113
:10058000611103C020952E2301C02E2B2C938FBF09
:1005900008953FB7F8948091210190912201A09194
:1005A0002301B091240126B5A89B05C02F3F19F067
:1005B0000196A11DB11D3FBFBA2FA92F982F8827E3
:1005C000820F911DA11DB11DBC01CD0142E0660F3E
:1005D000771F881F991F4A95D1F708958EBD000097
:1005E0000DB407FEFDCF8EB50895CF93C82F682FA9
:1005F00086E291E00E940A028C2FCC0F990BCF91DA
:1006000008959CB59F7D9CBD9CB5937F9CBD9CB57A
:100610009C7F9CBD9DB59E7F9DBD682F8091C40130
:100620000C947D021F93CF93DF931F92CDB7DEB75B
:10063000182F80E090E069830E940103812F8F7161
:1006400080620E94EE02182F6981862F0E94EE02BE
:1006500081E090E00E940103812F0F90DF91CF9104
:100660001F910895CF93C82F80E090E00E9401036E
:100670008C2F8F710E94EE028FEF0E94EE02C82F26
:1006800081E090E00E9401038C2FCF91089586E0D5
:100690000E943203682F666086E00C9412030F9369
:1006A0001F93CF938C0186E00E9432031092C50104
:1006B000C82FC77D0230110511F4C06207C0013098
:1006C000110521F481E08093C501C8606C2F86E09C
:1006D0000E94120386E00E9432038C1721F01092D0
:1006E000C50180E001C081E0CF911F910F91089575
:1006F000CF9380E090E00E94010381EE0E94EE0221
:10070000C82F81E090E00E9401038C2FCF910895C3
:10071000CF9380E090E00E94010382EE0E94EE02FF
:10072000C82F81E090E00E9401038C2FCF910895A3
:10073000EF92FF920F931F93CF93DF9300D0CDB72B
:10074000DEB7082F162F80E090E049837A830E945D
:100750000103802F8F7180620E94EE02082FE12E2C
:100760007A81F72E4981140F1E1531F0F70181911E
:100770007F010E94EE02F8CF81E090E00E94010329
:10078000802F0F900F90DF91CF911F910F91FF90CD
:10079000EF900895FF920F931F93CF93DF93182F3D
:1007A000092FC62FD42F0E949808089710F080E0D8
:1007B00001C089E01F928F930F931F9389E492E009
:1007C0009F938F930E94EC08DC0F0F900F900F9077
:1007D0000F900F900F9001E412E0CD1791F0FF24DD
:1007E000F394FC0E8C2F0E9432031F928F931F9361
:1007F0000F930E94EC080F900F900F900F90CF2D49
:10080000ECCF8EE392E09F938F930E94EC080F90C1
:100810000F90DF91CF911F910F91FF9008956F92EC
:100820007F928F929F92AF92BF92CF92DF92EF9280
:10083000FF920F931F93CF93DF9300D000D01F92AE
:10084000CDB7DEB7F82EE92E162F042F0E94980898
:10085000089710F080E001C089E01F928F93EF921B
:10086000FF9286E392E09F938F930E94EC08010F22
:100870000F900F900F900F900F900F90CE01019658
:100880007C0185E0782E7E0C92E3A92E92E0B92EB1
:100890002DE2822E22E0922E1017A9F16624639495
:1008A000610E80E090E00E940103812F8F710E9411
:1008B000EE0267017C1439F08FEF0E94EE02F60120
:1008C00081936F01F7CF81E090E00E940103BF9216
:1008D000AF920E94EC08CE0106966C010F900F902B
:1008E000CE14DF0471F0F60182916F011F928F9395
:1008F0009F928F920E94EC080F900F900F900F9094
:10090000EFCF162DC9CF8AE292E09F938F930E947A
:10091000EC080F900F900F900F900F900F900F908A
:10092000DF91CF911F910F91FF90EF90DF90CF90CB
:10093000BF90AF909F908F907F906F9008950E948E
:100940004B0D1F920F920FB60F9211242F933F93CE
:100950004F935F936F937F938F939F93AF93BF93C7
:10096000EF93FF9386E291E00E94E901FF91EF91FE
:10097000BF91AF919F918F917F916F915F914F91B7
:100980003F912F910F900FBE0F901F9018951F92BF
:100990000F920FB60F9211242F938F939F93EF9383
:1009A000FF93E0913601F09137018081E0913C01A5
:1009B000F0913D0182FD12C0908180913F018F5FD7
:1009C0008F7320914001821751F0E0913F01F0E0D8
:1009D000EA5DFE4F958F80933F0101C08081FF91BA
:1009E000EF919F918F912F910F900FBE0F901F90BD
:1009F00018951F920F920FB60F9211242F933F93C9
:100A00008F939F93AF93BF9380911D0190911E018F
:100A1000A0911F01B091200130911C0123E0230F10
:100A20002D3720F40196A11DB11D05C026E8230F26
:100A30000296A11DB11D20931C0180931D0190936E
:100A40001E01A0931F01B09320018091210190917C
:100A50002201A0912301B09124010196A11DB11D95
:100A60008093210190932201A0932301B09324014C
:100A7000BF91AF919F918F913F912F910F900FBE9A
:100A80000F901F901895E6E2F1E01382128288EE33
:100A900093E0A0E0B0E084839583A683B7838AE0E7
:100AA00091E09183808385EC90E09587848784EC46
:100AB00090E09787868780EC90E0918B808B81EC2B
:100AC00090E0938B828B82EC90E0958B848B86EC0C
:100AD00090E0978B868B118E128E138E148EE3EC22
:100AE000F1E089E080838AE0818381E08283138260
:100AF00080E2848315821682108611861286138600
:100B000014861586168617860895CF93DF93CDB782
:100B1000DEB7E4970FB6F894DEBF0FBECDBF789472
:100B200084B5826084BD84B5816084BD85B58260F2
:100B300085BD85B5816085BD80916E0081608093A3
:100B40006E0010928100809181008260809381000C
:100B5000809181008160809381008091800081601C
:100B6000809380008091B10084608093B100809177
:100B7000B00081608093B00080917A00846080939F
:100B80007A0080917A00826080937A0080917A0066
:100B9000816080937A0080917A00806880937A00E7
:100BA0001092C100E0913601F091370182E080831C
:100BB000E0913201F09133011082E0913401F09123
:100BC00035018FEC808310923E01E0913A01F09163
:100BD0003B0186E08083E0913801F091390180810A
:100BE00080618083E0913801F091390180818860D3
:100BF0008083E0913801F0913901808180688083A1
:100C0000E0913801F091390180818F7D808360E02F
:100C100070E085EF92E00E94A1088091C3010E94DC
:100C200054018091C4010E9454011FB7F89480912F
:100C30002501811124C0ECE0F2E08491E0E2F2E0D1
:100C40009491E82FF0E0EE0FFF1FE850FE4FA591C2
:100C5000B491EC91E92321F461E08AE00E947D02E5
:100C60008AE00E9454018CB580618CBD8CB5806493
:100C70008CBD8DE00E9454018BE00E945401809154
:100C800025018F5F809325011FBF60E08091C30124
:100C90000E947D0281E090E00E9401030E94C9024F
:100CA0004B015C0165E0C62ED12CE12CF12C0E9499
:100CB000C902DC01CB0188199909AA09BB09883E40
:100CC0009340A105B10558F021E0C21AD108E1080E
:100CD000F10838EE830E33E0931EA11CB11CC11441
:100CE000D104E104F10419F76FE484E00E941203D7
:100CF0000E94470382E090E00E944F03882319F08E
:100D000081E08093C60180E090E00E944F0380E084
:100D10000E943203682F6C6080E00E94120360E042
:100D20008CE10E94120360E787E00E9412036CE4EA
:100D300085E00E9412030E9488030E94780360E00D
:100D400081E00E9412036FEF84E00E94120382E0B0
:100D500090E00E944F036CE485E00E9412030E9421
:100D6000470382EE8AA780EF8BA78CA78DA78EA75B
:100D70001FA618AA19AA45E0BE01665D7F4F8AE04A
:100D80000E94980345E0BE01665D7F4F80E10E94AE
:100D900098036091C701613208F060E281E10E942E
:100DA000120381EE8AA380EF8BA38CA38DA38EA365
:100DB0001FA218A619A6E5EEF0E0849145E0BE0159
:100DC0006E5D7F4F0E949803EFEDF0E0849160919B
:100DD000C7010E94120382E00E943203E9EDF0E0B5
:100DE000E49161E070E001C0660FEA95EAF7682BD4
:100DF00082E00E94120380E00E943203682F636049
:100E000080E00E94120360E787E00E9412032091B5
:100E1000CB013091CC014091CD015091CE01609138
:100E2000CF017091D0018091D1019091D201A0E0C9
:100E30000E94390D31F045E06BEC71E08AE00E94D0
:100E400098030E9488030E94780361E08091C301A7
:100E50000E947D0283E092E00197F1F780E090E04C
:100E60000E9401038FEF0E94EE02182F81E090E0B4
:100E70000E940103812F90E0212F21701F922F9358
:100E800095958795877099279F938F9314FB882753
:100E900080F91F928F9315FB882780F91F928F93FB
:100EA00016FB882780F91F928F931F921F938AEE5B
:100EB00090E09F938F930E94EC0842E06AE081EEFD
:100EC00091E00E940F0444E06CE084ED91E00E9408
:100ED000CA0341E060E18CEC91E00E940F0446E01F
:100EE00061E181EC91E00E94CA0341E061E08BEB9B
:100EF00091E00E94CA0341E062E081EB91E00E9430
:100F0000CA0341E065E08BEA91E00E94CA0341E038
:100F100066E082EA91E00E94CA0341E060E08BE96A
:100F200091E00E94CA0342E06CE18DE891E00E94EA
:100F3000CA0386E00E94320388720FB6F894DEBFBF
:100F40000FBECDBF803241F021E090E0883009F043
:100F500020E0E22FF92F02C0E2E0F0E0EE0FFF1FE9
:100F6000E957FE4F859194919F938F9385E791E088
:100F70009F938F930E94EC08E091C601F0E0EE0F82
:100F8000FF1FEF58FE4F859194919F938F9382E6B8
:100F900091E09F938F930E94EC0880E00E943203BF
:100FA0000FB6F894DEBF0FBECDBF83FF05C082FD34
:100FB00006C0E1E0F0E005C0E0E0F0E002C0E2E001
:100FC000F0E0EE0FFF1FE45AFE4F859194919F933E
:100FD0008F9389E491E09F938F930E94EC0886E0C1
:100FE0000E94320386700F900F900F900F90863002
:100FF00051F0843059F021E090E0823009F020E097
:10100000E22FF92F05C0E3E0F0E002C0E2E0F0E0FB
:10101000EE0FFF1FEF5BFE4F859194919F938F938F
:1010200080E391E09F938F930E94EC080F900F90C4
:101030000F900F909AE0C92ED12CE12CF12C80E07A
:1010400090E00E9401038FEF0E94EE02182F81E0D2
:1010500090E00E94010316FF0BC060E487E00E944D
:10106000120315FF08C060E287E00E94120303C06C
:101070000E947302E4CF1091C701012F143008F0D1
:1010800003E08091C901811102C0101B01C010E072
:1010900080E090E00E94010381E60E94EE029E0142
:1010A0002E5C3F4F5901015038F08FEF0E94EE0245
:1010B000F50181935F01F7CF112329F08FEF0E9493
:1010C000EE021150F9CF81E090E00E94010387E128
:1010D0000E9432032AA930E040E050E019A28E01BC
:1010E0000F5D1F4FCA01B901A70196010E94170D9C
:1010F000605DF80162938F012115310541055105AD
:1011000089F7309761F001900020E9F73197AF013E
:10111000401B510BB80186E291E00E94730142E04E
:1011200050E068E171E086E291E00E94730187CFB0
:10113000FC0105900020E9F7809590958E0F9F1F88
:1011400008950F931F93CF93DF93009731F46115A8
:10115000710519F480E090E03AC08B01EC016EE07B
:1011600070E081E090E00E94E40AFC01892B91F399
:1011700080E883830115110571F01387028781E8E8
:1011800083838091D3019091D401892B21F4F09332
:10119000D401E093D3012097C9F0D187C087838120
:1011A000826083838091D5019091D601892B71F45F
:1011B000F093D601E093D5018091D7019091D801A9
:1011C000892B21F4F093D801E093D701CF01DF916F
:1011D000CF911F910F910895A0E0B0E0E2EFF8E009
:1011E0000C94EE0CAE01495F5F4FDA016D917D9179
:1011F000AD0103ED11E0F80182819381DC011396CA
:101200002C911397286013962C930E941209D801F1
:101210001296ED91FC9113972381277F2383E4E0BD
:101220000C940A0DACE0B0E0E8E1F9E00C94E00CBD
:101230007C016B018A01FC0117821682838181FF88
:10124000BDC1CE0101964C01F7019381F60193FDDA
:10125000859193FF81916F01882309F4ABC1853299
:1012600039F493FD859193FF81916F01853229F4C3
:10127000B70190E00E944A0CE7CF512C312C20E0BE
:101280002032A0F48B3269F030F4803259F083328E
:1012900069F420612CC08D3239F0803339F421603B
:1012A00026C02260246023C0286021C027FD27C0FB
:1012B00030ED380F3A3078F426FF06C0FAE05F9E32
:1012C000300D1124532E13C08AE0389E300D1124A6
:1012D000332E20620CC08E3221F426FD6BC12064B7
:1012E00006C08C3611F4206802C0883641F4F6013D
:1012F00093FD859193FF81916F018111C1CF982F4B
:101300009F7D9554933028F40C5F1F4FFFE3F983C2
:101310000DC0833631F0833771F0833509F05BC03F
:1013200022C0F801808189830E5F1F4F44244394BB
:10133000512C540115C03801F2E06F0E711CF801F8
:10134000A080B18026FF03C0652D70E002C06FEF62
:101350007FEFC5012C870E943F0C2C0183012C8557
:101360002F77222E17C03801F2E06F0E711CF801A2
:10137000A080B18026FF03C0652D70E002C06FEF32
:101380007FEFC5012C870E942D0C2C012C85206835
:10139000222E830123FC1BC0832D90E048165906A2
:1013A000B0F4B70180E290E00E944A0C3A94F4CF86
:1013B000F50127FC859127FE81915F01B70190E03F
:1013C0000E944A0C31103A94F1E04F1A510841142E
:1013D000510471F7E5C0843611F0893639F5F8010A
:1013E00027FF07C060817181828193810C5F1F4F4D
:1013F00008C060817181072E000C880B990B0E5F6D
:101400001F4F2F76722E97FF09C09095809570958B
:1014100061957F4F8F4F9F4F2068722E2AE030E0FA
:10142000A4010E94820CA82EA81844C0853729F474
:101430002F7EB22E2AE030E025C0F22FF97FBF2E9A
:101440008F36C1F018F4883579F0B4C0803719F0C0
:10145000883721F0AFC02F2F2061B22EB4FE0DC00F
:101460008B2D8460B82E09C024FF0AC09F2F966080
:10147000B92E06C028E030E005C020E130E002C00F
:1014800020E132E0F801B7FE07C0608171818281FE
:1014900093810C5F1F4F06C06081718180E090E0F6
:1014A0000E5F1F4FA4010E94820CA82EA818FB2DCE
:1014B000FF777F2E76FE0BC0372D3E7FA51450F4AC
:1014C00074FE0AC072FC08C0372D3E7E05C0BA2CDF
:1014D000372D03C0BA2C01C0B52C34FF0DC0FE015E
:1014E000EA0DF11D8081803311F4397E09C032FF8D
:1014F00006C0B394B39404C0832F867809F0B394E4
:1015000033FD13C030FF06C05A2CB31418F4530C2B
:101510005B18B32CB31468F4B70180E290E03C8709
:101520000E944A0CB3943C85F5CFB31410F43B18D9
:1015300001C0312C34FF12C0B70180E390E03C873A
:101540000E944A0C3C8532FF17C031FD03C088E77A
:1015500090E002C088E590E0B7010CC0832F867848
:1015600059F031FF02C08BE201C080E237FD8DE20D
:10157000B70190E00E944A0CA51438F4B70180E34B
:1015800090E00E944A0C5A94F7CFAA94F401EA0D15
:10159000F11D8081B70190E00E944A0CA110F5CFA7
:1015A000332009F451CEB70180E290E00E944A0C4A
:1015B0003A94F6CFF7018681978102C08FEF9FEFB3
:1015C0002C96E2E10C94FC0C0F931F93CF93DF93C6
:1015D000869F8001879F100D969F100D1124C801D2
:1015E0000E94000BEC01009729F0A80160E070E078
:1015F0000E94380CCE01DF91CF911F910F91089579
:10160000CF93DF938230910510F482E090E0E09177
:10161000DB01F091DC0120E030E0C0E0D0E0309769
:1016200011F14081518148175907C0F048175907F7
:1016300061F482819381209719F09B838A832BC068
:101640009093DC018093DB0126C02115310519F050
:101650004217530718F49A01BE01DF01EF0102801F
:10166000F381E02DDCCF2115310509F1281B390B61
:101670002430310590F412968D919C911397611549
:10168000710521F0FB019383828304C09093DC01F8
:101690008093DB01FD01329644C0FD01E20FF31F90
:1016A00081939193225031092D933C933AC020911C
:1016B000D9013091DA01232B41F4209102013091BC
:1016C00003013093DA012093D90120910001309178
:1016D00001012115310541F42DB73EB740910401B8
:1016E00050910501241B350BE091D901F091DA01ED
:1016F000E217F307A0F42E1B3F0B2817390778F0E9
:10170000AC014E5F5F4F2417350748F04E0F5F1F47
:101710005093DA014093D9018193919302C0E0E0A4
:10172000F0E0CF01DF91CF9108950F931F93CF93F6
:10173000DF93009709F48CC0FC0132971382128268
:101740000091DB011091DC010115110581F420816C
:101750003181820F931F2091D9013091DA0128172E
:10176000390779F5F093DA01E093D90171C0D80116
:1017700040E050E0AE17BF0750F412962D913C9117
:101780001397AD012115310509F1D901F3CF9D0161
:10179000DA013383228360817181860F971F82175C
:1017A000930769F4EC0128813981260F371F2E5FDA
:1017B0003F4F318320838A819B8193838283452B92
:1017C00029F4F093DC01E093DB0142C01396FC9313
:1017D000EE931297ED01499159919E01240F351F07
:1017E000E217F30771F480819181840F951F0296AF
:1017F00011969C938E938281938113969C938E93E2
:101800001297E0E0F0E0D80112968D919C91139729
:10181000009719F0F8018C01F6CF8D919C919801F9
:101820002E5F3F4F820F931F2091D9013091DA0133
:101830002817390769F4309729F41092DC011092C7
:10184000DB0102C0138212821093DA010093D901E6
:10185000DF91CF911F910F910895FC010590615088
:1018600070400110D8F7809590958E0F9F1F0895B6
:10187000DC0101C06D9341505040E0F70895FC0138
:101880006150704001900110D8F7809590958E0FAF
:101890009F1F08950F931F93CF93DF93FB01238125
:1018A00021FD03C08FEF9FEF28C022FF16C04681A5
:1018B0005781248135814217530744F4A081B181B7
:1018C0009D012F5F3F4F318320838C932681378189
:1018D0002F5F3F4F3783268310C0EB01092F182F4E
:1018E0000084F185E02D0995892BE1F68E819F8199
:1018F00001969F838E83812F902FDF91CF911F912F
:101900000F910895FA01AA27283051F1203181F171
:10191000E8946F936E7F6E5F7F4F8F4F9F4FAF4FF7
:10192000B1E03ED0B4E03CD0670F781F891F9A1F0A
:10193000A11D680F791F8A1F911DA11D6A0F711DBE
:10194000811D911DA11D20D009F468943F912AE0CA
:10195000269F11243019305D3193DEF6CF010895B2
:10196000462F4770405D4193B3E00FD0C9F7F6CFE3
:10197000462F4F70405D4A3318F0495D31FD4052AB
:10198000419302D0A9F7EACFB4E0A6959795879541
:1019900077956795BA95C9F7009761057105089520
:1019A0009B01AC010A2E06945795479537952795CC
:1019B000BA95C9F7620F731F841F951FA01D089564
:1019C0002F923F924F925F926F927F928F929F924F
:1019D000AF92BF92CF92DF92EF92FF920F931F933D
:1019E000CF93DF93CDB7DEB7CA1BDB0B0FB6F894EE
:1019F000DEBF0FBECDBF09942A88398848885F842E
:101A00006E847D848C849B84AA84B984C884DF809E
:101A1000EE80FD800C811B81AA81B981CE0FD11D82
:101A20000FB6F894DEBF0FBECDBFED010895A1E261
:101A30001A2EAA1BBB1BFD010DC0AA1FBB1FEE1F48
:101A4000FF1FA217B307E407F50720F0A21BB30B93
:101A5000E40BF50B661F771F881F991F1A9469F70F
:101A600060957095809590959B01AC01BD01CF016B
:101A700008950024A7FD00942A173005400550055D
:101A800060057005800590050895EE0FFF1F059015
:101A9000F491E02D099481E090E0F8940C94500DBD
:041AA000F894FFCFE8
:101AA4000000DD018000000000000A027301A201B1
:0C1AB4005102D301B101C5010D0A000070
:00000001FF
