:100000000C946B000C944C040C9425040C949300F9
:100010000C9493000C9493000C9493000C94930014
:100020000C9493000C9493000C9493000C94930004
:100030000C9493000C9493000C9493000C949300F4
:100040000C94DB030C9493000C94A9030C9483038D
:100050000C9493000C9493000C9493000C949300D4
:100060000C9493000C9493000000000025002800DD
:100070002B0000000008000201000003040700003C
:1000800000000000000000000000240027002A00FB
:100090000001020304051112131415160A0B0C0DAE
:1000A0000E0F0000000023002600290004040404B1
:1000B0000404040402020202020203030303030312
:1000C00001020408102040800102040810200102EF
:1000D00004081020730411241FBECFEFD8E0DEBF48
:1000E000CDBF11E0A0E0B1E0E2EFF1E102C0059088
:1000F0000D92A833B107D9F722E0A8E3B1E001C01F
:100100001D92AE30B207E1F710E0CBE6D0E004C0BC
:100110002197FE010E94EC08CA36D107C9F70E9458
:10012000FC040C94F7080C940000CF92DF92EF923D
:10013000FF920F931F93CF93DF936C017A018B0192
:10014000C0E0D0E0CE15DF0589F0D8016D918D01BA
:10015000D601ED91FC910190F081E02DC601099549
:10016000892B11F47E0102C02196ECCFC701DF91EB
:10017000CF911F910F91FF90EF90DF90CF90089556
:10018000FC01918D828D981761F0828DDF01A80F9F
:10019000B11D5D968C91928D9F5F9F73928F90E0C1
:1001A00008958FEF9FEF0895FC01918D828D981730
:1001B00031F0828DE80FF11D858D90E008958FEF6D
:1001C0009FEF0895FC01918D228D892F90E0805C36
:1001D0009F4F821B91098F739927089589E491E0BD
:1001E0000E94E20021E0892B09F420E0822F08958B
:1001F000FC01848DDF01A80FB11DA35ABF4F2C91C4
:10020000848D90E001968F739927848FA689B78992
:100210002C93A089B1898C9180648C93938D848D6B
:10022000981306C00288F389E02D80818F7D80833A
:100230000895EF92FF920F931F93CF93DF93EC01FA
:1002400081E0888F9B8D8C8D981305C0E889F98992
:10025000808185FD24C0F62E0B8D10E00F5F1F4FAF
:100260000F731127E02E8C8DE8120CC00FB607FC1F
:10027000FACFE889F989808185FFF5CFCE010E9408
:10028000F800F1CF8B8DFE01E80FF11DE35AFF4F0F
:10029000F0820B8FEA89FB898081806207C0EE893A
:1002A000FF896083E889F98980818064808381E0A7
:1002B00090E0DF91CF911F910F91FF90EF90089503
:1002C000CF93DF93EC01888D8823C9F0EA89FB89FD
:1002D000808185FD05C0A889B9898C9186FD0FC0F4
:1002E0000FB607FCF5CF808185FFF2CFA889B989C9
:1002F0008C9185FFEDCFCE010E94F800E7CFDF9112
:10030000CF91089580E090E0892B29F00E94EE00C3
:1003100081110C940000089590E0FC01EE58FF4F0D
:100320003491FC01E054FF4F2491FC01E455FF4F50
:10033000E491EE2309F43BC0332339F1333091F0DB
:1003400038F43130A9F0323001F584B58F7D12C018
:10035000373091F03830A1F03430B9F4809180001A
:100360008F7D03C0809180008F77809380000DC0C7
:1003700084B58F7784BD09C08091B0008F7703C0AA
:100380008091B0008F7D8093B000F0E0EE0FFF1FF2
:10039000E859FF4FA591B4918FB7F894EC91611192
:1003A00003C020952E2301C02E2B2C938FBF0895C0
:1003B000CF93DF9390E0FC01E054FF4F2491FC01C8
:1003C000E455FF4F8491882361F190E0880F991FD5
:1003D000FC01EA57FF4FC591D491FC01E859FF4F4A
:1003E000A591B491611109C09FB7F89488812095B7
:1003F00082238883EC912E230BC0623061F49FB777
:10040000F8943881822F809583238883EC912E2B5A
:100410002C939FBF06C08FB7F894E8812E2B2883BA
:100420008FBFDF91CF9108953FB7F89480913D0140
:1004300090913E01A0913F01B091400126B5A89B4B
:1004400005C02F3F19F00196A11DB11D3FBFBA2F66
:10045000A92F982F8827820F911DA11DB11DBC01C6
:10046000CD0142E0660F771F881F991F4A95D1F78B
:10047000089508958EBD00000DB407FEFDCF8EB522
:100480000895CF93C82F682F89E491E00E94190145
:100490008C2FCC0F990BCF9108959CB59F7D9CBD5F
:1004A0009CB5937F9CBD9CB59C7F9CBD9DB59E7F5C
:1004B0009DBD682F8091E7010C948C011F93CF9311
:1004C000DF931F92CDB7DEB7182F80E090E06983ED
:1004D0000E944D02812F8F7180620E943A02182F74
:1004E0006981862F0E943A0281E090E00E944D02CD
:1004F000812F0F90DF91CF911F91089560E787E0E2
:100500000E945E0285FB222720F984FB992790F93F
:1005100086FB882780F920934201909347018093BE
:1005200048010895CF93C82F80E090E00E944D02CB
:100530008C2F8F710E943A028FEF0E943A02C82FCF
:1005400081E090E00E944D028C2FCF91089586E0CB
:100550000E949202682F666086E00C945E020F9300
:100560001F93CF938C0186E00E9492021092E801C3
:10057000C82FC77D0230110511F4C06207C00130D9
:10058000110521F481E08093E801C8606C2F86E0BA
:100590000E945E0286E00E9492028C1721F0109267
:1005A000E80180E001C081E0CF911F910F91089593
:1005B000CF9380E090E00E944D0281EE0E943A02CB
:1005C000C82F81E090E00E944D028C2FCF910895BA
:1005D000CF9380E090E00E944D0282EE0E943A02AA
:1005E000C82F81E090E00E944D028C2FCF9108959A
:1005F000EF92FF920F931F93CF93DF9300D0CDB76D
:10060000DEB7082F162F80E090E049837A830E949E
:100610004D02802F8F7180620E943A02082FE12ED6
:100620007A81F72E4981140F1E1531F0F70181915F
:100630007F010E943A02F8CF81E090E00E944D02D3
:10064000802F0F900F90DF91CF911F910F91FF900E
:10065000EF900895009769F0FC0101900020E9F700
:100660003197AF01481B590BBC0189E491E00C9410
:10067000950080E090E00895CF92DF92EF92FF9294
:100680000F931F93CF93DF93CDB7DEB7A1970FB62C
:10069000F894DEBF0FBECDBF282F30E040E050E021
:1006A00019A28E010F5D1F4F8AE0C82ED12CE12CBC
:1006B000F12CCA01B901A70196010E94BE08605D34
:1006C000F80162938F01211531054105510589F724
:1006D000CF010E942A038C018AE191E00E942A0343
:1006E000800F911FA1960FB6F894DEBF0FBECDBF4D
:1006F000DF91CF911F910F91FF90EF90DF90CF90FE
:1007000008950E94F2081F920F920FB60F921124C3
:100710002F933F934F935F936F937F938F939F9309
:10072000AF93BF93EF93FF9389E491E00E94F800A9
:10073000FF91EF91BF91AF919F918F917F916F91B9
:100740005F914F913F912F910F900FBE0F901F908F
:1007500018951F920F920FB60F9211242F938F931B
:100760009F93EF93FF93E0915901F0915A0180819B
:10077000E0915F01F091600182FD12C09081809153
:1007800062018F5F8F7320916301821751F0E091B6
:100790006201F0E0E75BFE4F958F8093620101C03C
:1007A0008081FF91EF919F918F912F910F900FBEBC
:1007B0000F901F9018951F920F920FB60F92112451
:1007C0002F933F938F939F93AF93BF938091390162
:1007D00090913A01A0913B01B0913C0130913801D8
:1007E00023E0230F2D3720F40196A11DB11D05C074
:1007F00026E8230F0296A11DB11D20933801809396
:10080000390190933A01A0933B01B0933C01809150
:100810003D0190913E01A0913F01B09140010196B0
:10082000A11DB11D80933D0190933E01A0933F0116
:10083000B0934001BF91AF919F918F913F912F91C4
:100840000F900FBE0F901F9018951F920F920FB62A
:100850000F9211242F933F934F935F936F937F9346
:100860008F939F93AF93BF93EF93FF93E091020118
:10087000F09103010995FF91EF91BF91AF919F9185
:100880008F917F916F915F914F913F912F910F9039
:100890000FBE0F901F9018951F920F920FB60F92D8
:1008A00011242F933F934F935F936F937F938F9375
:1008B0009F93AF93BF93EF93FF93E0910001F0916B
:1008C00001010995FF91EF91BF91AF919F918F9198
:1008D0007F916F915F914F913F912F910F900FBE3C
:1008E0000F901F90189510924C0110924B0188EEBA
:1008F00093E0A0E0B0E080934D0190934E01A0936F
:100900004F01B09350018EE091E090934A018093A3
:10091000490185EC90E0909356018093550184EC59
:1009200090E0909358018093570180EC90E0909371
:100930005A018093590181EC90E090935C0180937F
:100940005B0182EC90E090935E0180935D0186EC08
:1009500090E09093600180935F0110926201109289
:100960006301109264011092650160E083E00E94CF
:10097000D801E3ECF0E0E491E093F601EFEAF0E077
:10098000E491F0E0EE0FFF1FEE55FF4F859194913B
:100990009093F8018093F7011092010210920302E4
:1009A00010920202E1E0F2E0129281E0E93FF807E2
:1009B000D9F789E08093E6018AE08093E70181E03E
:1009C0008093E8011092E90180E28093EA0110929D
:1009D000EB011092EC011092EE011092EF011092D7
:1009E000F0011092F1011092F2011092F3011092B5
:1009F000F4011092F5010895CF93DF93CDB7DEB7E0
:100A000063970FB6F894DEBF0FBECDBF789484B560
:100A1000826084BD84B5816084BD85B5826085BDFA
:100A200085B5816085BD80916E00816080936E0088
:100A3000109281008091810082608093810080917A
:100A4000810081608093810080918000816080932B
:100A500080008091B10084608093B1008091B000EB
:100A600081608093B00080917A00846080937A00E6
:100A700080917A00826080937A0080917A00816010
:100A800080937A0080917A00806880937A00109237
:100A9000C100E0915901F0915A0182E08083E09118
:100AA0005901F0915A011082E0915501F0915601DF
:100AB0001082E0915701F091580180E180831092FB
:100AC0006101E0915D01F0915E0186E08083E0913B
:100AD0005B01F0915C01808180618083E0915B012A
:100AE000F0915C01808188608083E0915B01F091EE
:100AF0005C01808180688083E0915B01F0915C0102
:100B000080818F7D808360E070E081E492E00E94CC
:100B1000230761E08091E6010E94D80161E08091A5
:100B2000E7010E94D8011FB7F8948091410181111B
:100B300027C0E6EBF0E08491EAECF0E09491E82F36
:100B4000F0E0EE0FFF1FEA57FF4FA591B491EC9133
:100B5000E92321F461E08AE00E948C0161E08AE0EF
:100B60000E94D8018CB580618CBD8CB580648CBD31
:100B700061E08DE00E94D80161E08BE00E94D80125
:100B8000809141018F5F809341011FBF60E08091A0
:100B9000E6010E948C0181E090E00E944D020E94DB
:100BA00014024B015C0185E0C82ED12CE12CF12C04
:100BB0000E941402DC01CB0188199909AA09BB091A
:100BC000883E9340A105B10558F021E0C21AD10832
:100BD000E108F10888EE880E83E0981EA11CB11C84
:100BE000C114D104E104F10419F76FE484E00E9418
:100BF0005E020E94A70282E090E00E94AF0288237A
:100C000019F081E08093E90180E090E00E94AF025A
:100C100080E00E949202682F6C6080E00E945E0279
:100C200060E08CE10E945E0260E787E00E945E0265
:100C30006CE485E00E945E020E94E8020E94D802F5
:100C400060E081E00E945E0282E090E00E94AF02DC
:100C50006CE485E00E945E020E94A70282EE898712
:100C600080EF8A878B878C878D871E861F86188AE0
:100C700045E0BE01675F7F4F8AE00E94F80245E0D1
:100C8000BE01675F7F4F80E10E94F8026091EA0138
:100C9000613208F060E281E10E945E0281EE8983A8
:100CA00080EF8A838B838C838D831E821F821886BC
:100CB000EDE9F0E0849145E0BE016F5F7F4F0E9457
:100CC000F802E7E9F0E084916091EA010E945E0297
:100CD00082E00E949202E1E9F0E0E49161E070E0DC
:100CE00001C0660FEA95EAF7682B82E00E945E0277
:100CF00080E00E949202682F636080E00E945E02A2
:100D000060E787E00E945E022091EE013091EF01E2
:100D10004091F0015091F1016091F2017091F30165
:100D20008091F4019091F501A0E00E94E00831F07B
:100D300045E06EEE71E08AE00E94F8020E94E8024F
:100D40000E94D80261E08091E6010E948C0183E05C
:100D500092E00197F1F78EE792E090930101809382
:100D60000001809169008C7F826080936900E89A1D
:100D700080914801882309F445C01091EA01012FB0
:100D8000143008F003E08091EC01811102C0101BC7
:100D900001C010E080E090E00E944D0281E60E94D8
:100DA0003A02CE0141967C01015038F08FEF0E944B
:100DB0003A02F70181937F01F7CF112329F08FEFDA
:100DC0000E943A021150F9CF81E090E00E944D025A
:100DD00087E10E9492028DE191E00E942A038989B5
:100DE0000E943C0382E291E00E942A038A890E94C9
:100DF0003C038CE291E00E942A038B890E943C0311
:100E000010924801809147018823A9F01092470170
:100E10008091430190914401A0914501B091460118
:100E20000196A11DB11D8093430190934401A093AD
:100E30004501B09346018091420181111092420117
:100E40000E94820195CF0F931F93CF93DF9300975A
:100E500031F46115710519F480E090E03AC08B011E
:100E6000EC016EE070E081E090E00E946E07FC0112
:100E7000892B91F380E883830115110571F01387A5
:100E8000028781E883838091040290910502892B77
:100E900021F4F0930502E09304022097C9F0D18772
:100EA000C0878381826083838091060290910702CC
:100EB000892B71F4F0930702E093060280910802F7
:100EC00090910902892B21F4F0930902E093080222
:100ED000CF01DF91CF911F910F9108950F931F9331
:100EE000CF93DF93869F8001879F100D969F100DF3
:100EF0001124C8010E948A07EC01009729F0A8017B
:100F000060E070E00E94B708CE01DF91CF911F91A1
:100F10000F910895CF93DF938230910510F482E012
:100F200090E0E0910C02F0910D0220E030E0C0E092
:100F3000D0E0309711F14081518148175907C0F036
:100F40004817590761F482819381209719F09B8398
:100F50008A832BC090930D0280930C0226C021152A
:100F6000310519F04217530718F49A01BE01DF0149
:100F7000EF010280F381E02DDCCF2115310509F16D
:100F8000281B390B2430310590F412968D919C91D9
:100F900013976115710521F0FB019383828304C0CF
:100FA00090930D0280930C02FD01329644C0FD0126
:100FB000E20FF31F81939193225031092D933C93BB
:100FC0003AC020910A0230910B02232B41F4209168
:100FD00006013091070130930B0220930A02209101
:100FE0000401309105012115310541F42DB73EB7BB
:100FF0004091080150910901241B350BE0910A0230
:10100000F0910B02E217F307A0F42E1B3F0B2817F9
:10101000390778F0AC014E5F5F4F2417350748F071
:101020004E0F5F1F50930B0240930A0281939193DE
:1010300002C0E0E0F0E0CF01DF91CF9108950F937F
:101040001F93CF93DF93009709F48CC0FC01329774
:101050001382128200910C0210910D0201151105EC
:1010600081F420813181820F931F20910A023091F7
:101070000B022817390779F5F0930B02E0930A0267
:1010800071C0D80140E050E0AE17BF0750F412968F
:101090002D913C911397AD012115310509F1D9012D
:1010A000F3CF9D01DA013383228360817181860F42
:1010B000971F8217930769F4EC0128813981260F65
:1010C000371F2E5F3F4F318320838A819B8193831B
:1010D0008283452B29F4F0930D02E0930C0242C069
:1010E0001396FC93EE931297ED01499159919E014D
:1010F000240F351FE217F30771F480819181840F6B
:10110000951F029611969C938E93828193811396DC
:101110009C938E931297E0E0F0E0D80112968D91A7
:101120009C911397009719F0F8018C01F6CF8D91DF
:101130009C9198012E5F3F4F820F931F20910A02CE
:1011400030910B022817390769F4309729F410926F
:101150000D0210920C0202C01382128210930B0235
:1011600000930A02DF91CF911F910F910895DC0146
:1011700001C06D9341505040E0F70895A1E21A2E4E
:10118000AA1BBB1BFD010DC0AA1FBB1FEE1FFF1F2B
:10119000A217B307E407F50720F0A21BB30BE40B7B
:1011A000F50B661F771F881F991F1A9469F76095C2
:1011B0007095809590959B01AC01BD01CF0108957C
:1011C0000024A7FD00942A1730054005500560054E
:1011D0007005800590050895EE0FFF1F0590F491AE
:1011E000E02D099481E090E0F8940C94F708F894CD
:0211F000FFCF2F
:1011F2003902390200000E028000000000001901CD
:101202009500E200C000D40060010D0A0069643A52
:101212002000436F6D6D616E643A2000506172610F
:081222006D6574723A200000B2
:107800000C94343C0C94513C0C94513C0C94513CE1
:107810000C94513C0C94513C0C94513C0C94513CB4
:107820000C94513C0C94513C0C94513C0C94513CA4
:107830000C94513C0C94513C0C94513C0C94513C94
:107840000C94513C0C94513C0C94513C0C94513C84
:107850000C94513C0C94513C0C94513C0C94513C74
:107860000C94513C0C94513C11241FBECFEFD8E036
:10787000DEBFCDBF11E0A0E0B1E0ECE9FFE702C060
:1078800005900D92A230B107D9F712E0A2E0B1E065
:1078900001C01D92AD30B107E1F70E942D3D0C945F
:1078A000CC3F0C94003C982F959595959595959582
:1078B000905D8F708A307CF0282F295A8091C0000B
:1078C00085FFFCCF9093C6008091C00085FFFCCF60
:1078D0002093C6000895282F205DF0CF982F809127
:1078E000C00085FFFCCF9093C6000895EF92FF92F1
:1078F0000F931F93EE24FF2487018091C00087FD22
:1079000017C00894E11CF11C011D111D81E4E8164B
:1079100082E4F8068FE0080780E0180770F3E09132
:107920000401F091050109958091C00087FFE9CF1E
:107930008091C6001F910F91FF90EF9008950E94D3
:10794000763C982F8091C00085FFFCCF9093C600B5
:1079500091362CF490330CF09053892F089597555D
:10796000892F08951F930E949F3C182F0E949F3CCF
:107970001295107F810F1F9108951F93182F882350
:1079800021F00E94763C1150E1F71F9108951F935A
:10799000182F0E94763C803249F0809103018F5F5E
:1079A000809303018530C1F01F9108958091C0003C
:1079B00085FFFCCF84E18093C6008091C00085FFE5
:1079C000FCCF1093C6008091C00085FFFCCF80E102
:1079D0008093C6001F910895E0910401F091050184
:1079E00009951F9108950E94763C803241F0809164
:1079F00003018F5F80930301853081F008958091AA
:107A0000C00085FFFCCF84E18093C6008091C00058
:107A100085FFFCCF80E18093C6000895E0910401CA
:107A2000F09105010995089540E951E08823A1F0FE
:107A30002D9A28EE33E0FA013197F1F721503040CA
:107A4000D1F72D9828EE33E0FA013197F1F7215064
:107A50003040D1F7815061F708953F924F925F9285
:107A60006F927F928F929F92AF92BF92CF92DF924E
:107A7000EF92FF920F931F93CF93DF93000080E16B
:107A80008093C4001092C50088E18093C10086E015
:107A90008093C2005098589A259A81E00E94143D24
:107AA00024E1F22E9EE1E92E85E9D82E0FE0C02ECA
:107AB00010E1B12EAA24A394B1E49B2EA6E58A2E50
:107AC000F2E57F2EE0E26E2E79E4572E63E5462E36
:107AD00050E5352E0E94763C8033B1F18133B9F107
:107AE000803409F46FC0813409F476C0823409F41B
:107AF00085C0853409F488C0803531F1823521F1A3
:107B0000813511F1853509F485C0863509F48DC0BC
:107B1000843609F496C0843709F403C1853709F423
:107B200072C1863709F466C0809103018F5F80932C
:107B30000301853079F6E0910401F0910501099582
:107B40000E94763C803351F60E94F33CC3CF0E94E2
:107B5000763C803249F78091C00085FFFCCFF092DF
:107B6000C6008091C00085FFFCCF9092C600809136
:107B7000C00085FFFCCF8092C6008091C00085FFC9
:107B8000FCCF7092C6008091C00085FFFCCF609250
:107B9000C6008091C00085FFFCCF5092C600809146
:107BA000C00085FFFCCF4092C6008091C00085FFD9
:107BB000FCCF3092C6008091C00085FFFCCFB09210
:107BC000C60088CF0E94763C863808F4BDCF0E945C
:107BD000763C0E94F33C7ECF0E94763C803809F4CC
:107BE0009CC0813809F40BC1823809F43CC1883942
:107BF00009F48FC080E00E94C73C6CCF84E10E94F2
:107C0000BD3C0E94F33C66CF85E00E94BD3C0E94D3
:107C1000F33C60CF0E94763C809306010E94763C44
:107C2000809307010E94F33C55CF0E94763C80333D
:107C300009F41DC183E00E94BD3C80E00E94C73C66
:107C400049CF0E94763C809309020E94763C809343
:107C5000080280910C028E7F80930C020E94763C79
:107C6000853409F415C18091080290910902892B8D
:107C700089F000E010E00E94763CF801E85FFE4FDA
:107C800080830F5F1F4F80910802909109020817AF
:107C9000190788F30E94763C803209F045CF809125
:107CA0000C0280FF01C16091060170910701660F0F
:107CB000771F7093070160930601A0910802B091AD
:107CC00009021097C9F0E8E0F1E09B01AD014E0F09
:107CD0005F1FF999FECF32BD21BD819180BDFA9A17
:107CE000F99A2F5F3F4FE417F50799F76A0F7B1F4B
:107CF00070930701609306018091C00085FFFCCF5F
:107D0000F092C6008091C00085FFFCCFB092C60003
:107D1000E1CE83E00E94C73CDDCE82E00E94C73CFA
:107D2000D9CE0E94763C809309020E94763C8093D3
:107D300008028091060190910701880F991F909386
:107D40000701809306010E94763C853409F4A6C0A1
:107D500080910C028E7F80930C020E94763C8032D0
:107D600009F0B8CE8091C00085FFFCCFF092C6002C
:107D7000609108027091090261157105B9F140E046
:107D800050E080910C02A82FA170B82FB27011C0E2
:107D9000BB2309F45CC0E0910601F0910701319624
:107DA000F0930701E09306014F5F5F4F46175707B7
:107DB000E8F4AA2369F3F999FECF209106013091E6
:107DC000070132BD21BDF89A90B58091C00085FFB2
:107DD000FCCF9093C6002F5F3F4F30930701209355
:107DE00006014F5F5F4F4617570718F38091C00099
:107DF00085FDE5CE8091C00085FFF8CFE0CE81E023
:107E00000E94C73C67CE0E94763C803209F08CCE3F
:107E10008091C00085FFFCCFF092C6008091C00029
:107E200085FFFCCFE092C6008091C00085FFFCCFAB
:107E3000D092C6008091C00085FFFCCFC092C600E2
:107E40008091C00085FFFCCFB092C60043CEE09188
:107E50000601F091070194918091C00085FFFCCF4D
:107E60009093C6009CCF80E10E94C73C33CE0E9415
:107E7000763C0E94763C182F0E94763C112309F430
:107E800083C0113009F484C08FE00E94C73C22CE29
:107E900080910C02816080930C02E5CE80910C02EF
:107EA000816080930C0259CF809107018823880F4D
:107EB000880B8A2180930B02809106019091070123
:107EC000880F991F90930701809306018091080203
:107ED00080FF09C080910802909109020196909359
:107EE000090280930802F894F999FECF1127E091D6
:107EF0000601F0910701C8E0D1E08091080290915D
:107F00000902103091F40091570001700130D9F34B
:107F100003E000935700E89500915700017001308D
:107F2000D9F301E100935700E89509901990009169
:107F3000570001700130D9F301E000935700E89534
:107F40001395103498F011270091570001700130FB
:107F5000D9F305E000935700E895009157000170B0
:107F60000130D9F301E100935700E895329602976A
:107F700009F0C7CF103011F00296E5CF112480919F
:107F8000C00085FFB9CEBCCE8EE10E94C73CA2CD19
:0C7F900085E90E94C73C9ECDF894FFCF0D
:027F9C00800063
:040000030000780081
:00000001FF