:100000000C942F010C9457010C9457010C94570138
:100010000C9457010C9457010C9457010C94570100
:100020000C9457010C9457010C9457010C945701F0
:100030000C9457010C9457010C9457010C945701E0
:100040000C9408050C9457010C94D6040C94B0043D
:100050000C9457010C9457010C9457010C945701C0
:100060000C9457010C94570150415F484947480090
:100070004C415F4D45440050415F4C4F570050414B
:100080005F4D494E0031362062697473003820623A
:100090006974730044697361626C6564006E5246F2
:1000A00032344C30312B006E524632344C303100F9
:1000B0003235304B42505300324D42505300314D97
:1000C0004250530000000000250028002B000000D3
:1000D0000008000201000003040700000000000007
:1000E000000000000000240027002A000001020395
:1000F00004051112131415160A0B0C0D0E0F535490
:10010000415455530909203D20307825303278205C
:1001100052585F44523D25782054585F44533D2542
:1001200078204D41585F52543D25782052585F50F9
:100130005F4E4F3D25782054585F46554C4C3D2529
:10014000780D0A00504120506F77657209203D20DC
:1001500025530D0A007E007700700068004352436B
:10016000204C656E67746809203D2025530D0A00F8
:1001700094008D0085004D6F64656C0909203D2059
:1001800025530D0A00A7009D00446174612052614F
:10019000746509203D2025530D0A00BE00B800B04B
:1001A0000044594E50442F46454154555245004352
:1001B0004F4E4649470052465F53455455500052F2
:1001C000465F434800454E5F525841444452004503
:1001D0004E5F41410052585F50575F50302D3600FE
:1001E00054585F414444520052585F414444525F66
:1001F00050322D350052585F414444525F50302DEB
:1002000031000D0A00253032780020307800255367
:10021000092563203D000D0A002030782530327812
:10022000002553092563203D00000000002300261F
:10023000002900040404040404040402020202026B
:10024000020303030303030102040810204080019A
:100250000204081020010204081020005205112495
:100260001FBECFEFD8E0DEBFCDBF11E0A0E0B1E010
:10027000ECECFAE102C005900D92AA31B107D9F772
:1002800021E0AAE1B1E001C01D92AC3EB207E1F766
:1002900011E0CFE2D1E004C02197FE010E94590D88
:1002A000CE32D107C9F70E94DB050C94640D0C9483
:1002B0000000CF92DF92EF92FF920F931F93CF93A4
:1002C000DF936C017A018B01C0E0D0E0CE15DF0531
:1002D00089F0D8016D918D01D601ED91FC910190CD
:1002E000F081E02DC6010995892B11F47E0102C031
:1002F0002196ECCFC701DF91CF911F910F91FF9015
:10030000EF90DF90CF900895FC01918D828D98172A
:1003100061F0828DDF01A80FB11D5D968C91928DE9
:100320009F5F9F73928F90E008958FEF9FEF0895E6
:10033000FC01918D828D981731F0828DE80FF11DAF
:10034000858D90E008958FEF9FEF0895FC01918DCA
:10035000228D892F90E0805C9F4F821B91098F73C3
:100360009927089587E291E00E94A60121E0892B58
:1003700009F420E0822F0895FC01848DDF01A80F8D
:10038000B11DA35ABF4F2C91848D90E001968F73BD
:100390009927848FA689B7892C93A089B1898C91DC
:1003A00080648C93938D848D981306C00288F389A2
:1003B000E02D80818F7D80830895EF92FF920F93CF
:1003C0001F93CF93DF93EC0181E0888F9B8D8C8D01
:1003D000981305C0E889F989808185FD24C0F62E2F
:1003E0000B8D10E00F5F1F4F0F731127E02E8C8DC8
:1003F000E8120CC00FB607FCFACFE889F9898081B2
:1004000085FFF5CFCE010E94BC01F1CF8B8DFE019F
:10041000E80FF11DE35AFF4FF0820B8FEA89FB8949
:100420008081806207C0EE89FF896083E889F9894D
:1004300080818064808381E090E0DF91CF911F9183
:100440000F91FF90EF900895CF93DF93EC01888D8B
:100450008823C9F0EA89FB89808185FD05C0A889C8
:10046000B9898C9186FD0FC00FB607FCF5CF80814E
:1004700085FFF2CFA889B9898C9185FFEDCFCE0198
:100480000E94BC01E7CFDF91CF91089580E090E01A
:10049000892B29F00E94B20181110C94000008956B
:1004A00090E0FC01E253FF4F3491FC01E95BFD4F0A
:1004B0002491FC01ED5CFD4FE491EE2309F43BC077
:1004C000332339F1333091F038F43130A9F0323040
:1004D00001F584B58F7D12C0373091F03830A1F02E
:1004E0003430B9F4809180008F7D03C0809180000A
:1004F0008F77809380000DC084B58F7784BD09C04D
:100500008091B0008F7703C08091B0008F7D809381
:10051000B000F0E0EE0FFF1FEC53FF4FA591B49138
:100520008FB7F894EC91611103C020952E2301C080
:100530002E2B2C938FBF0895CF93DF9390E0FC0177
:10054000E95BFD4F2491FC01ED5CFD4F8491882314
:1005500061F190E0880F991FFC01EE51FF4FC591AA
:10056000D491FC01EC53FF4FA591B491611109C0E6
:100570009FB7F8948881209582238883EC912E235D
:100580000BC0623061F49FB7F8943881822F809558
:1005900083238883EC912E2B2C939FBF06C08FB7AB
:1005A000F894E8812E2B28838FBFDF91CF91089597
:1005B0003FB7F8948091220190912301A0912401EA
:1005C000B091250126B5A89B05C02F3F19F00196D3
:1005D000A11DB11D3FBFBA2FA92F982F8827820FC9
:1005E000911DA11DB11DBC01CD0142E0660F771F19
:1005F000881F991F4A95D1F708958EBD00000DB44C
:1006000007FEFDCF8EB50895CF93C82F682F87E2E0
:1006100091E00E94DD018C2FCC0F990BCF910895B2
:100620009CB59F7D9CBD9CB5937F9CBD9CB59C7FDC
:100630009CBD9DB59E7F9DBD682F8091C5010C948A
:100640005002CF93C82F80E090E00E9410038C2FBF
:100650008F710E94FD028FEF0E94FD02C82F81E082
:1006600090E00E9410038C2FCF9108951F93CF9399
:10067000DF931F92CDB7DEB7182F80E090E069833B
:100680000E941003812F8F7180620E94FD02182F3B
:100690006981862F0E94FD0281E090E00E94100394
:1006A000812F0F90DF91CF911F91089586E00E94D6
:1006B0002103682F666086E00C9436030F931F9326
:1006C000CF938C0186E00E9421031092C601C82FAF
:1006D000C77D0230110511F4C06207C00130110559
:1006E00021F481E08093C601C8606C2F86E00E94EF
:1006F000360386E00E9421038C1721F01092C60178
:1007000080E001C081E0CF911F910F910895CF93B8
:1007100080E090E00E94100381EE0E94FD02C82F4D
:1007200081E090E00E9410038C2FCF910895CF9329
:1007300080E090E00E94100382EE0E94FD02C82F2C
:1007400081E090E00E9410038C2FCF910895EF92EA
:10075000FF920F931F93CF93DF9300D0CDB7DEB7F7
:10076000082F162F80E090E049837A830E941003BF
:10077000802F8F7180620E94FD02082FE12E7A8106
:10078000F72E4981140F1E1531F0F70181917F0179
:100790000E94FD02F8CF81E090E00E941003802FBC
:1007A0000F900F90DF91CF911F910F91FF90EF90DD
:1007B0000895FF920F931F93CF93DF93182F092F64
:1007C000C62FD42F0E94CE08089710F080E001C0F9
:1007D00089E01F928F930F931F9381E292E09F9382
:1007E0008F930E942209DC0F0F900F900F900F90B3
:1007F0000F900F9009E112E0CD1791F0FF24F394D0
:10080000FC0E8C2F0E9421031F928F931F930F9336
:100810000E9422090F900F900F900F90CF2DECCFD8
:1008200086E192E09F938F930E9422090F900F9090
:10083000DF91CF911F910F91FF9008956F927F925A
:100840008F929F92AF92BF92CF92DF92EF92FF92E0
:100850000F931F93CF93DF9300D000D01F92CDB79B
:10086000DEB7F82EE92E162F042F0E94CE08089727
:1008700010F080E001C089E01F928F93EF92FF9209
:100880008EE092E09F938F930E942209010F0F90B8
:100890000F900F900F900F900F90CE0101967C015A
:1008A00085E0782E7E0C9AE0A92E92E0B92E25E004
:1008B000822E22E0922E1017A9F166246394610E15
:1008C00080E090E00E941003812F8F710E94FD0252
:1008D00067017C1439F08FEF0E94FD02F6018193CD
:1008E0006F01F7CF81E090E00E941003BF92AF92BA
:1008F0000E942209CE0106966C010F900F90CE1433
:10090000DF0471F0F60182916F011F928F939F9225
:100910008F920E9422090F900F900F900F90EFCFAF
:10092000162DC9CF82E092E09F938F930E942209F7
:100930000F900F900F900F900F900F900F90DF91EE
:10094000CF911F910F91FF90EF90DF90CF90BF90CC
:10095000AF909F908F907F906F9008950E945F0D51
:100960001F920F920FB60F9211242F933F934F9324
:100970005F936F937F938F939F93AF93BF93EF9307
:10098000FF9387E291E00E94BC01FF91EF91BF913C
:10099000AF919F918F917F916F915F914F913F9117
:1009A0002F910F900FBE0F901F9018951F920F92CE
:1009B0000FB60F9211242F938F939F93EF93FF9372
:1009C000E0913701F09138018081E0913D01F09193
:1009D0003E0182FD12C09081809140018F5F8F7334
:1009E00020914101821751F0E0914001F0E0E95D72
:1009F000FE4F958F8093400101C08081FF91EF9160
:100A00009F918F912F910F900FBE0F901F9018956F
:100A10001F920F920FB60F9211242F933F938F9333
:100A20009F93AF93BF9380911E0190911F01A0915E
:100A30002001B091210130911D0123E0230F2D37BA
:100A400020F40196A11DB11D05C026E8230F0296D2
:100A5000A11DB11D20931D0180931E0190931F01C4
:100A6000A0932001B0932101809122019091230154
:100A7000A0912401B09125010196A11DB11D809383
:100A8000220190932301A0932401B0932501BF91EB
:100A9000AF919F918F913F912F910F900FBE0F902B
:100AA0001F90189510922A011092290188EE93E068
:100AB000A0E0B0E080932B0190932C01A0932D0136
:100AC000B0932E018AE091E0909328018093270152
:100AD00085EC90E0909334018093330184EC90E0B6
:100AE000909336018093350180EC90E0909338012B
:100AF0008093370181EC90E090933A018093390123
:100B000082EC90E090933C0180933B0186EC90E076
:100B100090933E0180933D0110924001109241015B
:100B2000109242011092430160E083E00E949C0217
:100B3000EAE4F2E0E491E093D401E6E3F2E0E49148
:100B4000F0E0EE0FFF1FE75DFD4F859194919093CC
:100B5000D6018093D5011092DF011092E10110922D
:100B6000E001EFEDF1E0129281E0E73DF807D9F7FF
:100B700089E08093C4018AE08093C50181E080937D
:100B8000C6011092C70180E28093C8011092C9018A
:100B90001092CA011092CC011092CD011092CE0198
:100BA0001092CF011092D0011092D1011092D20177
:100BB0001092D3010895CF93DF93CDB7DEB760973E
:100BC0000FB6F894DEBF0FBECDBF789484B58260B7
:100BD00084BD84B5816084BD85B5826085BD85B5E1
:100BE000816085BD80916E00816080936E0010925F
:100BF00081008091810082608093810080918100DA
:100C0000816080938100809180008160809380006A
:100C10008091B10084608093B1008091B0008160C8
:100C20008093B00080917A00846080937A008091F4
:100C30007A00826080937A0080917A00816080934C
:100C40007A0080917A00806880937A001092C100C7
:100C5000E0913701F091380182E08083E091370123
:100C6000F09138011082E0913301F091340110824B
:100C7000E0913501F091360180E1808310923F01CF
:100C8000E0913B01F0913C0186E08083E0913901E5
:100C9000F0913A01808180618083E0913901F09187
:100CA0003A01808188608083E0913901F0913A01B6
:100CB000808180688083E0913901F0913A018081E0
:100CC0008F7D808360E070E084E093E00E94D7082D
:100CD00061E08091C4010E949C0261E08091C501A5
:100CE0000E949C020FB7F89480912601811127C0C1
:100CF000EDE3F2E08491E1E5F2E09491E82FF0E099
:100D0000EE0FFF1FEE51FF4FA591B491EC91E92337
:100D100021F461E08AE00E94500261E08AE00E94D2
:100D20009C028CB580618CBD8CB580648CBD61E00B
:100D30008DE00E949C0261E08BE00E949C02809109
:100D400026018F5F809326010FBF60E08091C40170
:100D50000E94500281E090E00E9410030E94D8029D
:100D60004B015C0155E0C52ED12CE12CF12C0E94E9
:100D7000D802DC01CB0188199909AA09BB09883E70
:100D80009340A105B10558F021E0C21AD108E1084D
:100D9000F10838EE830E33E0931EA11CB11CC11480
:100DA000D104E104F10419F76FE484E00E943603F2
:100DB0000E94560382E090E00E945E03882319F0AF
:100DC00081E08093C70180E090E00E945E0380E0B4
:100DD0000E942103682F6C6080E00E94360360E06F
:100DE0008CE10E94360360E787E00E9436036CE4E2
:100DF00085E00E9436030E9497030E94870360E00B
:100E000081E00E94360382E090E00E945E036CE481
:100E100085E00E9436030E94560382EE898780EFA8
:100E20008A878B878C878D871E861F86188A45E068
:100E3000BE01675F7F4F8AE00E94A70345E0BE01C5
:100E4000675F7F4F80E10E94A7036091C801613214
:100E500008F060E281E10E94360381EE898380EF31
:100E60008A838B838C838D831E821F821886E9EF91
:100E7000F0E0849145E0BE016F5F7F4F0E94A703C1
:100E8000E3EFF0E084916091C8010E94360382E0B4
:100E90000E942103EDEEF0E0E49161E070E001C01A
:100EA000660FEA95EAF7682B82E00E94360380E03D
:100EB0000E942103682F636080E00E94360360E790
:100EC00087E00E9436032091CC013091CD01409102
:100ED000CE015091CF016091D0017091D1018091EC
:100EE000D2019091D301A0E00E944D0D31F045E078
:100EF0006CEC71E08AE00E94A7030E9497030E94B5
:100F0000870361E08091C4010E94500283E092E077
:100F10000197F1F780E090E00E9410038FEF0E94AC
:100F2000FD02082F81E090E00E941003802F90E0E6
:100F3000202F21701F922F93959587958770992761
:100F40009F938F9304FB882780F91F928F9305FB53
:100F5000882780F91F928F9306FB882780F91F92BC
:100F60008F931F920F938EEF90E09F938F930E9429
:100F7000220942E06AE085EF91E00E941E0444E00D
:100F80006CE088EE91E00E94D90341E060E180EEE0
:100F900091E00E941E0446E061E185ED91E00E942F
:100FA000D90341E061E08FEC91E00E94D90341E078
:100FB00062E085EC91E00E94D90341E065E08FEBAF
:100FC00091E00E94D90341E066E086EB91E00E9447
:100FD000D90341E060E08FEA91E00E94D90342E04A
:100FE0006CE181EA91E00E94D90386E00E9421032E
:100FF00088720FB6F894DEBF0FBECDBF803241F0CD
:1010000021E090E0883009F020E0E22FF92F02C0C3
:10101000E2E0F0E0EE0FFF1FE556FE4F8591949160
:101020009F938F9389E891E09F938F930E94220969
:10103000E091C701F0E0EE0FFF1FEB57FE4F8591E7
:1010400094919F938F9386E791E09F938F930E9453
:10105000220980E00E9421030FB6F894DEBF0FBE84
:10106000CDBF83FF05C082FD06C0E1E0F0E005C012
:10107000E0E0F0E002C0E2E0F0E0EE0FFF1FE05938
:10108000FE4F859194919F938F938DE591E09F936F
:101090008F930E94220986E00E94210386700F90A0
:1010A0000F900F900F90863051F0843059F021E06E
:1010B00090E0823009F020E0E22FF92F05C0E3E054
:1010C000F0E002C0E2E0F0E0EE0FFF1FEB5AFE4F4F
:1010D000859194919F938F9384E491E09F938F9354
:1010E0000E9422090F900F900F900F9080E090E0E7
:1010F0000E9410038FEF0E94FD02082F81E090E014
:101100000E94100306FF25C060E487E00E943603BA
:1011100005FF22C060E287E00E9436031DC081E027
:1011200090E00E94100387E10E942103E0912701D3
:10113000F09128010190F081E02D612F87E291E08C
:10114000099542E050E066E171E087E291E00E949B
:1011500059010E944602CACF0091C801F02E002317
:1011600011F0FF24F3948091CA01811102C00F197C
:1011700001C000E080E090E00E94100381E60E9440
:10118000FD02FF2021F08FEF0E94FD02182F0023A7
:1011900031F28FEF0E94FD020150F9CFFC01059062
:1011A0000020E9F7809590958E0F9F1F08950F936B
:1011B0001F93CF93DF93009731F46115710519F4F4
:1011C00080E090E03AC08B01EC016EE070E081E0DD
:1011D00090E00E941A0BFC01892B91F380E8838335
:1011E0000115110571F01387028781E883838091CF
:1011F000E2019091E301892B21F4F093E301E09364
:10120000E2012097C9F0D187C08783818260838300
:101210008091E4019091E501892B71F4F093E5014F
:10122000E093E4018091E6019091E701892B21F49C
:10123000F093E701E093E601CF01DF91CF911F9199
:101240000F910895A0E0B0E0E8E2F9E00C94240DDD
:10125000AE01495F5F4FDA016D917D91AD0102EE04
:1012600011E0F80182819381DC0113962C91139790
:10127000286013962C930E944809D8011296ED918C
:10128000FC9113972381277F2383E4E00C94400D86
:10129000ACE0B0E0EEE4F9E00C94160D7C016B01DB
:1012A0008A01FC0117821682838181FFBDC1CE01B4
:1012B00001964C01F7019381F60193FD859193FF0F
:1012C00081916F01882309F4ABC1853239F493FD14
:1012D000859193FF81916F01853229F4B70190E0E8
:1012E0000E94800CE7CF512C312C20E02032A0F45A
:1012F0008B3269F030F4803259F0833269F4206126
:101300002CC08D3239F0803339F4216026C0226040
:10131000246023C0286021C027FD27C030ED380F8E
:101320003A3078F426FF06C0FAE05F9E300D1124B3
:10133000532E13C08AE0389E300D1124332E2062C4
:101340000CC08E3221F426FD6BC1206406C08C36A1
:1013500011F4206802C0883641F4F60193FD8591AE
:1013600093FF81916F018111C1CF982F9F7D95547B
:10137000933028F40C5F1F4FFFE3F9830DC08336D1
:1013800031F0833771F0833509F05BC022C0F8017A
:10139000808189830E5F1F4F44244394512C540154
:1013A00015C03801F2E06F0E711CF801A080B18009
:1013B00026FF03C0652D70E002C06FEF7FEFC5010F
:1013C0002C870E94750C2C0183012C852F77222EEF
:1013D00017C03801F2E06F0E711CF801A080B180D7
:1013E00026FF03C0652D70E002C06FEF7FEFC501DF
:1013F0002C870E94630C2C012C852068222E8301EF
:1014000023FC1BC0832D90E048165906B0F4B701A9
:1014100080E290E00E94800C3A94F4CFF50127FC22
:10142000859127FE81915F01B70190E00E94800CB9
:1014300031103A94F1E04F1A51084114510471F7F8
:10144000E5C0843611F0893639F5F80127FF07C069
:1014500060817181828193810C5F1F4F08C0608120
:101460007181072E000C880B990B0E5F1F4F2F7692
:10147000722E97FF09C090958095709561957F4F6A
:101480008F4F9F4F2068722E2AE030E0A4010E9407
:10149000B80CA82EA81844C0853729F42F7EB22E88
:1014A0002AE030E025C0F22FF97FBF2E8F36C1F041
:1014B00018F4883579F0B4C0803719F0883721F0F6
:1014C000AFC02F2F2061B22EB4FE0DC08B2D8460D3
:1014D000B82E09C024FF0AC09F2F9660B92E06C0FF
:1014E00028E030E005C020E130E002C020E132E039
:1014F000F801B7FE07C060817181828193810C5F22
:101500001F4F06C06081718180E090E00E5F1F4F29
:10151000A4010E94B80CA82EA818FB2DFF777F2EDF
:1015200076FE0BC0372D3E7FA51450F474FE0AC022
:1015300072FC08C0372D3E7E05C0BA2C372D03C083
:10154000BA2C01C0B52C34FF0DC0FE01EA0DF11D0F
:101550008081803311F4397E09C032FF06C0B39414
:10156000B39404C0832F867809F0B39433FD13C07D
:1015700030FF06C05A2CB31418F4530C5B18B32C6C
:10158000B31468F4B70180E290E03C870E94800CBD
:10159000B3943C85F5CFB31410F43B1801C0312C43
:1015A00034FF12C0B70180E390E03C870E94800CBA
:1015B0003C8532FF17C031FD03C088E790E002C0D0
:1015C00088E590E0B7010CC0832F867859F031FF91
:1015D00002C08BE201C080E237FD8DE2B70190E0EE
:1015E0000E94800CA51438F4B70180E390E00E94BB
:1015F000800C5A94F7CFAA94F401EA0DF11D808172
:10160000B70190E00E94800CA110F5CF332009F4BF
:1016100051CEB70180E290E00E94800C3A94F6CF60
:10162000F7018681978102C08FEF9FEF2C96E2E150
:101630000C94320D0F931F93CF93DF93869F8001FD
:10164000879F100D969F100D1124C8010E94360B24
:10165000EC01009729F0A80160E070E00E946E0C98
:10166000CE01DF91CF911F910F910895CF93DF931A
:101670008230910510F482E090E0E091EA01F0916F
:10168000EB0120E030E0C0E0D0E0309711F1408184
:10169000518148175907C0F04817590761F48281F2
:1016A0009381209719F09B838A832BC09093EB0141
:1016B0008093EA0126C02115310519F0421753071E
:1016C00018F49A01BE01DF01EF010280F381E02DE1
:1016D000DCCF2115310509F1281B390B24303105E8
:1016E00090F412968D919C9113976115710521F0DC
:1016F000FB019383828304C09093EB018093EA0102
:10170000FD01329644C0FD01E20FF31F81939193D6
:10171000225031092D933C933AC02091E801309139
:10172000E901232B41F42091020130910301309310
:10173000E9012093E8012091000130910101211578
:10174000310541F42DB73EB7409104015091050198
:10175000241B350BE091E801F091E901E217F30752
:10176000A0F42E1B3F0B2817390778F0AC014E5F11
:101770005F4F2417350748F04E0F5F1F5093E90164
:101780004093E8018193919302C0E0E0F0E0CF0143
:10179000DF91CF9108950F931F93CF93DF9300971D
:1017A00009F48CC0FC013297138212820091EA0185
:1017B0001091EB010115110581F420813181820F17
:1017C000931F2091E8013091E9012817390779F535
:1017D000F093E901E093E80171C0D80140E050E0E6
:1017E000AE17BF0750F412962D913C911397AD019F
:1017F0002115310509F1D901F3CF9D01DA013383B8
:10180000228360817181860F971F8217930769F485
:10181000EC0128813981260F371F2E5F3F4F31831E
:1018200020838A819B8193838283452B29F4F093C3
:10183000EB01E093EA0142C01396FC93EE931297FA
:10184000ED01499159919E01240F351FE217F307CD
:1018500071F480819181840F951F029611969C935B
:101860008E938281938113969C938E931297E0E0DE
:10187000F0E0D80112968D919C911397009719F082
:10188000F8018C01F6CF8D919C9198012E5F3F4F0E
:10189000820F931F2091E8013091E9012817390741
:1018A00069F4309729F41092EB011092EA0102C01A
:1018B000138212821093E9010093E801DF91CF9126
:1018C0001F910F910895FC01059061507040011027
:1018D000D8F7809590958E0F9F1F0895DC0101C069
:1018E0006D9341505040E0F70895FC016150704005
:1018F00001900110D8F7809590958E0F9F1F089545
:101900000F931F93CF93DF93FB01238121FD03C02E
:101910008FEF9FEF28C022FF16C046815781248198
:1019200035814217530744F4A081B1819D012F5F97
:101930003F4F318320838C93268137812F5F3F4F28
:101940003783268310C0EB01092F182F0084F185FF
:10195000E02D0995892BE1F68E819F8101969F8369
:101960008E83812F902FDF91CF911F910F9108953A
:10197000FA01AA27283051F1203181F1E8946F93C0
:101980006E7F6E5F7F4F8F4F9F4FAF4FB1E03ED066
:10199000B4E03CD0670F781F891F9A1FA11D680F04
:1019A000791F8A1F911DA11D6A0F711D811D911D37
:1019B000A11D20D009F468943F912AE0269F1124AC
:1019C0003019305D3193DEF6CF010895462F477010
:1019D000405D4193B3E00FD0C9F7F6CF462F4F706B
:1019E000405D4A3318F0495D31FD4052419302D0C9
:1019F000A9F7EACFB4E0A69597958795779567956F
:101A0000BA95C9F700976105710508959B01AC016E
:101A10000A2E06945795479537952795BA95C9F795
:101A2000620F731F841F951FA01D08952F923F9270
:101A30004F925F926F927F928F929F92AF92BF92DE
:101A4000CF92DF92EF92FF920F931F93CF93DF938A
:101A5000CDB7DEB7CA1BDB0B0FB6F894DEBF0FBEE7
:101A6000CDBF09942A88398848885F846E847D8434
:101A70008C849B84AA84B984C884DF80EE80FD8036
:101A80000C811B81AA81B981CE0FD11D0FB6F894AC
:101A9000DEBF0FBECDBFED0108950024A7FD009469
:101AA0002A17300540055005600570058005900532
:101AB0000895EE0FFF1F0590F491E02D099481E049
:0C1AC00090E0F8940C94640DF894FFCFB3
:101ACC000000EC01800000000000DD015901A601BE
:0A1ADC008401980124020D0A0000A5
:00000001FF
