:100000000C942A010C9452010C9452010C9452014C
:100010000C9452010C9452010C9452010C94520114
:100020000C9452010C9452010C9452010C94520104
:100030000C9452010C9452010C9452010C945201F4
:100040000C943E050C9452010C940C050C94E6049F
:100050000C9452010C9452010C9452010C945201D4
:100060000C9452010C94520150415F4D4158005084
:10007000415F484947480050415F4C4F570050414D
:100080005F4D494E0031362062697473003820623A
:100090006974730044697361626C6564006E5246F2
:1000A00032344C30312B006E524632344C303100F9
:1000B0003235304B42505300324D42505300314D97
:1000C0004250530000000008000201000003040732
:1000D00000000000000000001112131415160A0B96
:1000E0000C0D0E0F000102030405535441545553E7
:1000F0000909203D203078253032782052585F445D
:10010000523D25782054585F44533D2578204D4179
:10011000585F52543D25782052585F505F4E4F3DF6
:1001200025782054585F46554C4C3D25780D0A00E3
:10013000504120506F77657209203D2025530D0AEC
:10014000007E0077006F006800435243204C656ECC
:1001500067746809203D2025530D0A0094008D0026
:1001600085004D6F64656C0909203D2025530D0AFB
:1001700000A7009D004461746120526174650920EC
:100180003D2025530D0A00BE00B800B00044594E72
:1001900050442F4645415455524500434F4E464921
:1001A00047090052465F53455455500052465F433D
:1001B000480900454E5F52584144445200454E5F45
:1001C0004141090052585F50575F50302D3600545E
:1001D000585F41444452090052585F414444525FC1
:1001E00050322D350052585F414444525F50302DFB
:1001F000310000000000250028002B000000000056
:10020000240027002A000404040404040404020255
:100210000202020203030303030301020408102085
:1002200040800102040810200102040810200D0A79
:1002300000253032780020307800255309203D0019
:100240000D0A002030782530327800255309203DF2
:100250000000880511241FBECFEFD8E0DEBFCDBF60
:1002600011E0A0E0B1E0E8ECF9E102C005900D92E8
:10027000A631B107D9F721E0A6E1B1E001C01D9296
:10028000AD3DB207E1F711E0CAE2D1E004C0219729
:10029000FE010E94D70CC932D107C9F70E94CA05D6
:1002A0000C94E20C0C94000090E0FC01E65EFD4F23
:1002B0002491FC01EA5FFD4F8491882399F090E03E
:1002C000880F991FFC01E450FE4FA591B491FC01E9
:1002D000EE50FE4F859194918FB7F894EC91E22BFC
:1002E000EC938FBF0895CF92DF92EF92FF920F931E
:1002F0001F93CF93DF936C017A018B01C0E0D0E0B4
:10030000CE15DF0589F0D8016D918D01D601ED91F3
:10031000FC910190F081E02DC6010995892B11F423
:100320007E0102C02196ECCFC701DF91CF911F91D2
:100330000F91FF90EF90DF90CF900895FC01918D89
:10034000828D981761F0828DDF01A80FB11D5D9637
:100350008C91928D9F5F9F73928F90E008958FEFA5
:100360009FEF0895FC01918D828D981731F0828D59
:10037000E80FF11D858D90E008958FEF9FEF0895B0
:10038000FC01918D228D892F90E0805C9F4F821B14
:1003900091098F739927089580E291E00E94C0012E
:1003A00021E0892B09F420E0822F0895FC01848D3F
:1003B000DF01A80FB11DA35ABF4F2C91848D90E08F
:1003C00001968F739927848FA689B7892C93A0896A
:1003D000B1898C9180648C93938D848D981306C021
:1003E0000288F389E02D80818F7D80830895EF92CC
:1003F000FF920F931F93CF93DF93EC0181E0888FDF
:100400009B8D8C8D981305C0E889F989808185FDC5
:1004100024C0F62E0B8D10E00F5F1F4F0F731127B6
:10042000E02E8C8DE8120CC00FB607FCFACFE889DD
:10043000F989808185FFF5CFCE010E94D601F1CFE9
:100440008B8DFE01E80FF11DE35AFF4FF0820B8FF9
:10045000EA89FB898081806207C0EE89FF89608319
:10046000E889F98980818064808381E090E0DF9170
:10047000CF911F910F91FF90EF900895CF93DF934D
:10048000EC01888D8823C9F0EA89FB89808185FD8C
:1004900005C0A889B9898C9186FD0FC00FB607FCED
:1004A000F5CF808185FFF2CFA889B9898C9185FF2E
:1004B000EDCFCE010E94D601E7CFDF91CF91089515
:1004C00080E090E0892B29F00E94CC0181110C94EE
:1004D0000000089590E0FC01EC53FF4F3491FC01C3
:1004E000E65EFD4F2491FC01EA5FFD4FE491EE23AF
:1004F00009F43BC0332339F1333091F038F4313013
:10050000A9F0323001F584B58F7D12C0373091F0FB
:100510003830A1F03430B9F4809180008F7D03C071
:10052000809180008F77809380000DC084B58F7795
:1005300084BD09C08091B0008F7703C08091B00066
:100540008F7D8093B000F0E0EE0FFF1FEE50FE4F66
:10055000A591B4918FB7F894EC91611103C02095E7
:100560002E2301C02E2B2C938FBF08953FB7F894F4
:1005700080911B0190911C01A0911D01B0911E0161
:1005800026B5A89B05C02F3F19F00196A11DB11DEE
:100590003FBFBA2FA92F982F8827820F911DA11D29
:1005A000B11DBC01CD0142E0660F771F881F991F66
:1005B0004A95D1F708958F929F92AF92BF92CF92B2
:1005C000DF92EF92FF920E94B6024B015C0185E040
:1005D000C82ED12CE12CF12C0E94B602DC01CB01FB
:1005E00088199909AA09BB09883E9340A105B1055C
:1005F00058F021E0C21AD108E108F10888EE880E0F
:1006000083E0981EA11CB11CC114D104E104F104C3
:1006100019F7FF90EF90DF90CF90BF90AF909F9031
:100620008F9008958EBD00000DB407FEFDCF8EB5EE
:100630000895CF93C82F682F80E291E00E94F701C0
:100640008C2FCC0F990BCF9108959CB59F7D9CBDAD
:100650009CB5937F9CBD9CB59C7F9CBD9DB59160D6
:100660009DBD682F8091BE010E946A028091CF01DA
:100670009091D0018230910538F0880F991F880F32
:10068000991F05970197F1F7089581E00C942503D0
:100690001F93CF93DF931F92CDB7DEB7182F80E063
:1006A00069830E942503812F8F7180620E9412034B
:1006B000182F6981862F0E9412030E944503812F03
:1006C0000F90DF91CF911F9108951F93CF93DF93E8
:1006D0001F92CDB7DEB7182F80E00E942503812F2F
:1006E0008F710E9412038FEF0E94120389830E9470
:1006F000450389810F90DF91CF911F91089580E08C
:100700000E94650381FD07C0682F626080E00E943F
:1007100048030C94DB0208950F931F93CF938C0131
:1007200086E00E946503C82FC77D0230110531F4B1
:10073000C0628BE990E0A0E0B0E00DC0013011058F
:1007400029F085E590E0A0E0B0E005C0C86081E454
:1007500090E0A0E0B0E08093CB019093CC01A09317
:10076000CD01B093CE016C2F86E00E94480386E055
:100770000E94650391E08C1390E0892FCF911F9127
:100780000F910895CF93DF931F92CDB7DEB780E02E
:100790000E94250381EE0E94120389830E94450373
:1007A00089810F90DF91CF910895EF92FF920F937F
:1007B0001F93CF93DF9300D0CDB7DEB7082F162F4E
:1007C00080E049837A830E942503802F8F718062A5
:1007D0000E941203082FE12E7A81F72E4981140F0F
:1007E0001E1531F0F70181917F010E941203F8CFAD
:1007F0000E944503802F0F900F90DF91CF911F91A2
:100800000F91FF90EF900895EF92FF920F931F9337
:10081000CF93DF931F92CDB7DEB7E42E9F938F93D4
:100820008BE492E09F938F9369830E94AC08698167
:10083000E60E0F900F900F900F9003E412E06E15EC
:1008400091F0FF24F394F60E862F0E9465031F9209
:100850008F931F930F930E94AC080F900F900F90EF
:100860000F906F2DECCF80E492E09F938F930E94C6
:10087000AC080F900F900F90DF91CF911F910F91C7
:10088000FF90EF9008952F923F924F925F926F9258
:100890007F928F929F92AF92BF92CF92DF92EF9210
:1008A000FF920F931F93CF93DF931F92CDB7DEB7C5
:1008B000562E342E6DB67EB69F938F938AE392E0C8
:1008C0009F938F930E94AC08350C0F900F900F9060
:1008D0000F9086E3C82E82E0D82E91E3A92E92E0F5
:1008E000B92E531409F44FC08DB69EB69091C9012C
:1008F000092F10E02DB73EB7201B310B0FB6F8942F
:100900003EBF0FBE2DBFEDB7FEB731967F0122244B
:100910002394250C80E099830E942503852D8F71F7
:100920000E941203270199819E0D941549F08FEFC3
:1009300099830E941203F20181932F019981F5CFCF
:100940000E944503DF92CF920E94AC080E0D1F1D3E
:100950000F900F90015011090E151F0568F0F80156
:1009600080811F928F93BF92AF920E94AC080F902C
:100970000F900F900F90EECF0FB6F8949EBE0FBE63
:100980008DBE522CAECF8EE292E09F938F930E9449
:10099000AC080F900F900FB6F8947EBE0FBE6DBEE0
:1009A0000F90DF91CF911F910F91FF90EF90DF900B
:1009B000CF90BF90AF909F908F907F906F905F90FF
:1009C0004F903F902F9008950E94DD0C1F920F9240
:1009D0000FB60F9211242F933F934F935F936F9312
:1009E0007F938F939F93AF93BF93EF93FF9380E297
:1009F00091E00E94D601FF91EF91BF91AF919F913D
:100A00008F917F916F915F914F913F912F910F90B7
:100A10000FBE0F901F9018951F920F920FB60F9256
:100A200011242F938F939F93EF93FF93E0913001C5
:100A3000F09131018081E0913601F091370182FD22
:100A400012C09081809139018F5F8F7320913A019C
:100A5000821751F0E0913901F0E0E05EFE4F958F92
:100A60008093390101C08081FF91EF919F918F9117
:100A70002F910F900FBE0F901F9018951F920F92FD
:100A80000FB60F9211242F933F938F939F93AF93A1
:100A9000BF938091170190911801A0911901B09115
:100AA0001A013091160123E0230F2D3720F401960F
:100AB000A11DB11D05C026E8230F0296A11DB11D81
:100AC000209316018093170190931801A0931901A8
:100AD000B0931A0180911B0190911C01A0911D01FE
:100AE000B0911E010196A11DB11D80931B01909331
:100AF0001C01A0931D01B0931E01BF91AF919F9166
:100B00008F913F912F910F900FBE0F901F901895CE
:100B1000E0E2F1E01382128288EE93E0A0E0B0E020
:100B200084839583A683B7838AE091E09183808351
:100B300085EC90E09587848784EC90E097878687A2
:100B400080EC90E0918B808B81EC90E0938B828B9A
:100B500082EC90E0958B848B86EC90E0978B868B73
:100B6000118E128E138E148EEDEBF1E089E08083EE
:100B70008AE08183148280E28583168285E08487FF
:100B800085E090E0A0E0B0E0828B938BA48BB58BE6
:100B900017820895CF93DF93CDB7DEB761970FB675
:100BA000F894DEBF0FBECDBF789484B5826084BD5B
:100BB00084B5816084BD85B5826085BD85B5816061
:100BC00085BD80916E00816080936E0010928100DF
:100BD000809181008260809381008091810081609A
:100BE000809381008091800081608093800080915B
:100BF000B10084608093B1008091B00081608093E7
:100C0000B00080917A00846080937A0080917A00AD
:100C1000826080937A0080917A00816080937A006C
:100C200080917A00806880937A001092C100E091F0
:100C30003001F091310182E08083E0913001F09148
:100C400031011082E0912C01F0912D011082E09190
:100C50002E01F0912F0180E1808310923801E09104
:100C60003401F091350186E08083E0913201F0910A
:100C70003301808180618083E0913201F091330102
:100C8000808188608083E0913201F091330180811E
:100C900080688083E0913201F091330180818F7D03
:100CA000808360E070E089E193E00E9461088091B8
:100CB000BD019091BE0189130E9454018091BE0133
:100CC0009091BD0198130E9454011FB7F894809130
:100CD0001F01811124C0E0E1F2E08491E4E2F2E03E
:100CE0009491E82FF0E0EE0FFF1FE450FE4FA59126
:100CF000B491EC91E92321F461E08AE00E946A0258
:100D00008AE00E9454018CB580618CBD8CB58064F2
:100D10008CBD8DE00E9454018BE00E9454018091B3
:100D20001F018F5F80931F011FBF8091BD019091B4
:100D3000BE01891719F060E00E946A0281E00E94FA
:100D400025030E94DB026CE080E00E9448036FE50F
:100D500084E00E94480382E090E00E948C03882394
:100D600019F081E08093C10186E00E94650380E074
:100D700090E00E948C0380E00E94250380E50E94A1
:100D8000120383E70E9412030E94450360E08DE195
:100D90000E94480360E08CE10E94480360E787E01E
:100DA0000E9448036CE485E00E94480380E00E94B2
:100DB000250382EE0E9412030E9445030E94C20393
:100DC0000E947F0380E00E946503682F6E7F80E0B1
:100DD0000E94480360E081E00E94480382E090E0C6
:100DE0000E948C036CE485E00E94480386E00E9428
:100DF0006503682F676086E00E94480382EE89875A
:100E000010EF1A871B871C871D871E861F86188A6E
:100E10004091C901BE01675F7F4F8AE00E94D50300
:100E20004091C901BE01675F7F4F80E10E94D503F9
:100E30006091C20181E10E94480381EE89831A8397
:100E40001B831C831D831E821F821886EFEDF0E03A
:100E500084914091C901BE016F5F7F4F0E94D5030D
:100E6000E9EDF0E084916091C2010E94480382E0C4
:100E70000E946503E5EEF0E0E49161E070E001C0FE
:100E8000660FEA95EAF7682B82E00E9448030E9409
:100E90007F0380E00E946503682F616080E00E940C
:100EA000480360E787E00E9448038091BD0190916C
:100EB000BE01891719F061E00E946A028091C401A5
:100EC000882341F04091C90164EC71E08AE00E94FE
:100ED000D50312C082E00E946503E4EEF0E0E491E5
:100EE00021E030E001C0220FEA95EAF72095622F59
:100EF000682382E00E9448038DE10E94650381FD22
:100F00000E94C20380E00E9425038FEF0E9412031B
:100F1000898B0E9445038989282F30E0982F917092
:100F20001F929F9335952795277033273F932F93D3
:100F300084FB992790F91F929F9385FB992790F93D
:100F40001F929F9386FB992790F91F929F931F9260
:100F50008F938AEE90E09F938F930E94AC0842E0BB
:100F60006AE085EE91E00E94430444E06CE088ED85
:100F700091E00E94040441E060E18FEC91E00E9466
:100F8000430446E061E184EC91E00E94040441E006
:100F900061E08DEB91E00E94040441E062E083EBAC
:100FA00091E00E94040441E065E08CEA91E00E9437
:100FB000040441E066E083EA91E00E94040441E019
:100FC00060E08BE991E00E94040442E06CE18DE86E
:100FD00091E00E94040486E00E94650388720FB6C7
:100FE000F894DEBF0FBECDBF803241F021E090E02B
:100FF000883009F020E0E22FF92F02C0E2E0F0E0B3
:10100000EE0FFF1FE957FE4F859194919F938F93A9
:1010100085E791E09F938F930E94AC08E091C10116
:10102000F0E0EE0FFF1FEF58FE4F859194919F93D4
:101030008F9382E691E09F938F930E94AC0880E0AB
:101040000E946503182F81E00E9465030FB6F89493
:10105000DEBF0FBECDBF13FD02C0882329F012FDF5
:1010600006C0E1E0F0E005C0E0E0F0E002C0E2E050
:10107000F0E0EE0FFF1FE45AFE4F859194919F938D
:101080008F9389E491E09F938F930E94AC0886E050
:101090000E9465038670E82FF0E0EF5BFE4F8591BC
:1010A00094919F938F9380E391E09F938F930E94FD
:1010B000AC080FB6F894DEBF0FBECDBF0E94600231
:1010C000FDCF0F931F93CF93DF93009731F46115FA
:1010D000710519F480E090E03AC08B01EC016EE0FC
:1010E00070E081E090E00E94A40AFC01892B91F35A
:1010F00080E883830115110571F01387028781E869
:1011000083838091D3019091D401892B21F4F093B2
:10111000D401E093D3012097C9F0D187C0878381A0
:10112000826083838091D5019091D601892B71F4DF
:10113000F093D601E093D5018091D7019091D80129
:10114000892B21F4F093D801E093D701CF01DF91EF
:10115000CF911F910F910895A0E0B0E0E2EBF8E08D
:101160000C94AE0CAE01495F5F4FDA016D917D9139
:10117000AD0103ED11E0F80182819381DC0113964A
:101180002C911397286013962C930E94D208D801B3
:101190001296ED91FC9113972381277F2383E4E03E
:1011A0000C94CA0CACE0B0E0E8EDF8E00C94A00CB4
:1011B0007C016B018A01FC0117821682838181FF09
:1011C000BDC1CE0101964C01F7019381F60193FD5B
:1011D000859193FF81916F01882309F4ABC185321A
:1011E00039F493FD859193FF81916F01853229F444
:1011F000B70190E00E940A0CE7CF512C312C20E07F
:101200002032A0F48B3269F030F4803259F083320E
:1012100069F420612CC08D3239F0803339F42160BB
:1012200026C02260246023C0286021C027FD27C07B
:1012300030ED380F3A3078F426FF06C0FAE05F9EB2
:10124000300D1124532E13C08AE0389E300D112426
:10125000332E20620CC08E3221F426FD6BC1206437
:1012600006C08C3611F4206802C0883641F4F601BD
:1012700093FD859193FF81916F018111C1CF982FCB
:101280009F7D9554933028F40C5F1F4FFFE3F98343
:101290000DC0833631F0833771F0833509F05BC0C0
:1012A00022C0F801808189830E5F1F4F442443943C
:1012B000512C540115C03801F2E06F0E711CF80179
:1012C000A080B18026FF03C0652D70E002C06FEFE3
:1012D0007FEFC5012C870E94FF0B2C0183012C8519
:1012E0002F77222E17C03801F2E06F0E711CF80123
:1012F000A080B18026FF03C0652D70E002C06FEFB3
:101300007FEFC5012C870E94ED0B2C012C852068F6
:10131000222E830123FC1BC0832D90E04816590622
:10132000B0F4B70180E290E00E940A0C3A94F4CF46
:10133000F50127FC859127FE81915F01B70190E0BF
:101340000E940A0C31103A94F1E04F1A51084114EE
:10135000510471F7E5C0843611F0893639F5F8018A
:1013600027FF07C060817181828193810C5F1F4FCD
:1013700008C060817181072E000C880B990B0E5FED
:101380001F4F2F76722E97FF09C09095809570950C
:1013900061957F4F8F4F9F4F2068722E2AE030E07B
:1013A000A4010E94420CA82EA81844C0853729F435
:1013B0002F7EB22E2AE030E025C0F22FF97FBF2E1B
:1013C0008F36C1F018F4883579F0B4C0803719F041
:1013D000883721F0AFC02F2F2061B22EB4FE0DC090
:1013E0008B2D8460B82E09C024FF0AC09F2F966001
:1013F000B92E06C028E030E005C020E130E002C090
:1014000020E132E0F801B7FE07C06081718182817E
:1014100093810C5F1F4F06C06081718180E090E076
:101420000E5F1F4FA4010E94420CA82EA818FB2D8E
:10143000FF777F2E76FE0BC0372D3E7FA51450F42C
:1014400074FE0AC072FC08C0372D3E7E05C0BA2C5F
:10145000372D03C0BA2C01C0B52C34FF0DC0FE01DE
:10146000EA0DF11D8081803311F4397E09C032FF0D
:1014700006C0B394B39404C0832F867809F0B39464
:1014800033FD13C030FF06C05A2CB31418F4530CAC
:101490005B18B32CB31468F4B70180E290E03C878A
:1014A0000E940A0CB3943C85F5CFB31410F43B189A
:1014B00001C0312C34FF12C0B70180E390E03C87BB
:1014C0000E940A0C3C8532FF17C031FD03C088E73B
:1014D00090E002C088E590E0B7010CC0832F8678C9
:1014E00059F031FF02C08BE201C080E237FD8DE28E
:1014F000B70190E00E940A0CA51438F4B70180E30C
:1015000090E00E940A0C5A94F7CFAA94F401EA0DD5
:10151000F11D8081B70190E00E940A0CA110F5CF67
:10152000332009F451CEB70180E290E00E940A0C0A
:101530003A94F6CFF7018681978102C08FEF9FEF33
:101540002C96E2E10C94BC0C0F931F93CF93DF9386
:10155000869F8001879F100D969F100D1124C80152
:101560000E94C00AEC01009729F0A80160E070E039
:101570000E94F80BCE01DF91CF911F910F9108953A
:10158000CF93DF938230910510F482E090E0E091F8
:10159000DB01F091DC0120E030E0C0E0D0E03097EA
:1015A00011F14081518148175907C0F04817590778
:1015B00061F482819381209719F09B838A832BC0E9
:1015C0009093DC018093DB0126C02115310519F0D1
:1015D0004217530718F49A01BE01DF01EF010280A0
:1015E000F381E02DDCCF2115310509F1281B390BE2
:1015F0002430310590F412968D919C9113976115CA
:10160000710521F0FB019383828304C09093DC0178
:101610008093DB01FD01329644C0FD01E20FF31F10
:1016200081939193225031092D933C933AC020919C
:10163000D9013091DA01232B41F42091020130913C
:1016400003013093DA012093D901209100013091F8
:1016500001012115310541F42DB73EB74091040138
:1016600050910501241B350BE091D901F091DA016D
:10167000E217F307A0F42E1B3F0B2817390778F069
:10168000AC014E5F5F4F2417350748F04E0F5F1FC8
:101690005093DA014093D9018193919302C0E0E025
:1016A000F0E0CF01DF91CF9108950F931F93CF9377
:1016B000DF93009709F48CC0FC01329713821282E9
:1016C0000091DB011091DC010115110581F42081ED
:1016D0003181820F931F2091D9013091DA012817AF
:1016E000390779F5F093DA01E093D90171C0D80197
:1016F00040E050E0AE17BF0750F412962D913C9198
:101700001397AD012115310509F1D901F3CF9D01E1
:10171000DA013383228360817181860F971F8217DC
:10172000930769F4EC0128813981260F371F2E5F5A
:101730003F4F318320838A819B8193838283452B12
:1017400029F4F093DC01E093DB0142C01396FC9393
:10175000EE931297ED01499159919E01240F351F87
:10176000E217F30771F480819181840F951F02962F
:1017700011969C938E938281938113969C938E9362
:101780001297E0E0F0E0D80112968D919C911397AA
:10179000009719F0F8018C01F6CF8D919C9198017A
:1017A0002E5F3F4F820F931F2091D9013091DA01B4
:1017B0002817390769F4309729F41092DC01109248
:1017C000DB0102C0138212821093DA010093D90167
:1017D000DF91CF911F910F910895FC010590615009
:1017E00070400110D8F7809590958E0F9F1F089537
:1017F000DC0101C06D9341505040E0F70895FC01B9
:101800006150704001900110D8F7809590958E0F2F
:101810009F1F08950F931F93CF93DF93FB012381A5
:1018200021FD03C08FEF9FEF28C022FF16C0468125
:101830005781248135814217530744F4A081B18137
:101840009D012F5F3F4F318320838C932681378109
:101850002F5F3F4F3783268310C0EB01092F182FCE
:101860000084F185E02D0995892BE1F68E819F8119
:1018700001969F838E83812F902FDF91CF911F91AF
:101880000F910895FA01AA27283051F1203181F1F2
:10189000E8946F936E7F6E5F7F4F8F4F9F4FAF4F78
:1018A000B1E03ED0B4E03CD0670F781F891F9A1F8B
:1018B000A11D680F791F8A1F911DA11D6A0F711D3F
:1018C000811D911DA11D20D009F468943F912AE04B
:1018D000269F11243019305D3193DEF6CF01089533
:1018E000462F4770405D4193B3E00FD0C9F7F6CF64
:1018F000462F4F70405D4A3318F0495D31FD40522C
:10190000419302D0A9F7EACFB4E0A69597958795C1
:1019100077956795BA95C9F70097610571050895A0
:101920009B01AC010A2E069457954795379527954C
:10193000BA95C9F7620F731F841F951FA01D0895E4
:101940002F923F924F925F926F927F928F929F92CF
:10195000AF92BF92CF92DF92EF92FF920F931F93BD
:10196000CF93DF93CDB7DEB7CA1BDB0B0FB6F8946E
:10197000DEBF0FBECDBF09942A88398848885F84AE
:101980006E847D848C849B84AA84B984C884DF801F
:10199000EE80FD800C811B81AA81B981CE0FD11D03
:1019A0000FB6F894DEBF0FBECDBFED010895EE0F68
:1019B000FF1F0590F491E02D099481E090E0F894E8
:0819C0000C94E20CF894FFCF37
:1019C8000000DD01800000000000F7017301C00184
:0619D8009E01B2013E0277
:107800000C94343C0C94513C0C94513C0C94513CE1
:107810000C94513C0C94513C0C94513C0C94513CB4
:107820000C94513C0C94513C0C94513C0C94513CA4
:107830000C94513C0C94513C0C94513C0C94513C94
:107840000C94513C0C94513C0C94513C0C94513C84
:107850000C94513C0C94513C0C94513C0C94513C74
:107860000C94513C0C94513C11241FBECFEFD8E036
:10787000DEBFCDBF11E0A0E0B1E0ECE9FFE702C060
:1078800005900D92A230B107D9F712E0A2E0B1E065
:1078900001C01D92AD30B107E1F70E942D3D0C945F
:1078A000CC3F0C94003C982F959595959595959582
:1078B000905D8F708A307CF0282F295A8091C0000B
:1078C00085FFFCCF9093C6008091C00085FFFCCF60
:1078D0002093C6000895282F205DF0CF982F809127
:1078E000C00085FFFCCF9093C6000895EF92FF92F1
:1078F0000F931F93EE24FF2487018091C00087FD22
:1079000017C00894E11CF11C011D111D81E4E8164B
:1079100082E4F8068FE0080780E0180770F3E09132
:107920000401F091050109958091C00087FFE9CF1E
:107930008091C6001F910F91FF90EF9008950E94D3
:10794000763C982F8091C00085FFFCCF9093C600B5
:1079500091362CF490330CF09053892F089597555D
:10796000892F08951F930E949F3C182F0E949F3CCF
:107970001295107F810F1F9108951F93182F882350
:1079800021F00E94763C1150E1F71F9108951F935A
:10799000182F0E94763C803249F0809103018F5F5E
:1079A000809303018530C1F01F9108958091C0003C
:1079B00085FFFCCF84E18093C6008091C00085FFE5
:1079C000FCCF1093C6008091C00085FFFCCF80E102
:1079D0008093C6001F910895E0910401F091050184
:1079E00009951F9108950E94763C803241F0809164
:1079F00003018F5F80930301853081F008958091AA
:107A0000C00085FFFCCF84E18093C6008091C00058
:107A100085FFFCCF80E18093C6000895E0910401CA
:107A2000F09105010995089540E951E08823A1F0FE
:107A30002D9A28EE33E0FA013197F1F721503040CA
:107A4000D1F72D9828EE33E0FA013197F1F7215064
:107A50003040D1F7815061F708953F924F925F9285
:107A60006F927F928F929F92AF92BF92CF92DF924E
:107A7000EF92FF920F931F93CF93DF93000080E16B
:107A80008093C4001092C50088E18093C10086E015
:107A90008093C2005098589A259A81E00E94143D24
:107AA00024E1F22E9EE1E92E85E9D82E0FE0C02ECA
:107AB00010E1B12EAA24A394B1E49B2EA6E58A2E50
:107AC000F2E57F2EE0E26E2E79E4572E63E5462E36
:107AD00050E5352E0E94763C8033B1F18133B9F107
:107AE000803409F46FC0813409F476C0823409F41B
:107AF00085C0853409F488C0803531F1823521F1A3
:107B0000813511F1853509F485C0863509F48DC0BC
:107B1000843609F496C0843709F403C1853709F423
:107B200072C1863709F466C0809103018F5F80932C
:107B30000301853079F6E0910401F0910501099582
:107B40000E94763C803351F60E94F33CC3CF0E94E2
:107B5000763C803249F78091C00085FFFCCFF092DF
:107B6000C6008091C00085FFFCCF9092C600809136
:107B7000C00085FFFCCF8092C6008091C00085FFC9
:107B8000FCCF7092C6008091C00085FFFCCF609250
:107B9000C6008091C00085FFFCCF5092C600809146
:107BA000C00085FFFCCF4092C6008091C00085FFD9
:107BB000FCCF3092C6008091C00085FFFCCFB09210
:107BC000C60088CF0E94763C863808F4BDCF0E945C
:107BD000763C0E94F33C7ECF0E94763C803809F4CC
:107BE0009CC0813809F40BC1823809F43CC1883942
:107BF00009F48FC080E00E94C73C6CCF84E10E94F2
:107C0000BD3C0E94F33C66CF85E00E94BD3C0E94D3
:107C1000F33C60CF0E94763C809306010E94763C44
:107C2000809307010E94F33C55CF0E94763C80333D
:107C300009F41DC183E00E94BD3C80E00E94C73C66
:107C400049CF0E94763C809309020E94763C809343
:107C5000080280910C028E7F80930C020E94763C79
:107C6000853409F415C18091080290910902892B8D
:107C700089F000E010E00E94763CF801E85FFE4FDA
:107C800080830F5F1F4F80910802909109020817AF
:107C9000190788F30E94763C803209F045CF809125
:107CA0000C0280FF01C16091060170910701660F0F
:107CB000771F7093070160930601A0910802B091AD
:107CC00009021097C9F0E8E0F1E09B01AD014E0F09
:107CD0005F1FF999FECF32BD21BD819180BDFA9A17
:107CE000F99A2F5F3F4FE417F50799F76A0F7B1F4B
:107CF00070930701609306018091C00085FFFCCF5F
:107D0000F092C6008091C00085FFFCCFB092C60003
:107D1000E1CE83E00E94C73CDDCE82E00E94C73CFA
:107D2000D9CE0E94763C809309020E94763C8093D3
:107D300008028091060190910701880F991F909386
:107D40000701809306010E94763C853409F4A6C0A1
:107D500080910C028E7F80930C020E94763C8032D0
:107D600009F0B8CE8091C00085FFFCCFF092C6002C
:107D7000609108027091090261157105B9F140E046
:107D800050E080910C02A82FA170B82FB27011C0E2
:107D9000BB2309F45CC0E0910601F0910701319624
:107DA000F0930701E09306014F5F5F4F46175707B7
:107DB000E8F4AA2369F3F999FECF209106013091E6
:107DC000070132BD21BDF89A90B58091C00085FFB2
:107DD000FCCF9093C6002F5F3F4F30930701209355
:107DE00006014F5F5F4F4617570718F38091C00099
:107DF00085FDE5CE8091C00085FFF8CFE0CE81E023
:107E00000E94C73C67CE0E94763C803209F08CCE3F
:107E10008091C00085FFFCCFF092C6008091C00029
:107E200085FFFCCFE092C6008091C00085FFFCCFAB
:107E3000D092C6008091C00085FFFCCFC092C600E2
:107E40008091C00085FFFCCFB092C60043CEE09188
:107E50000601F091070194918091C00085FFFCCF4D
:107E60009093C6009CCF80E10E94C73C33CE0E9415
:107E7000763C0E94763C182F0E94763C112309F430
:107E800083C0113009F484C08FE00E94C73C22CE29
:107E900080910C02816080930C02E5CE80910C02EF
:107EA000816080930C0259CF809107018823880F4D
:107EB000880B8A2180930B02809106019091070123
:107EC000880F991F90930701809306018091080203
:107ED00080FF09C080910802909109020196909359
:107EE000090280930802F894F999FECF1127E091D6
:107EF0000601F0910701C8E0D1E08091080290915D
:107F00000902103091F40091570001700130D9F34B
:107F100003E000935700E89500915700017001308D
:107F2000D9F301E100935700E89509901990009169
:107F3000570001700130D9F301E000935700E89534
:107F40001395103498F011270091570001700130FB
:107F5000D9F305E000935700E895009157000170B0
:107F60000130D9F301E100935700E895329602976A
:107F700009F0C7CF103011F00296E5CF112480919F
:107F8000C00085FFB9CEBCCE8EE10E94C73CA2CD19
:0C7F900085E90E94C73C9ECDF894FFCF0D
:027F9C00800063
:040000030000780081
:00000001FF