:100000000C942F010C944C040C9425040C9457016F
:100010000C9457010C9457010C9457010C94570100
:100020000C9457010C9457010C9457010C945701F0
:100030000C9457010C9457010C9457010C945701E0
:100040000C94DB030C9457010C9491020C946B02FA
:100050000C9457010C9457010C9457010C945701C0
:100060000C9457010C94570150415F4D415800507A
:10007000415F484947480050415F4C4F570050414D
:100080005F4D494E0031362062697473003820623A
:100090006974730044697361626C6564006E5246F2
:1000A00032344C30312B006E524632344C303100F9
:1000B0003235304B42505300324D42505300314D97
:1000C0004250530000000000250028002B000000D3
:1000D0000008000201000003040700000000000007
:1000E000000000000000240027002A001112131451
:1000F00015160A0B0C0D0E0F535441545553090994
:10010000203D203078253032782052585F44523DCF
:1001100025782054585F44533D2578204D41585F41
:1001200052543D25782052585F505F4E4F3D257800
:100130002054585F46554C4C3D25780D0A005041DF
:1001400020506F77657209203D2025530D0A007EEF
:100150000077006F006800435243204C656E67745F
:100160006809203D2025530D0A0094008D0085006C
:100170004D6F64656C0909203D2025530D0A00A7C9
:10018000009D0044617461205261746509203D2026
:1001900025530D0A00BE00B800B00044594E50442B
:1001A0002F4645415455524500434F4E4649470955
:1001B0000052465F53455455500052465F4348092C
:1001C00000454E5F52584144445200454E5F414104
:1001D000090052585F50575F50302D360054585F19
:1001E00041444452090052585F414444525F5032E6
:1001F0002D350052585F414444525F50302D31003C
:100200000D0A00253032780020307800255309206F
:100210003D000D0A00203078253032780025530942
:10022000203D000001020304050000000023002619
:10023000002900040404040404040402020202026B
:10024000020303030303030102040810204080019A
:10025000020408102001020408102000650B11247C
:100260001FBECFEFD8E0DEBFCDBF11E0A0E0B1E010
:10027000E0EDF2E202C005900D92AE35B107D9F77C
:1002800022E0AEE5B1E001C01D92AE33B207E1F766
:1002900011E0CFE2D1E004C02197FE010E945B1182
:1002A000CE32D107C9F70E9479070C9466110C94DD
:1002B0000000FC01918D828D981761F0828DDF0125
:1002C000A80FB11D5D968C91928D9F5F9F73928F49
:1002D00090E008958FEF9FEF0895FC01918D828D3E
:1002E000981731F0828DE80FF11D858D90E008950B
:1002F0008FEF9FEF0895FC01918D228D892F90E063
:10030000805C9F4F821B91098F739927089583E723
:1003100091E00E947B0121E0892B09F420E0822FEB
:100320000895FC01848DDF01A80FB11DA35ABF4FB2
:100330002C91848D90E001968F739927848FA689E4
:10034000B7892C93A089B1898C9180648C93938D0B
:10035000848D981306C00288F389E02D80818F7DFB
:1003600080830895EF92FF920F931F93CF93DF93B3
:10037000EC0181E0888F9B8D8C8D981305C0E889F6
:10038000F989808185FD24C0F62E0B8D10E00F5F6A
:100390001F4F0F731127E02E8C8DE8120CC00FB683
:1003A00007FCFACFE889F989808185FFF5CFCE0176
:1003B0000E949101F1CF8B8DFE01E80FF11DE35AF0
:1003C000FF4FF0820B8FEA89FB898081806207C032
:1003D000EE89FF896083E889F98980818064808360
:1003E00081E090E0DF91CF911F910F91FF90EF900E
:1003F0000895CF93DF93EC01888D8823C9F0EA89B3
:10040000FB89808185FD05C0A889B9898C9186FD0D
:100410000FC00FB607FCF5CF808185FFF2CFA8890A
:10042000B9898C9185FFEDCFCE010E949101E7CF74
:10043000DF91CF91089580E090E0892B29F00E9410
:10044000870181110C94000008953FB7F8948091C2
:10045000630190916401A0916501B091660126B598
:10046000A89B05C02F3F19F00196A11DB11D3FBFEC
:10047000BA2FA92F982F8827820F911DA11DB11D7A
:10048000BC01CD0142E0660F771F881F991F4A9576
:10049000D1F708950895CF93C82F682F83E791E08F
:1004A0000E94B2018C2FCC0F990BCF91089560E779
:1004B00087E00E94C70485FB222720F984FB992747
:1004C00090F986FB882780F92093690190936E014B
:1004D0008093720108951F920F920FB60F9211240C
:1004E0002F933F934F935F936F937F938F939F933C
:1004F000AF93BF93EF93FF9383E791E00E94910145
:10050000FF91EF91BF91AF919F918F917F916F91EB
:100510005F914F913F912F910F900FBE0F901F90C1
:1005200018951F920F920FB60F9211242F938F934D
:100530009F93EF93FF93E0918301F0918401808179
:10054000E0918901F0918A0182FD12C09081809131
:100550008C018F5F8F7320918D01821751F0E09194
:100560008C01F0E0ED58FE4F958F80938C0101C017
:100570008081FF91EF919F918F912F910F900FBEEE
:100580000F901F90189590E0FC01E253FF4F3491BB
:10059000FC01E95BFD4F2491FC01ED5CFD4FE49112
:1005A000EE2309F43BC0332339F1333091F038F4B2
:1005B0003130A9F0323001F584B58F7D12C037306B
:1005C00091F03830A1F03430B9F4809180008F7D03
:1005D00003C0809180008F77809380000DC084B528
:1005E0008F7784BD09C08091B0008F7703C0809160
:1005F000B0008F7D8093B000F0E0EE0FFF1FEC5352
:10060000FF4FA591B4918FB7F894EC91611103C09D
:1006100020952E2301C02E2B2C938FBF0895CF93AE
:10062000DF9390E0FC01E95BFD4F2491FC01ED5C60
:10063000FD4F8491882361F190E0880F991FFC01A0
:10064000EE51FF4FC591D491FC01EC53FF4FA591A2
:10065000B491611109C09FB7F894888120958223D5
:100660008883EC912E230BC0623061F49FB7F8941D
:100670003881822F809583238883EC912E2B2C93B5
:100680009FBF06C08FB7F894E8812E2B28838FBFB9
:10069000DF91CF9108958230910538F0880F991F2E
:1006A000880F991F05970197F1F708958F929F92F0
:1006B000AF92BF92CF92DF92EF92FF926B017C01DB
:1006C0000E9425024B015C01C114D104E104F10434
:1006D000F1F00E942502DC01CB0188199909AA09D1
:1006E000BB09883E9340A105B10570F321E0C21A11
:1006F000D108E108F10888EE880E83E0981EA11C5D
:10070000B11CC114D104E104F10419F7DDCFFF904D
:10071000EF90DF90CF90BF90AF909F908F90089513
:100720000F931F93CF93DF93C4E0D1E011E01883C0
:100730000E9480058CEC0E94200584E40E94200524
:1007400068EE73E080E090E00E9456030E9480050E
:100750008CEC0E9420058EEB0E9420050E94E40490
:10076000082F0E94E404682F70E0762F6627600F40
:10077000711D072E000C880B990B0E94621020E05F
:1007800030E040E85DE30E949D1069837A838B83AB
:100790009C83198F6091680170E080E090E00E9476
:1007A00060106A8F7B8F8C8F9D8F81E0DF91CF915E
:1007B0001F910F9108951F920F920FB60F9211245F
:1007C0002F933F938F939F93AF93BF9380915F013C
:1007D00090916001A0916101B091620130915E0140
:1007E00023E0230F2D3720F40196A11DB11D05C074
:1007F00026E8230F0296A11DB11D20935E01809370
:100800005F0190936001A0936101B09362018091B8
:10081000630190916401A0916501B0916601019618
:10082000A11DB11D8093630190936401A0936501A4
:10083000B0936601BF91AF919F918F913F912F919E
:100840000F900FBE0F901F9018951F920F920FB62A
:100850000F9211242F933F934F935F936F937F9346
:100860008F939F93AF93BF93EF93FF93E091020118
:10087000F09103010995FF91EF91BF91AF919F9185
:100880008F917F916F915F914F913F912F910F9039
:100890000FBE0F901F9018951F920F920FB60F92D8
:1008A00011242F933F934F935F936F937F938F9375
:1008B0009F93AF93BF93EF93FF93E0910001F0916B
:1008C00001010995FF91EF91BF91AF919F918F9198
:1008D0007F916F915F914F913F912F910F900FBE3C
:1008E0000F901F9018958EBD00000DB407FEFDCF30
:1008F0008EB50895CF92DF92EF92FF920F931F93E0
:10090000CF93DF936C017A018B01C0E0D0E0CE156C
:10091000DF0589F0D8016D918D01D601ED91FC9133
:100920000190F081E02DC6010995892B11F47E011B
:1009300002C02196ECCFC701DF91CF911F910F919B
:10094000FF90EF90DF90CF9008950E946111CF93B8
:10095000DF939CB59F7D9CBD9CB5937F9CBD9CB552
:100960009C7F9CBD9DB591609DBDC0E1D2E0682F8C
:1009700089810E94C3028A899B89DF91CF910C945F
:100980004B0381E00C94A70480E00C94A7041F9310
:10099000CF93DF9300D0CDB7DEB76A8389830E94FF
:1009A000C40489818F7180620E947304182F6A8148
:1009B000862F0E9473040E94C104812F0F900F9014
:1009C000DF91CF911F910895EF92FF920F931F93A4
:1009D000CF93DF9348E050E031E080E097E0E92EEC
:1009E000F12CC3E2D0E00FEC10E090912602E091F0
:1009F0002702F0912802F8942181292B218362811A
:100A0000292F209562236283D7011197F1F7618125
:100A100026232183DE011197F1F720817894F801D4
:100A20003197F1F7922309F0832B330F415051098D
:100A3000E1F6DF91CF911F910F91FF90EF90089514
:100A4000CF92DF92EF92FF920F931F93CF93DF939A
:100A500028E030E041E06FEF70E09FE0C92ED12C3C
:100A6000C3E2D0E007ED10E090912602E09127026A
:100A7000F0912802592F5095F42EF82281F0F89425
:100A8000F2805F2152835181592B5183DE011197EE
:100A9000F1F75281952B92837894F8010FC0F89466
:100AA000F2805F2152835181592B5183DB011197D1
:100AB000F1F75281952B92837894F6013197F1F7F3
:100AC000440F2150310981F6F894E0912702F0910A
:100AD0002802918180912602809598239183E0914C
:100AE0002702F09128029281892382837894DF91F2
:100AF000CF911F910F91FF90EF90DF90CF900895CD
:100B000090912602E0912702F0912802F8948181C9
:100B1000292F20958223818378948DE743E050E04C
:100B2000815021F1DA011197F1F730813923C1F3B6
:100B3000F8948281822382838181892B81837894B6
:100B4000ABE7B7E01197F1F7F8948181282321836F
:100B5000A3E1B1E01197F1F78081982381E009F0DA
:100B600080E07894E3E6F6E03197F1F70895CF93CB
:100B7000DF931F92CDB7DEB789830E94C4048981B9
:100B80000E94730489830E94C10489810F90DF91C0
:100B9000CF91089581EE0C94B705CF93DF931F9208
:100BA000CDB7DEB789830E94C40489818F710E940A
:100BB00073048FEF0E94730489830E94C1048981AA
:100BC0000F90DF91CF910895EF92FF920F931F93B3
:100BD000CF93DF9300D01F92CDB7DEB7162F4A8395
:100BE0007B8389830E94C40489818F7180620E9403
:100BF0007304082FE12E7B81F72E4A81140F1E15F6
:100C000031F0F70181917F010E947304F8CF0E94B7
:100C1000C104802F0F900F900F90DF91CF911F9103
:100C20000F91FF90EF900895682F8091100290919E
:100C3000110289130C94C302089580E00E94CD052F
:100C400081FD0BC0682F626080E00E94C70465E0F0
:100C500070E080E090E00C94560308950E941D0619
:100C600080E00E94CD05682F616080E00E94C7048B
:100C700060E787E00E94C70481E00E94140680912B
:100C80001702882341F040911C0267E172E08AE07C
:100C90000E94E40512C082E00E94CD05E3E2F2E08A
:100CA000E49121E030E001C0220FEA95EAF72095B7
:100CB000622F682382E00E94C7048DE10E94CD0567
:100CC00081FD0C94CA050895EF92FF920F931F9334
:100CD000CF93DF931F92CDB7DEB7E42E9F938F9310
:100CE0008DE192E09F938F9369830E94350C698117
:100CF000E60E0F900F900F900F9005E112E06E1529
:100D000091F0FF24F394F60E862F0E94CD051F92DA
:100D10008F931F930F930E94350C0F900F900F909D
:100D20000F906F2DECCF82E192E09F938F930E9402
:100D3000350C0F900F900F90DF91CF911F910F9175
:100D4000FF90EF9008952F923F924F925F926F9293
:100D50007F928F929F92AF92BF92CF92DF92EF924B
:100D6000FF920F931F93CF93DF931F92CDB7DEB700
:100D7000562E342E6DB67EB69F938F938CE092E004
:100D80009F938F930E94350C350C0F900F900F900E
:100D90000F9088E0C82E82E0D82E93E0A92E92E032
:100DA000B92E531409F44EC08DB69EB690911C0214
:100DB000092F10E02DB73EB7201B310B0FB6F8946A
:100DC0003EBF0FBE2DBFEDB7FEB731967F01222487
:100DD0002394250C99830E94C404852D8F710E9451
:100DE0007304270199819E0D941549F08FEF998323
:100DF0000E947304F20181932F019981F5CF0E9423
:100E0000C104DF92CF920E94350C0E0D1F1D0F9072
:100E10000F90015011090E151F0568F0F80180812F
:100E20001F928F93BF92AF920E94350C0F900F903C
:100E30000F900F90EECF0FB6F8949EBE0FBE8DBEF2
:100E4000522CAFCF80E092E09F938F930E94350C9D
:100E50000F900F900FB6F8947EBE0FBE6DBE0F9030
:100E6000DF91CF911F910F91FF90EF90DF90CF9086
:100E7000BF90AF909F908F907F906F905F904F90BA
:100E80003F902F9008950F931F93CF938C0186E08E
:100E90000E94CD05C82FC77D0230110531F4C06214
:100EA0008BE990E0A0E0B0E00DC00130110529F021
:100EB00085E590E0A0E0B0E005C0C86081E490E086
:100EC000A0E0B0E080931E0290931F02A093200246
:100ED000B09321026C2F86E00E94C70486E00E9436
:100EE000CD0591E08C1390E0892FCF911F910F9148
:100EF0000895CF93DF93CDB7DEB7CC54D1090FB6A9
:100F0000F894DEBF0FBECDBF789484B5826084BDF7
:100F100084B5816084BD85B5826085BD85B58160FD
:100F200085BD80916E00816080936E00109281007B
:100F30008091810082608093810080918100816036
:100F400080938100809180008160809380008091F7
:100F5000B10084608093B1008091B0008160809383
:100F6000B00080917A00846080937A0080917A004A
:100F7000826080937A0080917A00816080937A0009
:100F800080917A00806880937A001092C100E0918D
:100F90008301F091840182E08083E0918301F091EC
:100FA00084011082E0917F01F09180011082E09134
:100FB0008101F091820180E1808310928B01E091A8
:100FC0008701F091880186E08083E0918501F091AE
:100FD0008601808180618083E0918501F0918601A6
:100FE000808188608083E0918501F0918601808115
:100FF00080688083E0918501F091860180818F7DFA
:10100000808360E070E08BE492E00E94EA0B8091C4
:10101000100290911102891719F061E00E940F03EC
:101020008091110290911002981719F061E00E94CE
:101030000F031FB7F89480916701811127C0EDE37A
:10104000F2E08491E1E5F2E09491E82FF0E0EE0F18
:10105000FF1FEE51FF4FA591B491EC91E92321F4CC
:1010600061E08AE00E94C30261E08AE00E940F030F
:101070008CB580618CBD8CB580648CBD61E08DE0E9
:101080000E940F0361E08BE00E940F0380916701D3
:101090008F5F809367011FBF80E00E94140681E08C
:1010A0000E94A70465E070E080E090E00E94560393
:1010B0006CE080E00E94C7046FE584E00E94C704F2
:1010C00082E090E00E944307882319F081E080933A
:1010D000140286E00E94CD0580E090E00E94430764
:1010E0000E94C40480E50E94730483E70E94730495
:1010F0000E94C10460E08DE10E94C70460E08CE1C1
:101100000E94C70460E787E00E94C7046CE485E0A2
:101110000E94C70482EE0E94B7050E94CA050E9481
:101120001D0680E00E94CD05682F6E7F80E00E9442
:10113000C70460E081E00E94C7048DE10E94CD05F4
:10114000682F64608DE10E94C7048CE10E94CD0588
:10115000682F6F638CE10E94C70481E080931602C0
:1011600082E090E00E9443076CE485E00E94C7049F
:1011700086E00E94CD05682F676086E00E94C70464
:1011800082EE26968FAF269710EF27961FAF2797F0
:1011900028961FAF289729961FAF29972A961FAF29
:1011A0002A972B961FAE2B972C961FAE2C972D9619
:1011B0001FAE2D9740911C02BE016B5B7F4F8AE0F2
:1011C0000E94E40540911C02BE016B5B7F4F80E1F1
:1011D0000E94E4056091150281E10E94C70481EE3E
:1011E0008DAF1EAF1FAF21961FAF219722961FAF65
:1011F000229723961FAE239724961FAE24972596F9
:101200001FAE2597E3EFF0E0849140911C02BE01F0
:10121000635C7F4F0E94E405EDEEF0E08491609105
:1012200015020E94C70482E00E94CD05E4E2F2E0CC
:10123000E49161E070E001C0660FEA95EAF7682B7F
:1012400082E00E94C7040E942E068FEF0E94B7051D
:10125000282F30E0982F91701F929F9335952795F6
:10126000277033273F932F9384FB992790F91F9280
:101270009F9385FB992790F91F929F9386FB99274F
:1012800090F91F929F931F928F9388EF90E09F9306
:101290008F930E94350C42E06AE083EF91E00E9458
:1012A000A30644E06CE086EE91E00E94640641E013
:1012B00060E18DED91E00E94A30646E061E182EDE0
:1012C00091E00E94640641E061E08BEC91E00E94B5
:1012D000640641E062E081EC91E00E94640641E036
:1012E00065E08AEB91E00E94640641E066E081EBF4
:1012F00091E00E94640641E060E089EA91E00E948A
:10130000640642E06CE18BE991E00E94640686E0AD
:101310000E94CD0588720FB6F894DEBF0FBECDBF18
:10132000803241F021E090E0883009F020E0E22FA7
:10133000F92F02C0E2E0F0E0EE0FFF1FEB56FE4F88
:10134000859194919F938F9383E891E09F938F93DE
:101350000E94350CE0911402F0E0EE0FFF1FE158FF
:10136000FE4F859194919F938F9380E791E09F9397
:101370008F930E94350C80E00E94CD05182F81E0EC
:101380000E94CD050FB6F894DEBF0FBECDBF13FD92
:1013900002C0882329F012FD06C0E1E0F0E005C09C
:1013A000E0E0F0E002C0E2E0F0E0EE0FFF1FE659FF
:1013B000FE4F859194919F938F9387E591E09F9342
:1013C0008F930E94350C86E00E94CD058670E82F31
:1013D000F0E0E15BFE4F859194919F938F938EE3B4
:1013E00091E09F938F930E94350C87E592E0909354
:1013F000010180930001809169008C7F826080935D
:101400006900E89A0FB6F894DEBF0FBECDBF4EE17B
:10141000742E53E2A52E52E0B52E88248394912C8D
:1014200079E1672EE4E1CE2E0E9490038091720153
:10143000882309F429C110911502133010F4312EBC
:1014400002C023E0322E80911602811102C01319CE
:1014500001C010E00E94C40481E60E9473049FE66C
:10146000492E91E0592E3A94FFEF3F1639F08FEF55
:101470000E947304F20181932F01F5CF112329F00B
:101480008FEF0E9473041150F9CF0E94C10460E7EE
:1014900087E00E94C70490917001209171018091B2
:1014A0006F01813009F06EC09230B1F080F491305C
:1014B00009F068C000916A01F0906B01E0906C0146
:1014C000D0906D0160E070E080E090E429C093303E
:1014D00079F0943039F156C00E949003182F009192
:1014E0006A01F0906B01E0906C01D0906D014AC0F0
:1014F00060916801162F182710936801612F84E00E
:101500000E94C302612F70E080E090E00E946010B2
:1015100000916A01F0906B01E0906C01D0906D0138
:1015200011E033C0822F90E000916A01F0906B01CE
:10153000E0906C01D0906D018230910554F0ECE4A4
:10154000F1E0DE011B968C2D01900D928A95E1F75A
:1015500019C0689EF001699EF00D1124DF01AC5F97
:10156000BE4F1C9111966D917D918D919C91149718
:10157000E75FFE4FDE011B962C2D01900D922A9500
:10158000E1F703C060E070E0CB011A830B83FC82BB
:10159000ED82DE826F83788789879A87FE01319694
:1015A000DE015F96872D01900D928A95E1F780E02C
:1015B0000E94140680911E0290911F020E944B030C
:1015C0008DE10E94CD0581FF08C080911E0290919F
:1015D0001F020E944B030E94CA0580E00E94CD05B5
:1015E000682F6E7F80E00E94C70482E00E94CD05D4
:1015F000F5019491940101C0220F9A95EAF7682FA2
:10160000622B82E00E94C70410911502312E1F3117
:1016100010F08EE1382E80911602811102C013194C
:1016200001C010E00E94C40480EA0E9473049E017D
:10163000215E3F4F29013A94FFEF3F1631F0F2014E
:1016400081912F010E947304F6CF112329F080E0CD
:101650000E9473041150F9CF0E94C10481E00E94DE
:1016600014068FEF0E94B7058073D9F380E00E94C3
:10167000140660E787E00E94C70484FD0E94CA0543
:101680000E942E061092720180916E018823A9F0AB
:1016900010926E0180916A0190916B01A0916C0192
:1016A000B0916D010196A11DB11D80936A019093C7
:1016B0006B01A0936C01B0936D0180916901811160
:1016C000109269010E941B02AFCE10927601109217
:1016D000750188EE93E0A0E0B0E0809377019093ED
:1016E0007801A0937901B0937A0180E491E090931E
:1016F00074018093730185EC90E090938001809356
:101700007F0184EC90E0909382018093810180ECD2
:1017100090E0909384018093830181EC90E090931A
:1017200086018093850182EC90E0909388018093FC
:10173000870186EC90E090938A0180938901109252
:101740008C0110928D0110928E0110928F0160E039
:1017500083E00E940F03EAE4F2E0E491E0932602C2
:10176000E6E3F2E0E491F0E0EE0FFF1FE75DFD4FEE
:1017700085919491909328028093270210923102D0
:101780001092330210923202E1E3F2E0129282E010
:10179000E932F807D9F789E0809310028AE0809354
:1017A00011021092140280E2809315021092160228
:1017B00085E080931C0285E090E0A0E0B0E080939B
:1017C000220290932302A0932402B0932502109248
:1017D000170208950F931F93CF93DF93009731F46F
:1017E0006115710519F480E090E03AC08B01EC01BD
:1017F0006EE070E081E090E00E942D0EFC01892BEC
:1018000091F380E883830115110571F01387028736
:1018100081E883838091340290913502892B21F4F1
:10182000F0933502E09334022097C9F0D187C08746
:101830008381826083838091360290913702892B65
:1018400071F4F0933702E093360280913802909160
:101850003902892B21F4F0933902E0933802CF0149
:10186000DF91CF911F910F910895A0E0B0E0EBE3DD
:10187000FCE00C943710AE01495F5F4FDA016D91C7
:101880007D91AD0104E312E0F80182819381DC01D6
:1018900013962C911397286013962C930E945B0C3F
:1018A000D8011296ED91FC9113972381277F238312
:1018B000E4E00C945310ACE0B0E0E1E6FCE00C9402
:1018C00029107C016B018A01FC0117821682838139
:1018D00081FFBDC1CE0101964C01F7019381F60154
:1018E00093FD859193FF81916F01882309F4ABC12A
:1018F000853239F493FD859193FF81916F01853293
:1019000029F4B70190E00E94930FE7CF512C312CBE
:1019100020E02032A0F48B3269F030F4803259F0AC
:10192000833269F420612CC08D3239F0803339F470
:10193000216026C02260246023C0286021C027FDCA
:1019400027C030ED380F3A3078F426FF06C0FAE0B1
:101950005F9E300D1124532E13C08AE0389E300D47
:101960001124332E20620CC08E3221F426FD6BC16F
:10197000206406C08C3611F4206802C0883641F419
:10198000F60193FD859193FF81916F018111C1CF84
:10199000982F9F7D9554933028F40C5F1F4FFFE3E1
:1019A000F9830DC0833631F0833771F0833509F048
:1019B0005BC022C0F801808189830E5F1F4F4424E1
:1019C0004394512C540115C03801F2E06F0E711C84
:1019D000F801A080B18026FF03C0652D70E002C031
:1019E0006FEF7FEFC5012C870E94880F2C018301C8
:1019F0002C852F77222E17C03801F2E06F0E711C54
:101A0000F801A080B18026FF03C0652D70E002C000
:101A10006FEF7FEFC5012C870E94760F2C012C857C
:101A20002068222E830123FC1BC0832D90E04816E2
:101A30005906B0F4B70180E290E00E94930F3A9407
:101A4000F4CFF50127FC859127FE81915F01B70155
:101A500090E00E94930F31103A94F1E04F1A510830
:101A60004114510471F7E5C0843611F0893639F517
:101A7000F80127FF07C060817181828193810C5F2B
:101A80001F4F08C060817181072E000C880B990BD5
:101A90000E5F1F4F2F76722E97FF09C0909580958D
:101AA000709561957F4F8F4F9F4F2068722E2AE06F
:101AB00030E0A4010E94CB0FA82EA81844C085379F
:101AC00029F42F7EB22E2AE030E025C0F22FF97FD4
:101AD000BF2E8F36C1F018F4883579F0B4C0803746
:101AE00019F0883721F0AFC02F2F2061B22EB4FE3D
:101AF0000DC08B2D8460B82E09C024FF0AC09F2F13
:101B00009660B92E06C028E030E005C020E130E044
:101B100002C020E132E0F801B7FE07C060817181A8
:101B2000828193810C5F1F4F06C06081718180E0CC
:101B300090E00E5F1F4FA4010E94CB0FA82EA818A3
:101B4000FB2DFF777F2E76FE0BC0372D3E7FA51431
:101B500050F474FE0AC072FC08C0372D3E7E05C0EA
:101B6000BA2C372D03C0BA2C01C0B52C34FF0DC0E0
:101B7000FE01EA0DF11D8081803311F4397E09C028
:101B800032FF06C0B394B39404C0832F867809F063
:101B9000B39433FD13C030FF06C05A2CB31418F4AD
:101BA000530C5B18B32CB31468F4B70180E290E0D7
:101BB0003C870E94930FB3943C85F5CFB31410F487
:101BC0003B1801C0312C34FF12C0B70180E390E014
:101BD0003C870E94930F3C8532FF17C031FD03C044
:101BE00088E790E002C088E590E0B7010CC0832F41
:101BF000867859F031FF02C08BE201C080E237FDE8
:101C00008DE2B70190E00E94930FA51438F4B7015C
:101C100080E390E00E94930F5A94F7CFAA94F401C6
:101C2000EA0DF11D8081B70190E00E94930FA11091
:101C3000F5CF332009F451CEB70180E290E00E9445
:101C4000930F3A94F6CFF7018681978102C08FEF08
:101C50009FEF2C96E2E10C9445100F931F93CF93C6
:101C6000DF93869F8001879F100D969F100D112492
:101C7000C8010E94490EEC01009729F0A80160E01C
:101C800070E00E94810FCE01DF91CF911F910F91E3
:101C90000895CF93DF938230910510F482E090E0B5
:101CA000E0913C02F0913D0220E030E0C0E0D0E065
:101CB000309711F14081518148175907C0F04817FA
:101CC000590761F482819381209719F09B838A835D
:101CD0002BC090933D0280933C0226C02115310514
:101CE00019F04217530718F49A01BE01DF01EF0102
:101CF0000280F381E02DDCCF2115310509F1281B8D
:101D0000390B2430310590F412968D919C911397E4
:101D10006115710521F0FB019383828304C09093C8
:101D20003D0280933C02FD01329644C0FD01E20F6A
:101D3000F31F81939193225031092D933C933AC024
:101D400020913A0230913B02232B41F4209138013B
:101D50003091390130933B0220933A0220913601B1
:101D6000309137012115310541F42DB73EB740912F
:101D70003A0150913B01241B350BE0913A02F0915E
:101D80003B02E217F307A0F42E1B3F0B281739077D
:101D900078F0AC014E5F5F4F2417350748F04E0FC7
:101DA0005F1F50933B0240933A028193919302C08C
:101DB000E0E0F0E0CF01DF91CF9108950F931F9302
:101DC000CF93DF93009709F48CC0FC013297138204
:101DD000128200913C0210913D020115110581F41F
:101DE00020813181820F931F20913A0230913B0272
:101DF0002817390779F5F0933B02E0933A0271C056
:101E0000D80140E050E0AE17BF0750F412962D9174
:101E10003C911397AD012115310509F1D901F3CF9B
:101E20009D01DA013383228360817181860F971FC0
:101E30008217930769F4EC0128813981260F371F37
:101E40002E5F3F4F318320838A819B8193838283DE
:101E5000452B29F4F0933D02E0933C0242C01396D7
:101E6000FC93EE931297ED01499159919E01240F35
:101E7000351FE217F30771F480819181840F951F5C
:101E8000029611969C938E938281938113969C93D4
:101E90008E931297E0E0F0E0D80112968D919C911C
:101EA0001397009719F0F8018C01F6CF8D919C9152
:101EB00098012E5F3F4F820F931F20913A0230917D
:101EC0003B022817390769F4309729F410923D0234
:101ED00010923C0202C01382128210933B020093C4
:101EE0003A02DF91CF911F910F910895FC01059067
:101EF000615070400110D8F7809590958E0F9F1F0C
:101F00000895DC0101C06D9341505040E0F7089501
:101F1000FC016150704001900110D8F780959095B8
:101F20008E0F9F1F08950F931F93CF93DF93FB0195
:101F3000238121FD03C08FEF9FEF28C022FF16C031
:101F400046815781248135814217530744F4A0818B
:101F5000B1819D012F5F3F4F318320838C93268178
:101F600037812F5F3F4F3783268310C0EB01092F46
:101F7000182F0084F185E02D0995892BE1F68E81DB
:101F80009F8101969F838E83812F902FDF91CF9128
:101F90001F910F910895FA01AA27283051F120319D
:101FA00081F1E8946F936E7F6E5F7F4F8F4F9F4FED
:101FB000AF4FB1E03ED0B4E03CD0670F781F891F2F
:101FC0009A1FA11D680F791F8A1F911DA11D6A0FFD
:101FD000711D811D911DA11D20D009F468943F91B0
:101FE0002AE0269F11243019305D3193DEF6CF01AF
:101FF0000895462F4770405D4193B3E00FD0C9F775
:10200000F6CF462F4F70405D4A3318F0495D31FDE1
:102010004052419302D0A9F7EACFB4E0A695979534
:10202000879577956795BA95C9F70097610571050A
:1020300008959B01AC010A2E069457954795379554
:102040002795BA95C9F7620F731F841F951FA01DAE
:1020500008952F923F924F925F926F927F928F924C
:102060009F92AF92BF92CF92DF92EF92FF920F9327
:102070001F93CF93DF93CDB7DEB7CA1BDB0B0FB631
:10208000F894DEBF0FBECDBF09942A8839884888EE
:102090005F846E847D848C849B84AA84B984C88484
:1020A000DF80EE80FD800C811B81AA81B981CE0F7B
:1020B000D11D0FB6F894DEBF0FBECDBFED01089560
:1020C000E89409C097FB3EF49095809570956195D2
:1020D0007F4F8F4F9F4F9923A9F0F92F96E9BB2788
:1020E0009395F695879577956795B795F111F8CF04
:1020F000FAF4BB0F11F460FF1BC06F5F7F4F8F4F6F
:102100009F4F16C0882311F096E911C0772321F064
:102110009EE8872F762F05C0662371F096E8862FFC
:1021200070E060E02AF09A95660F771F881FDAF753
:10213000880F9695879597F908950E94B0100C9492
:1021400021110E94131138F00E941A1120F09523DA
:1021500011F00C940A110C94101111240C945511C7
:102160000E94321170F3959FC1F3950F50E0551FF7
:10217000629FF001729FBB27F00DB11D639FAA27DC
:10218000F00DB11DAA1F649F6627B00DA11D661F2B
:10219000829F2227B00DA11D621F739FB00DA11D4C
:1021A000621F839FA00D611D221F749F3327A00D06
:1021B000611D231F849F600D211D822F762F6A2FA2
:1021C00011249F5750409AF0F1F088234AF0EE0F07
:1021D000FF1FBB1F661F771F881F91505040A9F734
:1021E0009E3F510580F00C940A110C9455115F3FED
:1021F000E4F3983ED4F3869577956795B795F79570
:10220000E7959F5FC1F7FE2B880F911D96958795E7
:1022100097F9089597F99F6780E870E060E0089566
:102220009FEF80EC089500240A94161617061806EE
:102230000906089500240A941216130614060506CA
:102240000895092E0394000C11F4882352F0BB0F5B
:1022500040F4BF2B11F460FF04C06F5F7F4F8F4FBE
:102260009F4F089557FD9058440F551F59F05F3FF9
:1022700071F04795880F97FB991F61F09F3F79F0A8
:1022800087950895121613061406551FF2CF46952A
:10229000F1DF08C0161617061806991FF1CF8695AC
:1022A0007105610508940895E894BB276627772790
:1022B000CB0197F90895EE0FFF1F0590F491E02DE3
:1022C000099481E090E0F8940C946611F894FFCFA3
:1022D0004A024A02000000000031384232305F7486
:1022E000656D702843290000000000000000000018
:1022F00000005377697468000000000000000000CF
:1023000000000000000000003E028000000000000D
:10231000B2017A047B0159016D01F901546F6F20FC
:0E232000626967206E756D207061722E00007C
:00000001FF
