:100000000C942A010C9452010C9452010C9452014C
:100010000C9452010C9452010C9452010C94520114
:100020000C9452010C9452010C9452010C94520104
:100030000C9452010C9452010C9452010C945201F4
:100040000C9445050C9452010C9413050C94ED048A
:100050000C9452010C9452010C9452010C945201D4
:100060000C9452010C94520150415F4D4158005084
:10007000415F484947480050415F4C4F570050414D
:100080005F4D494E0031362062697473003820623A
:100090006974730044697361626C6564006E5246F2
:1000A00032344C30312B006E524632344C303100F9
:1000B0003235304B42505300324D42505300314D97
:1000C0004250530000000008000201000003040732
:1000D00000000000000000001112131415160A0B96
:1000E0000C0D0E0F000102030405535441545553E7
:1000F0000909203D203078253032782052585F445D
:10010000523D25782054585F44533D2578204D4179
:10011000585F52543D25782052585F505F4E4F3DF6
:1001200025782054585F46554C4C3D25780D0A00E3
:10013000504120506F77657209203D2025530D0AEC
:10014000007E0077006F006800435243204C656ECC
:1001500067746809203D2025530D0A0094008D0026
:1001600085004D6F64656C0909203D2025530D0AFB
:1001700000A7009D004461746120526174650920EC
:100180003D2025530D0A00BE00B800B00044594E72
:1001900050442F4645415455524500434F4E464921
:1001A00047090052465F53455455500052465F433D
:1001B000480900454E5F52584144445200454E5F45
:1001C0004141090052585F50575F50302D3600545E
:1001D000585F41444452090052585F414444525FC1
:1001E00050322D350052585F414444525F50302DFB
:1001F000310000000000250028002B000000000056
:10020000240027002A000404040404040404020255
:100210000202020203030303030301020408102085
:1002200040800102040810200102040810200D0A79
:1002300000253032780020307800255309203D0019
:100240000D0A002030782530327800255309203DF2
:1002500000008F0511241FBECFEFD8E0DEBFCDBF59
:1002600011E0A0E0B1E0E4EFFAE102C005900D92E8
:10027000A631B107D9F721E0A6E1B1E001C01D9296
:10028000AD3DB207E1F711E0CAE2D1E004C0219729
:10029000FE010E946D0DC932D107C9F70E94D10538
:1002A0000C94780D0C94000090E0FC01E65EFD4F8C
:1002B0002491FC01EA5FFD4F8491882399F090E03E
:1002C000880F991FFC01E450FE4FA591B491FC01E9
:1002D000EE50FE4F859194918FB7F894EC91E22BFC
:1002E000EC938FBF0895CF92DF92EF92FF920F931E
:1002F0001F93CF93DF936C017A018B01C0E0D0E0B4
:10030000CE15DF0589F0D8016D918D01D601ED91F3
:10031000FC910190F081E02DC6010995892B11F423
:100320007E0102C02196ECCFC701DF91CF911F91D2
:100330000F91FF90EF90DF90CF900895FC01918D89
:10034000828D981761F0828DDF01A80FB11D5D9637
:100350008C91928D9F5F9F73928F90E008958FEFA5
:100360009FEF0895FC01918D828D981731F0828D59
:10037000E80FF11D858D90E008958FEF9FEF0895B0
:10038000FC01918D228D892F90E0805C9F4F821B14
:1003900091098F739927089580E291E00E94C0012E
:1003A00021E0892B09F420E0822F0895FC01848D3F
:1003B000DF01A80FB11DA35ABF4F2C91848D90E08F
:1003C00001968F739927848FA689B7892C93A0896A
:1003D000B1898C9180648C93938D848D981306C021
:1003E0000288F389E02D80818F7D80830895EF92CC
:1003F000FF920F931F93CF93DF93EC0181E0888FDF
:100400009B8D8C8D981305C0E889F989808185FDC5
:1004100024C0F62E0B8D10E00F5F1F4F0F731127B6
:10042000E02E8C8DE8120CC00FB607FCFACFE889DD
:10043000F989808185FFF5CFCE010E94D601F1CFE9
:100440008B8DFE01E80FF11DE35AFF4FF0820B8FF9
:10045000EA89FB898081806207C0EE89FF89608319
:10046000E889F98980818064808381E090E0DF9170
:10047000CF911F910F91FF90EF900895CF93DF934D
:10048000EC01888D8823C9F0EA89FB89808185FD8C
:1004900005C0A889B9898C9186FD0FC00FB607FCED
:1004A000F5CF808185FFF2CFA889B9898C9185FF2E
:1004B000EDCFCE010E94D601E7CFDF91CF91089515
:1004C00080E090E0892B29F00E94CC0181110C94EE
:1004D0000000089590E0FC01EC53FF4F3491FC01C3
:1004E000E65EFD4F2491FC01EA5FFD4FE491EE23AF
:1004F00009F43BC0332339F1333091F038F4313013
:10050000A9F0323001F584B58F7D12C0373091F0FB
:100510003830A1F03430B9F4809180008F7D03C071
:10052000809180008F77809380000DC084B58F7795
:1005300084BD09C08091B0008F7703C08091B00066
:100540008F7D8093B000F0E0EE0FFF1FEE50FE4F66
:10055000A591B4918FB7F894EC91611103C02095E7
:100560002E2301C02E2B2C938FBF08953FB7F894F4
:100570008091170190911801A0911901B0911A0171
:1005800026B5A89B05C02F3F19F00196A11DB11DEE
:100590003FBFBA2FA92F982F8827820F911DA11D29
:1005A000B11DBC01CD0142E0660F771F881F991F66
:1005B0004A95D1F708958F929F92AF92BF92CF92B2
:1005C000DF92EF92FF926B017C010E94B6024B0119
:1005D0005C01C114D104E104F104F1F00E94B602FF
:1005E000DC01CB0188199909AA09BB09883E93400F
:1005F000A105B10570F321E0C21AD108E108F108A4
:1006000088EE880E83E0981EA11CB11CC114D10491
:10061000E104F10419F7DDCFFF90EF90DF90CF9068
:10062000BF90AF909F908F9008958EBD00000DB445
:1006300007FEFDCF8EB50895CF93C82F682F80E2B7
:1006400091E00E94F7018C2FCC0F990BCF91089568
:100650009CB59F7D9CBD9CB5937F9CBD9CB59C7FAC
:100660009CBD9DB591609DBD682F8091BE010E948B
:100670006A028091CF019091D0018230910538F0CB
:10068000880F991F880F991F05970197F1F7089513
:1006900081E00C94280380E00C9428031F93CF93EF
:1006A000DF9300D0CDB7DEB76A8389830E944B0306
:1006B00089818F7180620E941503182F6A81862FAD
:1006C0000E9415030E944803812F0F900F90DF9125
:1006D000CF911F910895CF93DF931F92CDB7DEB7CF
:1006E00089830E944B0389810E94150389830E949C
:1006F000480389810F90DF91CF910895CF93DF93C5
:100700001F92CDB7DEB789830E944B0389818F7119
:100710000E9415038FEF0E94150389830E944803EE
:1007200089810F90DF91CF91089580E00E947E0330
:1007300081FD0BC0682F626080E00E944E0365E07F
:1007400070E080E090E00C94DB0208950F931F931B
:10075000CF938C0186E00E947E03C82FC77D0230B4
:10076000110531F4C0628BE990E0A0E0B0E00DC06B
:100770000130110529F085E590E0A0E0B0E005C06A
:10078000C86081E490E0A0E0B0E08093CB0190935A
:10079000CC01A093CD01B093CE016C2F86E00E94D6
:1007A0004E0386E00E947E0391E08C1390E0892F37
:1007B000CF911F910F910895EF92FF920F931F9386
:1007C000CF93DF9300D01F92CDB7DEB7162F4A83A9
:1007D0007B8389830E944B0389818F7180620E9491
:1007E0001503082FE12E7B81F72E4A81140F1E1569
:1007F00031F0F70181917F010E941503F8CF0E942B
:100800004803802F0F900F900F90DF91CF911F9191
:100810000F91FF90EF900895EF92FF920F931F9327
:10082000CF93DF931F92CDB7DEB7E42E9F938F93C4
:100830008BE492E09F938F9369830E9442096981C0
:10084000E60E0F900F900F900F9003E412E06E15DC
:1008500091F0FF24F394F60E862F0E947E031F92E0
:100860008F931F930F930E9442090F900F900F9048
:100870000F906F2DECCF80E492E09F938F930E94B6
:1008800042090F900F900F90DF91CF911F910F9120
:10089000FF90EF9008952F923F924F925F926F9248
:1008A0007F928F929F92AF92BF92CF92DF92EF9200
:1008B000FF920F931F93CF93DF931F92CDB7DEB7B5
:1008C000562E342E6DB67EB69F938F938AE392E0B8
:1008D0009F938F930E944209350C0F900F900F90B9
:1008E0000F9086E3C82E82E0D82E91E3A92E92E0E5
:1008F000B92E531409F44EC08DB69EB69091C9011D
:10090000092F10E02DB73EB7201B310B0FB6F8941E
:100910003EBF0FBE2DBFEDB7FEB731967F0122243B
:100920002394250C99830E944B03852D8F710E947F
:100930001503270199819E0D941549F08FEF998336
:100940000E941503F20181932F019981F5CF0E9436
:100950004803DF92CF920E9442090E0D1F1D0F9097
:100960000F90015011090E151F0568F0F8018081E4
:100970001F928F93BF92AF920E9442090F900F90E7
:100980000F900F90EECF0FB6F8949EBE0FBE8DBEA7
:10099000522CAFCF8EE292E09F938F930E94420938
:1009A0000F900F900FB6F8947EBE0FBE6DBE0F90E5
:1009B000DF91CF911F910F91FF90EF90DF90CF903B
:1009C000BF90AF909F908F907F906F905F904F906F
:1009D0003F902F9008950E94730D1F920F920FB6B3
:1009E0000F9211242F933F934F935F936F937F93B5
:1009F0008F939F93AF93BF93EF93FF9380E291E028
:100A00000E94D601FF91EF91BF91AF919F918F917D
:100A10007F916F915F914F913F912F910F900FBEFA
:100A20000F901F9018951F920F920FB60F921124DE
:100A30002F938F939F93EF93FF93E0913001F09169
:100A400031018081E0913601F091370182FD12C0C1
:100A50009081809139018F5F8F7320913A018217C5
:100A600051F0E0913901F0E0E05EFE4F958F809308
:100A7000390101C08081FF91EF919F918F912F915A
:100A80000F900FBE0F901F9018951F920F920FB6E8
:100A90000F9211242F933F938F939F93AF93BF9304
:100AA00080911C0190911D01A0911E01B0911F0128
:100AB0003091160123E0230F2D3720F40196A11D5C
:100AC000B11D05C026E8230F0296A11DB11D20937C
:100AD000160180931C0190931D01A0931E01B093F9
:100AE0001F018091170190911801A0911901B091F7
:100AF0001A010196A11DB11D809317019093180151
:100B0000A0931901B0931A01BF91AF919F918F915A
:100B10003F912F910F900FBE0F901F901895E0E21C
:100B2000F1E01382128288EE93E0A0E0B0E08483CB
:100B30009583A683B7838AE091E09183808385ECD7
:100B400090E09587848784EC90E09787868780EC97
:100B500090E0918B808B81EC90E0938B828B82EC88
:100B600090E0958B848B86EC90E0978B868B118E32
:100B7000128E138E148EEDEBF1E089E080838AE013
:100B80008183148280E28583168285E0848785E0F4
:100B900090E0A0E0B0E0828B938BA48BB58B1782A2
:100BA0000895CF93DF93CDB7DEB762970FB6F89471
:100BB000DEBF0FBECDBF789484B5826084BD84B59E
:100BC000816084BD85B5826085BD85B5816085BD48
:100BD00080916E00816080936E0010928100809100
:100BE0008100826080938100809181008160809388
:100BF0008100809180008160809380008091B100AD
:100C000084608093B1008091B00081608093B000D7
:100C100080917A00846080937A0080917A0082606B
:100C200080937A0080917A00816080937A0080912D
:100C30007A00806880937A001092C100E0913001C0
:100C4000F091310182E08083E0913001F091310137
:100C50001082E0912C01F0912D011082E0912E0183
:100C6000F0912F0180E1808310923801E0913401EE
:100C7000F091350186E08083E0913201F0913301FB
:100C8000808180618083E0913201F0913301808125
:100C900088608083E0913201F09133018081806827
:100CA0008083E0913201F091330180818F7D8083D8
:100CB00060E070E08CE193E00E94F7088091BD0154
:100CC0009091BE0189130E9454018091BE019091C0
:100CD000BD0198130E9454011FB7F89480911B0125
:100CE000811124C0E0E1F2E08491E4E2F2E0949129
:100CF000E82FF0E0EE0FFF1FE450FE4FA591B491F6
:100D0000EC91E92321F461E08AE00E946A028AE022
:100D10000E9454018CB580618CBD8CB580648CBD03
:100D20008DE00E9454018BE00E94540180911B01D0
:100D30008F5F80931B011FBF8091BD019091BE0109
:100D4000891719F060E00E946A0281E00E9428037E
:100D500065E070E080E090E00E94DB026CE080E003
:100D60000E944E036FE584E00E944E0382E090E013
:100D70000E94A603882319F081E08093C10186E0D8
:100D80000E947E0380E090E00E94A6030E944B0335
:100D900080E50E94150383E70E9415030E94480323
:100DA00060E08DE10E944E0360E08CE10E944E0302
:100DB00060E787E00E944E036CE485E00E944E03EA
:100DC00082EE0E946B0381EE0E946B030E949503EA
:100DD00080E00E947E03682F6E7F80E00E944E03B9
:100DE00060E081E00E944E038DE10E947E03682F47
:100DF00064608DE10E944E038CE10E947E03682FA7
:100E00006F638CE10E944E0381E08093C30182E016
:100E100090E00E94A6036CE485E00E944E0386E009
:100E20000E947E03682F676086E00E944E0382EE78
:100E3000898710EF1A871B871C871D871E861F86D0
:100E4000188A4091C901BE01675F7F4F8AE00E9406
:100E5000DC034091C901BE01675F7F4F80E10E94C2
:100E6000DC036091C20181E10E944E0381EE89831F
:100E70001A831B831C831D831E821F821886EFED3D
:100E8000F0E084914091C901BE016F5F7F4F0E94E5
:100E9000DC03E9EDF0E084916091C2010E944E0311
:100EA00082E00E947E03E5EEF0E0E49161E070E014
:100EB00001C0660FEA95EAF7682B82E00E944E03B4
:100EC0000E94950380E00E947E03682F616080E0AD
:100ED0000E944E0360E787E00E944E038091BD01AF
:100EE0009091BE01891719F061E00E946A02809119
:100EF000C401882341F04091C90164EC71E08AE0AB
:100F00000E94DC0312C082E00E947E03E4EEF0E067
:100F1000E49121E030E001C0220FEA95EAF7209544
:100F2000622F682382E00E944E038DE10E947E03BF
:100F300081FF03C081EE0E946B038FEF0E946B0361
:100F4000282F30E0982F91701F929F933595279509
:100F5000277033273F932F9384FB992790F91F9293
:100F60009F9385FB992790F91F929F9386FB992762
:100F700090F91F929F931F928F938AEE90E09F9318
:100F80008F930E94420942E06AE085EE91E00E9460
:100F90004B0444E06CE088ED91E00E940C0441E0D9
:100FA00060E18FEC91E00E944B0446E061E184EC4B
:100FB00091E00E940C0441E061E08DEB91E00E9421
:100FC0000C0441E062E083EB91E00E940C0441E0FC
:100FD00065E08CEA91E00E940C0441E066E083EA5F
:100FE00091E00E940C0441E060E08BE991E00E94F6
:100FF0000C0442E06CE18DE891E00E940C0486E074
:101000000E947E0388720FB6F894DEBF0FBECDBF7C
:10101000803241F021E090E0883009F020E0E22FBA
:10102000F92F02C0E2E0F0E0EE0FFF1FE957FE4F9C
:10103000859194919F938F9385E791E09F938F93F0
:101040000E944209E091C101F0E0EE0FFF1FEF584E
:10105000FE4F859194919F938F9382E691E09F93A9
:101060008F930E94420980E00E947E03182F81E046
:101070000E947E030FB6F894DEBF0FBECDBF13FDF6
:1010800002C0882329F012FD06C0E1E0F0E005C0AF
:10109000E0E0F0E002C0E2E0F0E0EE0FFF1FE45A13
:1010A000FE4F859194919F938F9389E491E09F9354
:1010B0008F930E94420986E00E947E038670E82F8B
:1010C000F0E0EF5BFE4F859194919F938F9380E3C7
:1010D00091E09F938F930E9442090FB6F894DEBF70
:1010E0000FBECDBF7E0131E1E30EF11C198A8FB72F
:1010F000F89480901C0190901D01A0901E01B0906A
:101100001F018FBF10E087E10E947E03082F01704E
:1011100080FD54C011114FC00E944B0380E60E9415
:1011200015038FEF0E9415038A8B0E9448038A895A
:10113000813250F082EE0E946B0362E070E080E04A
:1011400090E00E94DB0201C0082F1091C20110172D
:1011500008F4012F8091C301811102C0101B01C04E
:1011600010E00E944B0381E60E94150367010E0DFB
:101170000C1539F08FEF0E941503F60181936F0172
:10118000F7CF112329F08FEF0E9415031150F9CFEB
:101190000E94480360E787E00E944E03F701019038
:1011A0000020E9F73197AF014E195F09B70180E2DE
:1011B00091E00E9473010E94600298CF1111FBCF51
:1011C0002FB7F89480911C0190911D01A0911E01F0
:1011D000B0911F012FBF88199909AA09BB0911E015
:1011E00081399140A105B10508F08DCF8BCF0F93C8
:1011F0001F93CF93DF93009731F46115710519F4B4
:1012000080E090E03AC08B01EC016EE070E081E09C
:1012100090E00E943A0BFC01892B91F380E88383D4
:101220000115110571F01387028781E8838380918E
:10123000D3019091D401892B21F4F093D401E09350
:10124000D3012097C9F0D187C087838182608383CF
:101250008091D5019091D601892B71F4F093D6013C
:10126000E093D5018091D7019091D801892B21F489
:10127000F093D801E093D701CF01DF91CF911F9177
:101280000F910895A0E0B0E0E8E4F9E00C94440D7B
:10129000AE01495F5F4FDA016D917D91AD0103EDC4
:1012A00011E0F80182819381DC0113962C91139750
:1012B000286013962C930E946809D8011296ED912C
:1012C000FC9113972381277F2383E4E00C94600D26
:1012D000ACE0B0E0EEE6F9E00C94360D7C016B0179
:1012E0008A01FC0117821682838181FFBDC1CE0174
:1012F00001964C01F7019381F60193FD859193FFCF
:1013000081916F01882309F4ABC1853239F493FDD3
:10131000859193FF81916F01853229F4B70190E0A7
:101320000E94A00CE7CF512C312C20E02032A0F4F9
:101330008B3269F030F4803259F0833269F42061E5
:101340002CC08D3239F0803339F4216026C0226000
:10135000246023C0286021C027FD27C030ED380F4E
:101360003A3078F426FF06C0FAE05F9E300D112473
:10137000532E13C08AE0389E300D1124332E206284
:101380000CC08E3221F426FD6BC1206406C08C3661
:1013900011F4206802C0883641F4F60193FD85916E
:1013A00093FF81916F018111C1CF982F9F7D95543B
:1013B000933028F40C5F1F4FFFE3F9830DC0833691
:1013C00031F0833771F0833509F05BC022C0F8013A
:1013D000808189830E5F1F4F44244394512C540114
:1013E00015C03801F2E06F0E711CF801A080B180C9
:1013F00026FF03C0652D70E002C06FEF7FEFC501CF
:101400002C870E94950C2C0183012C852F77222E8E
:1014100017C03801F2E06F0E711CF801A080B18096
:1014200026FF03C0652D70E002C06FEF7FEFC5019E
:101430002C870E94830C2C012C852068222E83018E
:1014400023FC1BC0832D90E048165906B0F4B70169
:1014500080E290E00E94A00C3A94F4CFF50127FCC2
:10146000859127FE81915F01B70190E00E94A00C59
:1014700031103A94F1E04F1A51084114510471F7B8
:10148000E5C0843611F0893639F5F80127FF07C029
:1014900060817181828193810C5F1F4F08C06081E0
:1014A0007181072E000C880B990B0E5F1F4F2F7652
:1014B000722E97FF09C090958095709561957F4F2A
:1014C0008F4F9F4F2068722E2AE030E0A4010E94C7
:1014D000D80CA82EA81844C0853729F42F7EB22E28
:1014E0002AE030E025C0F22FF97FBF2E8F36C1F001
:1014F00018F4883579F0B4C0803719F0883721F0B6
:10150000AFC02F2F2061B22EB4FE0DC08B2D846092
:10151000B82E09C024FF0AC09F2F9660B92E06C0BE
:1015200028E030E005C020E130E002C020E132E0F8
:10153000F801B7FE07C060817181828193810C5FE1
:101540001F4F06C06081718180E090E00E5F1F4FE9
:10155000A4010E94D80CA82EA818FB2DFF777F2E7F
:1015600076FE0BC0372D3E7FA51450F474FE0AC0E2
:1015700072FC08C0372D3E7E05C0BA2C372D03C043
:10158000BA2C01C0B52C34FF0DC0FE01EA0DF11DCF
:101590008081803311F4397E09C032FF06C0B394D4
:1015A000B39404C0832F867809F0B39433FD13C03D
:1015B00030FF06C05A2CB31418F4530C5B18B32C2C
:1015C000B31468F4B70180E290E03C870E94A00C5D
:1015D000B3943C85F5CFB31410F43B1801C0312C03
:1015E00034FF12C0B70180E390E03C870E94A00C5A
:1015F0003C8532FF17C031FD03C088E790E002C090
:1016000088E590E0B7010CC0832F867859F031FF50
:1016100002C08BE201C080E237FD8DE2B70190E0AD
:101620000E94A00CA51438F4B70180E390E00E945A
:10163000A00C5A94F7CFAA94F401EA0DF11D808111
:10164000B70190E00E94A00CA110F5CF332009F45F
:1016500051CEB70180E290E00E94A00C3A94F6CF00
:10166000F7018681978102C08FEF9FEF2C96E2E110
:101670000C94520D0F931F93CF93DF93869F80019D
:10168000879F100D969F100D1124C8010E94560BC4
:10169000EC01009729F0A80160E070E00E948E0C38
:1016A000CE01DF91CF911F910F910895CF93DF93DA
:1016B0008230910510F482E090E0E091DB01F0913E
:1016C000DC0120E030E0C0E0D0E0309711F1408153
:1016D000518148175907C0F04817590761F48281B2
:1016E0009381209719F09B838A832BC09093DC0110
:1016F0008093DB0126C02115310519F042175307ED
:1017000018F49A01BE01DF01EF010280F381E02DA0
:10171000DCCF2115310509F1281B390B24303105A7
:1017200090F412968D919C9113976115710521F09B
:10173000FB019383828304C09093DC018093DB01DF
:10174000FD01329644C0FD01E20FF31F8193919396
:10175000225031092D933C933AC02091D901309108
:10176000DA01232B41F420910201309103013093DF
:10177000DA012093D9012091000130910101211556
:10178000310541F42DB73EB7409104015091050158
:10179000241B350BE091D901F091DA01E217F30730
:1017A000A0F42E1B3F0B2817390778F0AC014E5FD1
:1017B0005F4F2417350748F04E0F5F1F5093DA0133
:1017C0004093D9018193919302C0E0E0F0E0CF0112
:1017D000DF91CF9108950F931F93CF93DF930097DD
:1017E00009F48CC0FC013297138212820091DB0154
:1017F0001091DC010115110581F420813181820FE6
:10180000931F2091D9013091DA012817390779F512
:10181000F093DA01E093D90171C0D80140E050E0C3
:10182000AE17BF0750F412962D913C911397AD015E
:101830002115310509F1D901F3CF9D01DA01338377
:10184000228360817181860F971F8217930769F445
:10185000EC0128813981260F371F2E5F3F4F3183DE
:1018600020838A819B8193838283452B29F4F09383
:10187000DC01E093DB0142C01396FC93EE931297D8
:10188000ED01499159919E01240F351FE217F3078D
:1018900071F480819181840F951F029611969C931B
:1018A0008E938281938113969C938E931297E0E09E
:1018B000F0E0D80112968D919C911397009719F042
:1018C000F8018C01F6CF8D919C9198012E5F3F4FCE
:1018D000820F931F2091D9013091DA01281739071F
:1018E00069F4309729F41092DC011092DB0102C0F8
:1018F000138212821093DA010093D901DF91CF9104
:101900001F910F910895FC010590615070400110E6
:10191000D8F7809590958E0F9F1F0895DC0101C028
:101920006D9341505040E0F70895FC0161507040C4
:1019300001900110D8F7809590958E0F9F1F089504
:101940000F931F93CF93DF93FB01238121FD03C0EE
:101950008FEF9FEF28C022FF16C046815781248158
:1019600035814217530744F4A081B1819D012F5F57
:101970003F4F318320838C93268137812F5F3F4FE8
:101980003783268310C0EB01092F182F0084F185BF
:10199000E02D0995892BE1F68E819F8101969F8329
:1019A0008E83812F902FDF91CF911F910F910895FA
:1019B000FA01AA27283051F1203181F1E8946F9380
:1019C0006E7F6E5F7F4F8F4F9F4FAF4FB1E03ED026
:1019D000B4E03CD0670F781F891F9A1FA11D680FC4
:1019E000791F8A1F911DA11D6A0F711D811D911DF7
:1019F000A11D20D009F468943F912AE0269F11246C
:101A00003019305D3193DEF6CF010895462F4770CF
:101A1000405D4193B3E00FD0C9F7F6CF462F4F702A
:101A2000405D4A3318F0495D31FD4052419302D088
:101A3000A9F7EACFB4E0A69597958795779567952E
:101A4000BA95C9F700976105710508959B01AC012E
:101A50000A2E06945795479537952795BA95C9F755
:101A6000620F731F841F951FA01D08952F923F9230
:101A70004F925F926F927F928F929F92AF92BF929E
:101A8000CF92DF92EF92FF920F931F93CF93DF934A
:101A9000CDB7DEB7CA1BDB0B0FB6F894DEBF0FBEA7
:101AA000CDBF09942A88398848885F846E847D84F4
:101AB0008C849B84AA84B984C884DF80EE80FD80F6
:101AC0000C811B81AA81B981CE0FD11D0FB6F8946C
:101AD000DEBF0FBECDBFED010895EE0FFF1F0590D5
:101AE000F491E02D099481E090E0F8940C94780D45
:041AF000F894FFCF98
:101AF4000000DD01800000000000F7017301C00157
:061B04009E01B2013E0249
:00000001FF
